{
  "contractName": "MLM",
  "abi": [
    {
      "constant": true,
      "inputs": [
        {
          "name": "",
          "type": "uint256"
        }
      ],
      "name": "users_ids",
      "outputs": [
        {
          "name": "",
          "type": "address"
        }
      ],
      "payable": false,
      "stateMutability": "view",
      "type": "function"
    },
    {
      "constant": true,
      "inputs": [],
      "name": "totalAmountDistributed",
      "outputs": [
        {
          "name": "",
          "type": "uint256"
        }
      ],
      "payable": false,
      "stateMutability": "view",
      "type": "function"
    },
    {
      "constant": true,
      "inputs": [],
      "name": "distributionWallet",
      "outputs": [
        {
          "name": "",
          "type": "uint256"
        }
      ],
      "payable": false,
      "stateMutability": "view",
      "type": "function"
    },
    {
      "constant": true,
      "inputs": [
        {
          "name": "",
          "type": "address"
        }
      ],
      "name": "usersFund",
      "outputs": [
        {
          "name": "recycleFund",
          "type": "uint256"
        },
        {
          "name": "levelFund",
          "type": "uint256"
        }
      ],
      "payable": false,
      "stateMutability": "view",
      "type": "function"
    },
    {
      "constant": true,
      "inputs": [],
      "name": "levelRewardWallet",
      "outputs": [
        {
          "name": "",
          "type": "uint256"
        }
      ],
      "payable": false,
      "stateMutability": "view",
      "type": "function"
    },
    {
      "constant": true,
      "inputs": [
        {
          "name": "",
          "type": "uint256"
        }
      ],
      "name": "levelWinners",
      "outputs": [
        {
          "name": "",
          "type": "address"
        }
      ],
      "payable": false,
      "stateMutability": "view",
      "type": "function"
    },
    {
      "constant": true,
      "inputs": [],
      "name": "ownerWallet",
      "outputs": [
        {
          "name": "",
          "type": "address"
        }
      ],
      "payable": false,
      "stateMutability": "view",
      "type": "function"
    },
    {
      "constant": true,
      "inputs": [
        {
          "name": "",
          "type": "address"
        }
      ],
      "name": "users",
      "outputs": [
        {
          "name": "id",
          "type": "uint256"
        },
        {
          "name": "inviter",
          "type": "address"
        },
        {
          "name": "totalReferals",
          "type": "uint256"
        },
        {
          "name": "totalWins",
          "type": "uint256"
        },
        {
          "name": "totalRecycles",
          "type": "uint256"
        },
        {
          "name": "levelsPurchased",
          "type": "uint256"
        },
        {
          "name": "upline",
          "type": "uint256"
        },
        {
          "name": "isExist",
          "type": "bool"
        },
        {
          "name": "loss",
          "type": "uint256"
        },
        {
          "name": "getLevelReward",
          "type": "bool"
        }
      ],
      "payable": false,
      "stateMutability": "view",
      "type": "function"
    },
    {
      "constant": true,
      "inputs": [
        {
          "name": "",
          "type": "address"
        }
      ],
      "name": "usersIncomes",
      "outputs": [
        {
          "name": "directIncome",
          "type": "uint256"
        },
        {
          "name": "rewardIncome",
          "type": "uint256"
        },
        {
          "name": "levelIncome",
          "type": "uint256"
        },
        {
          "name": "recycleIncome",
          "type": "uint256"
        },
        {
          "name": "upgradeIncome",
          "type": "uint256"
        },
        {
          "name": "levelRewardIncome",
          "type": "uint256"
        }
      ],
      "payable": false,
      "stateMutability": "view",
      "type": "function"
    },
    {
      "constant": true,
      "inputs": [
        {
          "name": "",
          "type": "uint256"
        }
      ],
      "name": "levels",
      "outputs": [
        {
          "name": "",
          "type": "uint256"
        }
      ],
      "payable": false,
      "stateMutability": "view",
      "type": "function"
    },
    {
      "constant": true,
      "inputs": [],
      "name": "totalUsers",
      "outputs": [
        {
          "name": "",
          "type": "uint256"
        }
      ],
      "payable": false,
      "stateMutability": "view",
      "type": "function"
    },
    {
      "constant": true,
      "inputs": [],
      "name": "rewardWallet",
      "outputs": [
        {
          "name": "",
          "type": "uint256"
        }
      ],
      "payable": false,
      "stateMutability": "view",
      "type": "function"
    },
    {
      "inputs": [],
      "payable": false,
      "stateMutability": "nonpayable",
      "type": "constructor"
    },
    {
      "anonymous": false,
      "inputs": [
        {
          "indexed": true,
          "name": "addr",
          "type": "address"
        },
        {
          "indexed": true,
          "name": "inviter",
          "type": "address"
        },
        {
          "indexed": false,
          "name": "id",
          "type": "uint256"
        }
      ],
      "name": "Register",
      "type": "event"
    },
    {
      "anonymous": false,
      "inputs": [
        {
          "indexed": true,
          "name": "addr",
          "type": "address"
        },
        {
          "indexed": true,
          "name": "upline",
          "type": "address"
        },
        {
          "indexed": false,
          "name": "level",
          "type": "uint8"
        }
      ],
      "name": "BuyLevel",
      "type": "event"
    },
    {
      "anonymous": false,
      "inputs": [
        {
          "indexed": true,
          "name": "_user",
          "type": "address"
        },
        {
          "indexed": false,
          "name": "_level",
          "type": "uint256"
        }
      ],
      "name": "buyLevelEvent",
      "type": "event"
    },
    {
      "constant": false,
      "inputs": [
        {
          "name": "_inviter_id",
          "type": "uint256"
        }
      ],
      "name": "register",
      "outputs": [],
      "payable": true,
      "stateMutability": "payable",
      "type": "function"
    },
    {
      "constant": false,
      "inputs": [
        {
          "name": "_level",
          "type": "uint256"
        }
      ],
      "name": "buyLevel",
      "outputs": [],
      "payable": true,
      "stateMutability": "payable",
      "type": "function"
    },
    {
      "constant": false,
      "inputs": [
        {
          "name": "_user",
          "type": "address"
        }
      ],
      "name": "autoBuyLevel",
      "outputs": [],
      "payable": false,
      "stateMutability": "nonpayable",
      "type": "function"
    },
    {
      "constant": false,
      "inputs": [
        {
          "name": "_user",
          "type": "address"
        }
      ],
      "name": "recycleId",
      "outputs": [],
      "payable": false,
      "stateMutability": "nonpayable",
      "type": "function"
    },
    {
      "constant": false,
      "inputs": [
        {
          "name": "_winner1",
          "type": "uint256"
        },
        {
          "name": "_winner2",
          "type": "uint256"
        },
        {
          "name": "_winner3",
          "type": "uint256"
        }
      ],
      "name": "distributeReward",
      "outputs": [],
      "payable": false,
      "stateMutability": "nonpayable",
      "type": "function"
    },
    {
      "constant": false,
      "inputs": [],
      "name": "distributeLevelReward",
      "outputs": [],
      "payable": false,
      "stateMutability": "nonpayable",
      "type": "function"
    },
    {
      "constant": false,
      "inputs": [
        {
          "name": "_level",
          "type": "uint256"
        },
        {
          "name": "_user",
          "type": "address"
        }
      ],
      "name": "distributeLevelUpgradeAmount",
      "outputs": [],
      "payable": false,
      "stateMutability": "nonpayable",
      "type": "function"
    },
    {
      "constant": true,
      "inputs": [],
      "name": "getTotalAmountWithdrawn",
      "outputs": [
        {
          "name": "",
          "type": "uint256"
        }
      ],
      "payable": false,
      "stateMutability": "view",
      "type": "function"
    },
    {
      "constant": true,
      "inputs": [],
      "name": "getTotalUsers",
      "outputs": [
        {
          "name": "",
          "type": "uint256"
        }
      ],
      "payable": false,
      "stateMutability": "view",
      "type": "function"
    },
    {
      "constant": true,
      "inputs": [],
      "name": "getRewardWallet",
      "outputs": [
        {
          "name": "",
          "type": "uint256"
        }
      ],
      "payable": false,
      "stateMutability": "view",
      "type": "function"
    },
    {
      "constant": true,
      "inputs": [],
      "name": "getLevelRewardWallet",
      "outputs": [
        {
          "name": "",
          "type": "uint256"
        }
      ],
      "payable": false,
      "stateMutability": "view",
      "type": "function"
    },
    {
      "constant": true,
      "inputs": [
        {
          "name": "_add",
          "type": "address"
        }
      ],
      "name": "getDirectIncome",
      "outputs": [
        {
          "name": "",
          "type": "uint256"
        }
      ],
      "payable": false,
      "stateMutability": "view",
      "type": "function"
    },
    {
      "constant": true,
      "inputs": [
        {
          "name": "_id",
          "type": "uint256"
        }
      ],
      "name": "getUserInfo",
      "outputs": [
        {
          "name": "inviter",
          "type": "address"
        },
        {
          "name": "totalReferals",
          "type": "uint256"
        },
        {
          "name": "totalRecycles",
          "type": "uint256"
        },
        {
          "name": "totalWins",
          "type": "uint256"
        },
        {
          "name": "levelsPurchased",
          "type": "uint256"
        },
        {
          "name": "loss",
          "type": "uint256"
        }
      ],
      "payable": false,
      "stateMutability": "view",
      "type": "function"
    },
    {
      "constant": true,
      "inputs": [
        {
          "name": "_id",
          "type": "uint256"
        }
      ],
      "name": "getUsersIncomes",
      "outputs": [
        {
          "name": "directIncome",
          "type": "uint256"
        },
        {
          "name": "rewardIncome",
          "type": "uint256"
        },
        {
          "name": "levelIncome",
          "type": "uint256"
        },
        {
          "name": "recycleIncome",
          "type": "uint256"
        },
        {
          "name": "upgradeIncome",
          "type": "uint256"
        },
        {
          "name": "levelRewardIncome",
          "type": "uint256"
        }
      ],
      "payable": false,
      "stateMutability": "view",
      "type": "function"
    },
    {
      "constant": true,
      "inputs": [
        {
          "name": "_id",
          "type": "uint256"
        }
      ],
      "name": "getUsersFunds",
      "outputs": [
        {
          "name": "recycleFund",
          "type": "uint256"
        },
        {
          "name": "levelFund",
          "type": "uint256"
        }
      ],
      "payable": false,
      "stateMutability": "view",
      "type": "function"
    },
    {
      "constant": false,
      "inputs": [],
      "name": "withDrawlevelFund",
      "outputs": [],
      "payable": false,
      "stateMutability": "nonpayable",
      "type": "function"
    },
    {
      "constant": false,
      "inputs": [],
      "name": "withdrawDistributionWallet",
      "outputs": [],
      "payable": false,
      "stateMutability": "nonpayable",
      "type": "function"
    },
    {
      "constant": true,
      "inputs": [
        {
          "name": "_user",
          "type": "address"
        }
      ],
      "name": "findFreeReferrer",
      "outputs": [
        {
          "name": "",
          "type": "address"
        }
      ],
      "payable": false,
      "stateMutability": "view",
      "type": "function"
    },
    {
      "constant": true,
      "inputs": [
        {
          "name": "_user",
          "type": "address"
        }
      ],
      "name": "viewUserReferral",
      "outputs": [
        {
          "name": "",
          "type": "address[]"
        }
      ],
      "payable": false,
      "stateMutability": "view",
      "type": "function"
    },
    {
      "constant": false,
      "inputs": [
        {
          "name": "_id",
          "type": "uint256"
        }
      ],
      "name": "setUplines",
      "outputs": [],
      "payable": false,
      "stateMutability": "nonpayable",
      "type": "function"
    },
    {
      "constant": true,
      "inputs": [
        {
          "name": "_id",
          "type": "uint256"
        }
      ],
      "name": "getUplines",
      "outputs": [
        {
          "name": "",
          "type": "address[]"
        }
      ],
      "payable": false,
      "stateMutability": "view",
      "type": "function"
    },
    {
      "constant": false,
      "inputs": [],
      "name": "setLevelWinners",
      "outputs": [
        {
          "name": "",
          "type": "uint256"
        }
      ],
      "payable": false,
      "stateMutability": "nonpayable",
      "type": "function"
    },
    {
      "constant": true,
      "inputs": [],
      "name": "getLevelWinners",
      "outputs": [
        {
          "name": "",
          "type": "address[]"
        }
      ],
      "payable": false,
      "stateMutability": "view",
      "type": "function"
    }
  ],
  "bytecode": "0x60806040523480156200001157600080fd5b506000600181905550336000806101000a81548173ffffffffffffffffffffffffffffffffffffffff021916908373ffffffffffffffffffffffffffffffffffffffff160217905550600766b1a2bc2ec5000090806001815401808255809150509060018203906000526020600020016000909192909190915055506007662386f26fc100009080600181540180825580915050906001820390600052602060002001600090919290919091505550600766470de4df82000090806001815401808255809150509060018203906000526020600020016000909192909190915055506007666a94d74f43000090806001815401808255809150509060018203906000526020600020016000909192909190915055506007668e1bc9bf0400009080600181540180825580915050906001820390600052602060002001600090919290919091505550600766b1a2bc2ec500009080600181540180825580915050906001820390600052602060002001600090919290919091505550600766d529ae9e8600009080600181540180825580915050906001820390600052602060002001600090919290919091505550600766f8b0a10e4700009080600181540180825580915050906001820390600052602060002001600090919290919091505550600767011c37937e0800009080600181540180825580915050906001820390600052602060002001600090919290919091505550600767013fbe85edc900009080600181540180825580915050906001820390600052602060002001600090919290919091505550600767016345785d8a00009080600181540180825580915050906001820390600052602060002001600090919290919091505550620002aa33600062000454640100000000026401000000009004565b600a600860003373ffffffffffffffffffffffffffffffffffffffff1673ffffffffffffffffffffffffffffffffffffffff168152602001908152602001600020600501819055506000604051908082528060200260200182016040528015620003235781602001602082028038833980820191505090505b50600860003373ffffffffffffffffffffffffffffffffffffffff1673ffffffffffffffffffffffffffffffffffffffff16815260200190815260200160002060080190805190602001906200037b929190620006ed565b506000600860003373ffffffffffffffffffffffffffffffffffffffff1673ffffffffffffffffffffffffffffffffffffffff168152602001908152602001600020600601819055506000604051908082528060200260200182016040528015620003f55781602001602082028038833980820191505090505b50600860003373ffffffffffffffffffffffffffffffffffffffff1673ffffffffffffffffffffffffffffffffffffffff16815260200190815260200160002060070190805190602001906200044d929190620006ed565b50620007c2565b600160008154809291906001019190505550600154600860008473ffffffffffffffffffffffffffffffffffffffff1673ffffffffffffffffffffffffffffffffffffffff1681526020019081526020016000206000018190555080600860008473ffffffffffffffffffffffffffffffffffffffff1673ffffffffffffffffffffffffffffffffffffffff16815260200190815260200160002060010160006101000a81548173ffffffffffffffffffffffffffffffffffffffff021916908373ffffffffffffffffffffffffffffffffffffffff16021790555081600b6000600154815260200190815260200160002060006101000a81548173ffffffffffffffffffffffffffffffffffffffff021916908373ffffffffffffffffffffffffffffffffffffffff1602179055506001600860008473ffffffffffffffffffffffffffffffffffffffff1673ffffffffffffffffffffffffffffffffffffffff16815260200190815260200160002060090160006101000a81548160ff0219169083151502179055506000600860008473ffffffffffffffffffffffffffffffffffffffff1673ffffffffffffffffffffffffffffffffffffffff168152602001908152602001600020600b0160006101000a81548160ff0219169083151502179055506000600860003373ffffffffffffffffffffffffffffffffffffffff1673ffffffffffffffffffffffffffffffffffffffff168152602001908152602001600020600501819055508073ffffffffffffffffffffffffffffffffffffffff168273ffffffffffffffffffffffffffffffffffffffff167fcc0bec1447060c88cdc5a739cf29cfa26c453574dd3f5b9e4dcc317d6401cb1c6001546040518082815260200191505060405180910390a35050565b82805482825590600052602060002090810192821562000769579160200282015b82811115620007685782518260006101000a81548173ffffffffffffffffffffffffffffffffffffffff021916908373ffffffffffffffffffffffffffffffffffffffff160217905550916020019190600101906200070e565b5b5090506200077891906200077c565b5090565b620007bf91905b80821115620007bb57600081816101000a81549073ffffffffffffffffffffffffffffffffffffffff02191690555060010162000783565b5090565b90565b61575d80620007d26000396000f3fe6080604052600436106101b1576000357c010000000000000000000000000000000000000000000000000000000090048063024e7499146101b6578063085bea3c146102465780630883b73c146102c1578063132c8c9b1461031757806315d1496f146103a857806334ebff14146103bf5780633710040e146103ea57806339b728ac14610401578063467d01191461042c5780634a4baa8f146104575780634f123df5146104fd57806355f7bd1b146105385780635eccfb6d146105a45780636bc6c79e146105cf5780636c72f1231461062a578063720f64b51461064157806375103d6a1461069257806389b75ff91461070d5780639335dcb7146107385780639be572f61461078f578063a87430ba146107ba578063a8e1c61014610892578063ab5bc49f14610904578063acc87b2e14610969578063b2596a67146109f1578063b8d9e7a014610a40578063b958089b14610aac578063beb2861014610afb578063bff1f9e114610b4c578063d379dadf14610b77578063d67dff0114610c15578063e405ca0114610c40578063f207564e14610c6b578063f6838a7214610c99578063fb75b2c714610cc7575b600080fd5b3480156101c257600080fd5b506101ef600480360360208110156101d957600080fd5b8101908080359060200190929190505050610cf2565b6040518080602001828103825283818151815260200191508051906020019060200280838360005b83811015610232578082015181840152602081019050610217565b505050509050019250505060405180910390f35b34801561025257600080fd5b5061027f6004803603602081101561026957600080fd5b8101908080359060200190929190505050610df5565b604051808273ffffffffffffffffffffffffffffffffffffffff1673ffffffffffffffffffffffffffffffffffffffff16815260200191505060405180910390f35b3480156102cd57600080fd5b506102fa600480360360208110156102e457600080fd5b8101908080359060200190929190505050610e28565b604051808381526020018281526020019250505060405180910390f35b34801561032357600080fd5b506103666004803603602081101561033a57600080fd5b81019080803573ffffffffffffffffffffffffffffffffffffffff169060200190929190505050610f20565b604051808273ffffffffffffffffffffffffffffffffffffffff1673ffffffffffffffffffffffffffffffffffffffff16815260200191505060405180910390f35b3480156103b457600080fd5b506103bd61178b565b005b3480156103cb57600080fd5b506103d4611b05565b6040518082815260200191505060405180910390f35b3480156103f657600080fd5b506103ff611b0f565b005b34801561040d57600080fd5b50610416611cb3565b6040518082815260200191505060405180910390f35b34801561043857600080fd5b50610441611cb9565b6040518082815260200191505060405180910390f35b34801561046357600080fd5b506104a66004803603602081101561047a57600080fd5b81019080803573ffffffffffffffffffffffffffffffffffffffff169060200190929190505050611cbf565b6040518080602001828103825283818151815260200191508051906020019060200280838360005b838110156104e95780820151818401526020810190506104ce565b505050509050019250505060405180910390f35b34801561050957600080fd5b506105366004803603602081101561052057600080fd5b8101908080359060200190929190505050611d8f565b005b34801561054457600080fd5b506105876004803603602081101561055b57600080fd5b81019080803573ffffffffffffffffffffffffffffffffffffffff169060200190929190505050611fee565b604051808381526020018281526020019250505060405180910390f35b3480156105b057600080fd5b506105b9612012565b6040518082815260200191505060405180910390f35b3480156105db57600080fd5b50610628600480360360408110156105f257600080fd5b8101908080359060200190929190803573ffffffffffffffffffffffffffffffffffffffff169060200190929190505050612018565b005b34801561063657600080fd5b5061063f6124e8565b005b34801561064d57600080fd5b506106906004803603602081101561066457600080fd5b81019080803573ffffffffffffffffffffffffffffffffffffffff169060200190929190505050612648565b005b34801561069e57600080fd5b506106cb600480360360208110156106b557600080fd5b8101908080359060200190929190505050612ba6565b604051808273ffffffffffffffffffffffffffffffffffffffff1673ffffffffffffffffffffffffffffffffffffffff16815260200191505060405180910390f35b34801561071957600080fd5b50610722612be4565b6040518082815260200191505060405180910390f35b34801561074457600080fd5b5061074d612d65565b604051808273ffffffffffffffffffffffffffffffffffffffff1673ffffffffffffffffffffffffffffffffffffffff16815260200191505060405180910390f35b34801561079b57600080fd5b506107a4612d8a565b6040518082815260200191505060405180910390f35b3480156107c657600080fd5b50610809600480360360208110156107dd57600080fd5b81019080803573ffffffffffffffffffffffffffffffffffffffff169060200190929190505050612d94565b604051808b81526020018a73ffffffffffffffffffffffffffffffffffffffff1673ffffffffffffffffffffffffffffffffffffffff16815260200189815260200188815260200187815260200186815260200185815260200184151515158152602001838152602001821515151581526020019a505050505050505050505060405180910390f35b34801561089e57600080fd5b506108cb600480360360208110156108b557600080fd5b8101908080359060200190929190505050612e22565b60405180878152602001868152602001858152602001848152602001838152602001828152602001965050505050505060405180910390f35b34801561091057600080fd5b506109536004803603602081101561092757600080fd5b81019080803573ffffffffffffffffffffffffffffffffffffffff169060200190929190505050613104565b6040518082815260200191505060405180910390f35b34801561097557600080fd5b506109b86004803603602081101561098c57600080fd5b81019080803573ffffffffffffffffffffffffffffffffffffffff169060200190929190505050613150565b60405180878152602001868152602001858152602001848152602001838152602001828152602001965050505050505060405180910390f35b3480156109fd57600080fd5b50610a2a60048036036020811015610a1457600080fd5b810190808035906020019092919050505061318c565b6040518082815260200191505060405180910390f35b348015610a4c57600080fd5b50610a556131af565b6040518080602001828103825283818151815260200191508051906020019060200280838360005b83811015610a98578082015181840152602081019050610a7d565b505050509050019250505060405180910390f35b348015610ab857600080fd5b50610af960048036036060811015610acf57600080fd5b8101908080359060200190929190803590602001909291908035906020019092919050505061323d565b005b348015610b0757600080fd5b50610b4a60048036036020811015610b1e57600080fd5b81019080803573ffffffffffffffffffffffffffffffffffffffff169060200190929190505050613e64565b005b348015610b5857600080fd5b50610b6161423f565b6040518082815260200191505060405180910390f35b348015610b8357600080fd5b50610bb060048036036020811015610b9a57600080fd5b8101908080359060200190929190505050614245565b604051808773ffffffffffffffffffffffffffffffffffffffff1673ffffffffffffffffffffffffffffffffffffffff168152602001868152602001858152602001848152602001838152602001828152602001965050505050505060405180910390f35b348015610c2157600080fd5b50610c2a6144fa565b6040518082815260200191505060405180910390f35b348015610c4c57600080fd5b50610c55614504565b6040518082815260200191505060405180910390f35b610c9760048036036020811015610c8157600080fd5b810190808035906020019092919050505061450e565b005b610cc560048036036020811015610caf57600080fd5b810190808035906020019092919050505061477d565b005b348015610cd357600080fd5b50610cdc614e92565b6040518082815260200191505060405180910390f35b606060086000600b600085815260200190815260200160002060009054906101000a900473ffffffffffffffffffffffffffffffffffffffff1673ffffffffffffffffffffffffffffffffffffffff1673ffffffffffffffffffffffffffffffffffffffff168152602001908152602001600020600701805480602002602001604051908101604052809291908181526020018280548015610de957602002820191906000526020600020905b8160009054906101000a900473ffffffffffffffffffffffffffffffffffffffff1673ffffffffffffffffffffffffffffffffffffffff1681526020019060010190808311610d9f575b50505050509050919050565b600b6020528060005260406000206000915054906101000a900473ffffffffffffffffffffffffffffffffffffffff1681565b600080600a6000600b600086815260200190815260200160002060009054906101000a900473ffffffffffffffffffffffffffffffffffffffff1673ffffffffffffffffffffffffffffffffffffffff1673ffffffffffffffffffffffffffffffffffffffff16815260200190815260200160002060000154600a6000600b600087815260200190815260200160002060009054906101000a900473ffffffffffffffffffffffffffffffffffffffff1673ffffffffffffffffffffffffffffffffffffffff1673ffffffffffffffffffffffffffffffffffffffff1681526020019081526020016000206001015491509150915091565b60006004600860008473ffffffffffffffffffffffffffffffffffffffff1673ffffffffffffffffffffffffffffffffffffffff168152602001908152602001600020600801805490501015610f7857819050611786565b6060617530604051908082528060200260200182016040528015610fab5781602001602082028038833980820191505090505b509050600860008473ffffffffffffffffffffffffffffffffffffffff1673ffffffffffffffffffffffffffffffffffffffff1681526020019081526020016000206008016000815481101515610ffe57fe5b9060005260206000200160009054906101000a900473ffffffffffffffffffffffffffffffffffffffff1681600081518110151561103857fe5b9060200190602002019073ffffffffffffffffffffffffffffffffffffffff16908173ffffffffffffffffffffffffffffffffffffffff1681525050600860008473ffffffffffffffffffffffffffffffffffffffff1673ffffffffffffffffffffffffffffffffffffffff16815260200190815260200160002060080160018154811015156110c457fe5b9060005260206000200160009054906101000a900473ffffffffffffffffffffffffffffffffffffffff168160018151811015156110fe57fe5b9060200190602002019073ffffffffffffffffffffffffffffffffffffffff16908173ffffffffffffffffffffffffffffffffffffffff1681525050600860008473ffffffffffffffffffffffffffffffffffffffff1673ffffffffffffffffffffffffffffffffffffffff168152602001908152602001600020600801600281548110151561118a57fe5b9060005260206000200160009054906101000a900473ffffffffffffffffffffffffffffffffffffffff168160028151811015156111c457fe5b9060200190602002019073ffffffffffffffffffffffffffffffffffffffff16908173ffffffffffffffffffffffffffffffffffffffff1681525050600860008473ffffffffffffffffffffffffffffffffffffffff1673ffffffffffffffffffffffffffffffffffffffff168152602001908152602001600020600801600381548110151561125057fe5b9060005260206000200160009054906101000a900473ffffffffffffffffffffffffffffffffffffffff1681600381518110151561128a57fe5b9060200190602002019073ffffffffffffffffffffffffffffffffffffffff16908173ffffffffffffffffffffffffffffffffffffffff16815250506000806001905060008090505b6175308110156117085760046008600086848151811015156112f157fe5b9060200190602002015173ffffffffffffffffffffffffffffffffffffffff1673ffffffffffffffffffffffffffffffffffffffff1681526020019081526020016000206008018054905014156116d85760086000858381518110151561135457fe5b9060200190602002015173ffffffffffffffffffffffffffffffffffffffff1673ffffffffffffffffffffffffffffffffffffffff16815260200190815260200160002060080160008154811015156113a957fe5b9060005260206000200160009054906101000a900473ffffffffffffffffffffffffffffffffffffffff1684600460018401028151811015156113e857fe5b9060200190602002019073ffffffffffffffffffffffffffffffffffffffff16908173ffffffffffffffffffffffffffffffffffffffff168152505060086000858381518110151561143657fe5b9060200190602002015173ffffffffffffffffffffffffffffffffffffffff1673ffffffffffffffffffffffffffffffffffffffff168152602001908152602001600020600801600181548110151561148b57fe5b9060005260206000200160009054906101000a900473ffffffffffffffffffffffffffffffffffffffff1684600160046001850102018151811015156114cd57fe5b9060200190602002019073ffffffffffffffffffffffffffffffffffffffff16908173ffffffffffffffffffffffffffffffffffffffff168152505060086000858381518110151561151b57fe5b9060200190602002015173ffffffffffffffffffffffffffffffffffffffff1673ffffffffffffffffffffffffffffffffffffffff168152602001908152602001600020600801600281548110151561157057fe5b9060005260206000200160009054906101000a900473ffffffffffffffffffffffffffffffffffffffff1684600260046001850102018151811015156115b257fe5b9060200190602002019073ffffffffffffffffffffffffffffffffffffffff16908173ffffffffffffffffffffffffffffffffffffffff168152505060086000858381518110151561160057fe5b9060200190602002015173ffffffffffffffffffffffffffffffffffffffff1673ffffffffffffffffffffffffffffffffffffffff168152602001908152602001600020600801600381548110151561165557fe5b9060005260206000200160009054906101000a900473ffffffffffffffffffffffffffffffffffffffff16846003600460018501020181518110151561169757fe5b9060200190602002019073ffffffffffffffffffffffffffffffffffffffff16908173ffffffffffffffffffffffffffffffffffffffff16815250506116fb565b6000915083818151811015156116ea57fe5b906020019060200201519250611708565b80806001019150506112d3565b508015151561177f576040517f08c379a00000000000000000000000000000000000000000000000000000000081526004018080602001828103825260108152602001807f4e6f20467265652052656665727265720000000000000000000000000000000081525060200191505060405180910390fd5b8193505050505b919050565b6000611795612be4565b90506000816003548115156117a657fe5b04905060006064826014028115156117ba57fe5b04820390506000606483600a028115156117d057fe5b0490506000606484600a028115156117e457fe5b04905060008090505b600680549050811015611ae657600073ffffffffffffffffffffffffffffffffffffffff1660068281548110151561182157fe5b9060005260206000200160009054906101000a900473ffffffffffffffffffffffffffffffffffffffff1673ffffffffffffffffffffffffffffffffffffffff16141561187957836004600082825401925050819055505b60068181548110151561188857fe5b9060005260206000200160009054906101000a900473ffffffffffffffffffffffffffffffffffffffff1673ffffffffffffffffffffffffffffffffffffffff1673ffffffffffffffffffffffffffffffffffffffff166108fc859081150290604051600060405180830381858888f1935050505015801561190e573d6000803e3d6000fd5b50836009600060068481548110151561192357fe5b9060005260206000200160009054906101000a900473ffffffffffffffffffffffffffffffffffffffff1673ffffffffffffffffffffffffffffffffffffffff1673ffffffffffffffffffffffffffffffffffffffff168152602001908152602001600020600501600082825401925050819055506000600860006006848154811015156119ad57fe5b9060005260206000200160009054906101000a900473ffffffffffffffffffffffffffffffffffffffff1673ffffffffffffffffffffffffffffffffffffffff1673ffffffffffffffffffffffffffffffffffffffff16815260200190815260200160002060010160009054906101000a900473ffffffffffffffffffffffffffffffffffffffff16905083600a60008373ffffffffffffffffffffffffffffffffffffffff1673ffffffffffffffffffffffffffffffffffffffff1681526020019081526020016000206000016000828254019250508190555082600a60008373ffffffffffffffffffffffffffffffffffffffff1673ffffffffffffffffffffffffffffffffffffffff168152602001908152602001600020600101600082825401925050819055505080806001019150506117ed565b5060068054905083026005600082825401925050819055505050505050565b6000600354905090565b600a600860003373ffffffffffffffffffffffffffffffffffffffff1673ffffffffffffffffffffffffffffffffffffffff1681526020019081526020016000206005015410151515611bca576040517f08c379a000000000000000000000000000000000000000000000000000000000815260040180806020018281038252601a8152602001807f796f752063616e6e6f7420776974686472617720616d6f756e7400000000000081525060200191505060405180910390fd5b3373ffffffffffffffffffffffffffffffffffffffff1673ffffffffffffffffffffffffffffffffffffffff166108fc600a60003373ffffffffffffffffffffffffffffffffffffffff1673ffffffffffffffffffffffffffffffffffffffff168152602001908152602001600020600101549081150290604051600060405180830381858888f19350505050158015611c68573d6000803e3d6000fd5b506000600a60003373ffffffffffffffffffffffffffffffffffffffff1673ffffffffffffffffffffffffffffffffffffffff16815260200190815260200160002060010181905550565b60055481565b60045481565b6060600860008373ffffffffffffffffffffffffffffffffffffffff1673ffffffffffffffffffffffffffffffffffffffff168152602001908152602001600020600801805480602002602001604051908101604052809291908181526020018280548015611d8357602002820191906000526020600020905b8160009054906101000a900473ffffffffffffffffffffffffffffffffffffffff1673ffffffffffffffffffffffffffffffffffffffff1681526020019060010190808311611d39575b50505050509050919050565b6060600a604051908082528060200260200182016040528015611dc15781602001602082028038833980820191505090505b509050600060086000600b600086815260200190815260200160002060009054906101000a900473ffffffffffffffffffffffffffffffffffffffff1673ffffffffffffffffffffffffffffffffffffffff1673ffffffffffffffffffffffffffffffffffffffff16815260200190815260200160002060060154905060008090505b600a811015611f5e576000821415611e5b57611f5e565b600b600083815260200190815260200160002060009054906101000a900473ffffffffffffffffffffffffffffffffffffffff168382815181101515611e9d57fe5b9060200190602002019073ffffffffffffffffffffffffffffffffffffffff16908173ffffffffffffffffffffffffffffffffffffffff168152505060086000600b600085815260200190815260200160002060009054906101000a900473ffffffffffffffffffffffffffffffffffffffff1673ffffffffffffffffffffffffffffffffffffffff1673ffffffffffffffffffffffffffffffffffffffff1681526020019081526020016000206006015491508080600101915050611e44565b508160086000600b600087815260200190815260200160002060009054906101000a900473ffffffffffffffffffffffffffffffffffffffff1673ffffffffffffffffffffffffffffffffffffffff1673ffffffffffffffffffffffffffffffffffffffff1681526020019081526020016000206007019080519060200190611fe89291906155e8565b50505050565b600a6020528060005260406000206000915090508060000154908060010154905082565b60035481565b60006064600860078581548110151561202d57fe5b90600052602060002001540281151561204257fe5b049050600060648260140281151561205657fe5b049050600081830390506120ab600860008673ffffffffffffffffffffffffffffffffffffffff1673ffffffffffffffffffffffffffffffffffffffff16815260200190815260200160002060000154611d8f565b6060600a6040519080825280602002602001820160405280156120dd5781602001602082028038833980820191505090505b509050600860008673ffffffffffffffffffffffffffffffffffffffff1673ffffffffffffffffffffffffffffffffffffffff1681526020019081526020016000206007018054806020026020016040519081016040528092919081815260200182805480156121a257602002820191906000526020600020905b8160009054906101000a900473ffffffffffffffffffffffffffffffffffffffff1673ffffffffffffffffffffffffffffffffffffffff1681526020019060010190808311612158575b5050505050905060008090505b600a8110156124df57600073ffffffffffffffffffffffffffffffffffffffff1682828151811015156121de57fe5b9060200190602002015173ffffffffffffffffffffffffffffffffffffffff16141561221957826004600082825401925050819055506124df565b6001810160086000848481518110151561222f57fe5b9060200190602002015173ffffffffffffffffffffffffffffffffffffffff1673ffffffffffffffffffffffffffffffffffffffff1681526020019081526020016000206005015410151561245a578260096000848481518110151561229157fe5b9060200190602002015173ffffffffffffffffffffffffffffffffffffffff1673ffffffffffffffffffffffffffffffffffffffff16815260200190815260200160002060040160008282540192505081905550606485600a028115156122f457fe5b04600a6000848481518110151561230757fe5b9060200190602002015173ffffffffffffffffffffffffffffffffffffffff1673ffffffffffffffffffffffffffffffffffffffff16815260200190815260200160002060000160008282540192505081905550606485600a0281151561236a57fe5b04600a6000848481518110151561237d57fe5b9060200190602002015173ffffffffffffffffffffffffffffffffffffffff1673ffffffffffffffffffffffffffffffffffffffff1681526020019081526020016000206001016000828254019250508190555081818151811015156123df57fe5b9060200190602002015173ffffffffffffffffffffffffffffffffffffffff1673ffffffffffffffffffffffffffffffffffffffff166108fc849081150290604051600060405180830381858888f19350505050158015612444573d6000803e3d6000fd5b50826005600082825401925050819055506124d2565b8260086000848481518110151561246d57fe5b9060200190602002015173ffffffffffffffffffffffffffffffffffffffff1673ffffffffffffffffffffffffffffffffffffffff168152602001908152602001600020600a0160008282540192505081905550826004600082825401925050819055505b80806001019150506121af565b50505050505050565b6000809054906101000a900473ffffffffffffffffffffffffffffffffffffffff1673ffffffffffffffffffffffffffffffffffffffff163373ffffffffffffffffffffffffffffffffffffffff161415156125ac576040517f08c379a00000000000000000000000000000000000000000000000000000000081526004018080602001828103825260118152602001807f796f7520617265206e6f74206f776e657200000000000000000000000000000081525060200191505060405180910390fd5b6000809054906101000a900473ffffffffffffffffffffffffffffffffffffffff1673ffffffffffffffffffffffffffffffffffffffff1673ffffffffffffffffffffffffffffffffffffffff166108fc6004549081150290604051600060405180830381858888f1935050505015801561262b573d6000803e3d6000fd5b506004546005600082825401925050819055506000600481905550565b60006001600860008473ffffffffffffffffffffffffffffffffffffffff1673ffffffffffffffffffffffffffffffffffffffff168152602001908152602001600020600501540190506000811180156126a35750600a8111155b1515612717576040517f08c379a000000000000000000000000000000000000000000000000000000000815260040180806020018281038252600f8152602001807f496e636f7272656374206c6576656c000000000000000000000000000000000081525060200191505060405180910390fd5b60078181548110151561272657fe5b9060005260206000200154600a60008473ffffffffffffffffffffffffffffffffffffffff1673ffffffffffffffffffffffffffffffffffffffff16815260200190815260200160002060010154101515156127ea576040517f08c379a000000000000000000000000000000000000000000000000000000000815260040180806020018281038252600f8152602001807f496e636f72726563742056616c7565000000000000000000000000000000000081525060200191505060405180910390fd5b6000606460146007848154811015156127ff57fe5b90600052602060002001540281151561281457fe5b0490506000600860008573ffffffffffffffffffffffffffffffffffffffff1673ffffffffffffffffffffffffffffffffffffffff16815260200190815260200160002060010160009054906101000a900473ffffffffffffffffffffffffffffffffffffffff16905060648260140281151561288d57fe5b048203600960008373ffffffffffffffffffffffffffffffffffffffff1673ffffffffffffffffffffffffffffffffffffffff16815260200190815260200160002060020160008282540192505081905550606482600a028115156128ee57fe5b04600a60008373ffffffffffffffffffffffffffffffffffffffff1673ffffffffffffffffffffffffffffffffffffffff16815260200190815260200160002060000160008282540192505081905550606482600a0281151561294d57fe5b04600a60008373ffffffffffffffffffffffffffffffffffffffff1673ffffffffffffffffffffffffffffffffffffffff16815260200190815260200160002060010160008282540192505081905550600860008573ffffffffffffffffffffffffffffffffffffffff1673ffffffffffffffffffffffffffffffffffffffff16815260200190815260200160002060010160009054906101000a900473ffffffffffffffffffffffffffffffffffffffff1673ffffffffffffffffffffffffffffffffffffffff1673ffffffffffffffffffffffffffffffffffffffff166108fc606484601402811515612a3e57fe5b0484039081150290604051600060405180830381858888f19350505050158015612a6c573d6000803e3d6000fd5b50606482601402811515612a7c57fe5b048203600560008282540192505081905550600783815481101515612a9d57fe5b9060005260206000200154600a60008673ffffffffffffffffffffffffffffffffffffffff1673ffffffffffffffffffffffffffffffffffffffff168152602001908152602001600020600101600082825403925050819055506001600860008673ffffffffffffffffffffffffffffffffffffffff1673ffffffffffffffffffffffffffffffffffffffff16815260200190815260200160002060050160008282540192505081905550612b528385612018565b8373ffffffffffffffffffffffffffffffffffffffff167f94ea718a6517c74ee4da32e6297595705048e7f1ca05b3133069c756cff40421846040518082815260200191505060405180910390a250505050565b600681815481101515612bb557fe5b906000526020600020016000915054906101000a900473ffffffffffffffffffffffffffffffffffffffff1681565b600060606064604051908082528060200260200182016040528015612c185781602001602082028038833980820191505090505b50905060008060009050600191505b60015482111515612d4557600460086000600b600086815260200190815260200160002060009054906101000a900473ffffffffffffffffffffffffffffffffffffffff1673ffffffffffffffffffffffffffffffffffffffff1673ffffffffffffffffffffffffffffffffffffffff168152602001908152602001600020600801805490501415612d3857600b600083815260200190815260200160002060009054906101000a900473ffffffffffffffffffffffffffffffffffffffff168382806001019350815181101515612cfb57fe5b9060200190602002019073ffffffffffffffffffffffffffffffffffffffff16908173ffffffffffffffffffffffffffffffffffffffff16815250505b8180600101925050612c27565b8260069080519060200190612d5b9291906155e8565b5080935050505090565b6000809054906101000a900473ffffffffffffffffffffffffffffffffffffffff1681565b6000600154905090565b60086020528060005260406000206000915090508060000154908060010160009054906101000a900473ffffffffffffffffffffffffffffffffffffffff16908060020154908060030154908060040154908060050154908060060154908060090160009054906101000a900460ff169080600a01549080600b0160009054906101000a900460ff1690508a565b60008060008060008060096000600b60008a815260200190815260200160002060009054906101000a900473ffffffffffffffffffffffffffffffffffffffff1673ffffffffffffffffffffffffffffffffffffffff1673ffffffffffffffffffffffffffffffffffffffff1681526020019081526020016000206000015460096000600b60008b815260200190815260200160002060009054906101000a900473ffffffffffffffffffffffffffffffffffffffff1673ffffffffffffffffffffffffffffffffffffffff1673ffffffffffffffffffffffffffffffffffffffff1681526020019081526020016000206001015460096000600b60008c815260200190815260200160002060009054906101000a900473ffffffffffffffffffffffffffffffffffffffff1673ffffffffffffffffffffffffffffffffffffffff1673ffffffffffffffffffffffffffffffffffffffff1681526020019081526020016000206002015460096000600b60008d815260200190815260200160002060009054906101000a900473ffffffffffffffffffffffffffffffffffffffff1673ffffffffffffffffffffffffffffffffffffffff1673ffffffffffffffffffffffffffffffffffffffff1681526020019081526020016000206003015460096000600b60008e815260200190815260200160002060009054906101000a900473ffffffffffffffffffffffffffffffffffffffff1673ffffffffffffffffffffffffffffffffffffffff1673ffffffffffffffffffffffffffffffffffffffff1681526020019081526020016000206004015460096000600b60008f815260200190815260200160002060009054906101000a900473ffffffffffffffffffffffffffffffffffffffff1673ffffffffffffffffffffffffffffffffffffffff1673ffffffffffffffffffffffffffffffffffffffff1681526020019081526020016000206005015495509550955095509550955091939550919395565b6000600960008373ffffffffffffffffffffffffffffffffffffffff1673ffffffffffffffffffffffffffffffffffffffff168152602001908152602001600020600001549050919050565b60096020528060005260406000206000915090508060000154908060010154908060020154908060030154908060040154908060050154905086565b60078181548110151561319b57fe5b906000526020600020016000915090505481565b6060600680548060200260200160405190810160405280929190818152602001828054801561323357602002820191906000526020600020905b8160009054906101000a900473ffffffffffffffffffffffffffffffffffffffff1673ffffffffffffffffffffffffffffffffffffffff16815260200190600101908083116131e9575b5050505050905090565b6000606460025460320281151561325057fe5b04905060006064600254601e0281151561326657fe5b0490506000606460025460140281151561327c57fe5b04905060648360140281151561328e57fe5b04830360096000600b60008a815260200190815260200160002060009054906101000a900473ffffffffffffffffffffffffffffffffffffffff1673ffffffffffffffffffffffffffffffffffffffff1673ffffffffffffffffffffffffffffffffffffffff1681526020019081526020016000206001016000828254019250508190555060648260140281151561332257fe5b04820360096000600b600089815260200190815260200160002060009054906101000a900473ffffffffffffffffffffffffffffffffffffffff1673ffffffffffffffffffffffffffffffffffffffff1673ffffffffffffffffffffffffffffffffffffffff168152602001908152602001600020600101600082825401925050819055506064816014028115156133b657fe5b04810360096000600b600088815260200190815260200160002060009054906101000a900473ffffffffffffffffffffffffffffffffffffffff1673ffffffffffffffffffffffffffffffffffffffff1673ffffffffffffffffffffffffffffffffffffffff16815260200190815260200160002060010160008282540192505081905550600b600087815260200190815260200160002060009054906101000a900473ffffffffffffffffffffffffffffffffffffffff1673ffffffffffffffffffffffffffffffffffffffff1673ffffffffffffffffffffffffffffffffffffffff166108fc60096000600b60008b815260200190815260200160002060009054906101000a900473ffffffffffffffffffffffffffffffffffffffff1673ffffffffffffffffffffffffffffffffffffffff1673ffffffffffffffffffffffffffffffffffffffff168152602001908152602001600020600101549081150290604051600060405180830381858888f1935050505015801561353f573d6000803e3d6000fd5b50600b600086815260200190815260200160002060009054906101000a900473ffffffffffffffffffffffffffffffffffffffff1673ffffffffffffffffffffffffffffffffffffffff1673ffffffffffffffffffffffffffffffffffffffff166108fc60096000600b60008a815260200190815260200160002060009054906101000a900473ffffffffffffffffffffffffffffffffffffffff1673ffffffffffffffffffffffffffffffffffffffff1673ffffffffffffffffffffffffffffffffffffffff168152602001908152602001600020600101549081150290604051600060405180830381858888f19350505050158015613644573d6000803e3d6000fd5b50600b600085815260200190815260200160002060009054906101000a900473ffffffffffffffffffffffffffffffffffffffff1673ffffffffffffffffffffffffffffffffffffffff1673ffffffffffffffffffffffffffffffffffffffff166108fc60096000600b600089815260200190815260200160002060009054906101000a900473ffffffffffffffffffffffffffffffffffffffff1673ffffffffffffffffffffffffffffffffffffffff1673ffffffffffffffffffffffffffffffffffffffff168152602001908152602001600020600101549081150290604051600060405180830381858888f19350505050158015613749573d6000803e3d6000fd5b50600160086000600b60008a815260200190815260200160002060009054906101000a900473ffffffffffffffffffffffffffffffffffffffff1673ffffffffffffffffffffffffffffffffffffffff1673ffffffffffffffffffffffffffffffffffffffff16815260200190815260200160002060030160008282540192505081905550600160086000600b600089815260200190815260200160002060009054906101000a900473ffffffffffffffffffffffffffffffffffffffff1673ffffffffffffffffffffffffffffffffffffffff1673ffffffffffffffffffffffffffffffffffffffff16815260200190815260200160002060030160008282540192505081905550600160086000600b600088815260200190815260200160002060009054906101000a900473ffffffffffffffffffffffffffffffffffffffff1673ffffffffffffffffffffffffffffffffffffffff1673ffffffffffffffffffffffffffffffffffffffff1681526020019081526020016000206003016000828254019250508190555060096000600b600087815260200190815260200160002060009054906101000a900473ffffffffffffffffffffffffffffffffffffffff1673ffffffffffffffffffffffffffffffffffffffff1673ffffffffffffffffffffffffffffffffffffffff1681526020019081526020016000206001015460096000600b600089815260200190815260200160002060009054906101000a900473ffffffffffffffffffffffffffffffffffffffff1673ffffffffffffffffffffffffffffffffffffffff1673ffffffffffffffffffffffffffffffffffffffff1681526020019081526020016000206001015460096000600b60008b815260200190815260200160002060009054906101000a900473ffffffffffffffffffffffffffffffffffffffff1673ffffffffffffffffffffffffffffffffffffffff1673ffffffffffffffffffffffffffffffffffffffff1681526020019081526020016000206001015401016005600082825401925050819055506000600281905550600060086000600b60008a815260200190815260200160002060009054906101000a900473ffffffffffffffffffffffffffffffffffffffff1673ffffffffffffffffffffffffffffffffffffffff1673ffffffffffffffffffffffffffffffffffffffff16815260200190815260200160002060010160009054906101000a900473ffffffffffffffffffffffffffffffffffffffff169050600060086000600b60008a815260200190815260200160002060009054906101000a900473ffffffffffffffffffffffffffffffffffffffff1673ffffffffffffffffffffffffffffffffffffffff1673ffffffffffffffffffffffffffffffffffffffff16815260200190815260200160002060010160009054906101000a900473ffffffffffffffffffffffffffffffffffffffff169050600060086000600b60008a815260200190815260200160002060009054906101000a900473ffffffffffffffffffffffffffffffffffffffff1673ffffffffffffffffffffffffffffffffffffffff1673ffffffffffffffffffffffffffffffffffffffff16815260200190815260200160002060010160009054906101000a900473ffffffffffffffffffffffffffffffffffffffff169050606486600a02811515613c2e57fe5b04600a60008573ffffffffffffffffffffffffffffffffffffffff1673ffffffffffffffffffffffffffffffffffffffff16815260200190815260200160002060000160008282540192505081905550606485600a02811515613c8d57fe5b04600a60008473ffffffffffffffffffffffffffffffffffffffff1673ffffffffffffffffffffffffffffffffffffffff16815260200190815260200160002060000160008282540192505081905550606484600a02811515613cec57fe5b04600a60008373ffffffffffffffffffffffffffffffffffffffff1673ffffffffffffffffffffffffffffffffffffffff16815260200190815260200160002060000160008282540192505081905550606486600a02811515613d4b57fe5b04600a60008573ffffffffffffffffffffffffffffffffffffffff1673ffffffffffffffffffffffffffffffffffffffff16815260200190815260200160002060010160008282540192505081905550606485600a02811515613daa57fe5b04600a60008473ffffffffffffffffffffffffffffffffffffffff1673ffffffffffffffffffffffffffffffffffffffff16815260200190815260200160002060010160008282540192505081905550606484600a02811515613e0957fe5b04600a60008373ffffffffffffffffffffffffffffffffffffffff1673ffffffffffffffffffffffffffffffffffffffff16815260200190815260200160002060010160008282540192505081905550505050505050505050565b60076000815481101515613e7457fe5b9060005260206000200154600a60008373ffffffffffffffffffffffffffffffffffffffff1673ffffffffffffffffffffffffffffffffffffffff1681526020019081526020016000206000015410151561423c5760076000815481101515613ed957fe5b9060005260206000200154600a60008373ffffffffffffffffffffffffffffffffffffffff1673ffffffffffffffffffffffffffffffffffffffff168152602001908152602001600020600001600082825403925050819055506001600860008373ffffffffffffffffffffffffffffffffffffffff1673ffffffffffffffffffffffffffffffffffffffff1681526020019081526020016000206004016000828254019250508190555060006064605060076000815481101515613f9a57fe5b906000526020600020015402811515613faf57fe5b0490506000600860008473ffffffffffffffffffffffffffffffffffffffff1673ffffffffffffffffffffffffffffffffffffffff16815260200190815260200160002060010160009054906101000a900473ffffffffffffffffffffffffffffffffffffffff16905060646014830281151561402857fe5b048203600960008373ffffffffffffffffffffffffffffffffffffffff1673ffffffffffffffffffffffffffffffffffffffff168152602001908152602001600020600301600082825401925050819055506064600a830281151561408957fe5b04600a60008373ffffffffffffffffffffffffffffffffffffffff1673ffffffffffffffffffffffffffffffffffffffff168152602001908152602001600020600001600082825401925050819055506064600a83028115156140e857fe5b04600a60008373ffffffffffffffffffffffffffffffffffffffff1673ffffffffffffffffffffffffffffffffffffffff168152602001908152602001600020600101600082825401925050819055508073ffffffffffffffffffffffffffffffffffffffff1673ffffffffffffffffffffffffffffffffffffffff166108fc60646014850281151561417757fe5b0484039081150290604051600060405180830381858888f193505050501580156141a5573d6000803e3d6000fd5b506064601483028115156141b557fe5b0482036005600082825401925050819055506064600a600760008154811015156141db57fe5b9060005260206000200154028115156141f057fe5b046002600082825401925050819055506064600a6007600081548110151561421457fe5b90600052602060002001540281151561422957fe5b0460036000828254019250508190555050505b50565b60015481565b600080600080600080614256615672565b60086000600b60008b815260200190815260200160002060009054906101000a900473ffffffffffffffffffffffffffffffffffffffff1673ffffffffffffffffffffffffffffffffffffffff1673ffffffffffffffffffffffffffffffffffffffff1681526020019081526020016000206101806040519081016040529081600082015481526020016001820160009054906101000a900473ffffffffffffffffffffffffffffffffffffffff1673ffffffffffffffffffffffffffffffffffffffff1673ffffffffffffffffffffffffffffffffffffffff1681526020016002820154815260200160038201548152602001600482015481526020016005820154815260200160068201548152602001600782018054806020026020016040519081016040528092919081815260200182805480156143ec57602002820191906000526020600020905b8160009054906101000a900473ffffffffffffffffffffffffffffffffffffffff1673ffffffffffffffffffffffffffffffffffffffff16815260200190600101908083116143a2575b505050505081526020016008820180548060200260200160405190810160405280929190818152602001828054801561447a57602002820191906000526020600020905b8160009054906101000a900473ffffffffffffffffffffffffffffffffffffffff1673ffffffffffffffffffffffffffffffffffffffff1681526020019060010190808311614430575b505050505081526020016009820160009054906101000a900460ff16151515158152602001600a8201548152602001600b820160009054906101000a900460ff161515151581525050905080602001518160400151826080015183606001518460a001518561014001519650965096509650965096505091939550919395565b6000600254905090565b6000600554905090565b61454c33600b600084815260200190815260200160002060009054906101000a900473ffffffffffffffffffffffffffffffffffffffff1634614e98565b600080829050600460086000600b600087815260200190815260200160002060009054906101000a900473ffffffffffffffffffffffffffffffffffffffff1673ffffffffffffffffffffffffffffffffffffffff1673ffffffffffffffffffffffffffffffffffffffff1681526020019081526020016000206008018054905010151561465857614610600b600085815260200190815260200160002060009054906101000a900473ffffffffffffffffffffffffffffffffffffffff16610f20565b9150600860008373ffffffffffffffffffffffffffffffffffffffff1673ffffffffffffffffffffffffffffffffffffffff1681526020019081526020016000206000015490505b60086000600b600084815260200190815260200160002060009054906101000a900473ffffffffffffffffffffffffffffffffffffffff1673ffffffffffffffffffffffffffffffffffffffff1673ffffffffffffffffffffffffffffffffffffffff1681526020019081526020016000206008013390806001815401808255809150509060018203906000526020600020016000909192909190916101000a81548173ffffffffffffffffffffffffffffffffffffffff021916908373ffffffffffffffffffffffffffffffffffffffff1602179055505080600860003373ffffffffffffffffffffffffffffffffffffffff1673ffffffffffffffffffffffffffffffffffffffff16815260200190815260200160002060060181905550505050565b600860003373ffffffffffffffffffffffffffffffffffffffff1673ffffffffffffffffffffffffffffffffffffffff1681526020019081526020016000206005015481111515614836576040517f08c379a00000000000000000000000000000000000000000000000000000000081526004018080602001828103825260178152602001807f416c726561647920707572636861736564206c6576656c00000000000000000081525060200191505060405180910390fd5b600860003373ffffffffffffffffffffffffffffffffffffffff1673ffffffffffffffffffffffffffffffffffffffff16815260200190815260200160002060090160009054906101000a900460ff1615156148fa576040517f08c379a000000000000000000000000000000000000000000000000000000000815260040180806020018281038252600e8152602001807f55736572206e6f7420657869737400000000000000000000000000000000000081525060200191505060405180910390fd5b60008111801561490b5750600a8111155b151561497f576040517f08c379a000000000000000000000000000000000000000000000000000000000815260040180806020018281038252600f8152602001807f496e636f7272656374206c6576656c000000000000000000000000000000000081525060200191505060405180910390fd5b60078181548110151561498e57fe5b906000526020600020015434141515614a0f576040517f08c379a000000000000000000000000000000000000000000000000000000000815260040180806020018281038252600f8152602001807f496e636f72726563742056616c7565000000000000000000000000000000000081525060200191505060405180910390fd5b60018103600860003373ffffffffffffffffffffffffffffffffffffffff1673ffffffffffffffffffffffffffffffffffffffff16815260200190815260200160002060050154141515614af1576040517f08c379a00000000000000000000000000000000000000000000000000000000081526004018080602001828103825260288152602001807f596f7520686176656e2774207075726368617365642070726576696f7573206c81526020017f6576656c2079657400000000000000000000000000000000000000000000000081525060400191505060405180910390fd5b600060646014600784815481101515614b0657fe5b906000526020600020015402811515614b1b57fe5b0490506000600860003373ffffffffffffffffffffffffffffffffffffffff1673ffffffffffffffffffffffffffffffffffffffff16815260200190815260200160002060010160009054906101000a900473ffffffffffffffffffffffffffffffffffffffff169050606482601402811515614b9457fe5b048203600960008373ffffffffffffffffffffffffffffffffffffffff1673ffffffffffffffffffffffffffffffffffffffff16815260200190815260200160002060020160008282540192505081905550606482600a02811515614bf557fe5b04600a60008373ffffffffffffffffffffffffffffffffffffffff1673ffffffffffffffffffffffffffffffffffffffff16815260200190815260200160002060000160008282540192505081905550606482600a02811515614c5457fe5b04600a60008373ffffffffffffffffffffffffffffffffffffffff1673ffffffffffffffffffffffffffffffffffffffff16815260200190815260200160002060010160008282540192505081905550600860003373ffffffffffffffffffffffffffffffffffffffff1673ffffffffffffffffffffffffffffffffffffffff16815260200190815260200160002060010160009054906101000a900473ffffffffffffffffffffffffffffffffffffffff1673ffffffffffffffffffffffffffffffffffffffff1673ffffffffffffffffffffffffffffffffffffffff166108fc606484601402811515614d4557fe5b0484039081150290604051600060405180830381858888f19350505050158015614d73573d6000803e3d6000fd5b50606482601402811515614d8357fe5b048203600560008282540192505081905550600a6001600860003373ffffffffffffffffffffffffffffffffffffffff1673ffffffffffffffffffffffffffffffffffffffff16815260200190815260200160002060050154011015614e35576001600860003373ffffffffffffffffffffffffffffffffffffffff1673ffffffffffffffffffffffffffffffffffffffff168152602001908152602001600020600501600082825401925050819055505b614e3f8333612018565b3373ffffffffffffffffffffffffffffffffffffffff167f94ea718a6517c74ee4da32e6297595705048e7f1ca05b3133069c756cff40421846040518082815260200191505060405180910390a2505050565b60025481565b6000600860008573ffffffffffffffffffffffffffffffffffffffff1673ffffffffffffffffffffffffffffffffffffffff16815260200190815260200160002060000154141515614f52576040517f08c379a00000000000000000000000000000000000000000000000000000000081526004018080602001828103825260178152602001807f557365722061726c65616479207265676973746572656400000000000000000081525060200191505060405180910390fd5b6000600860008473ffffffffffffffffffffffffffffffffffffffff1673ffffffffffffffffffffffffffffffffffffffff168152602001908152602001600020600001541415151561500d576040517f08c379a00000000000000000000000000000000000000000000000000000000081526004018080602001828103825260168152602001807f496e7669746572206e6f7420726567697374657265640000000000000000000081525060200191505060405180910390fd5b6007600081548110151561501d57fe5b9060005260206000200154811015151561509f576040517f08c379a00000000000000000000000000000000000000000000000000000000081526004018080602001828103825260128152602001807f496e73756666696369656e742066756e6473000000000000000000000000000081525060200191505060405180910390fd5b6064600a600760008154811015156150b357fe5b9060005260206000200154028115156150c857fe5b046002600082825401925050819055506064600a600760008154811015156150ec57fe5b90600052602060002001540281151561510157fe5b046003600082825401925050819055506000606460506007600081548110151561512757fe5b90600052602060002001540281151561513c57fe5b04905060646014820281151561514e57fe5b048103600960008573ffffffffffffffffffffffffffffffffffffffff1673ffffffffffffffffffffffffffffffffffffffff168152602001908152602001600020600001600082825401925050819055506064600a82028115156151af57fe5b04600a60008573ffffffffffffffffffffffffffffffffffffffff1673ffffffffffffffffffffffffffffffffffffffff168152602001908152602001600020600001600082825401925050819055506064600a820281151561520e57fe5b04600a60008573ffffffffffffffffffffffffffffffffffffffff1673ffffffffffffffffffffffffffffffffffffffff16815260200190815260200160002060010160008282540192505081905550600860008473ffffffffffffffffffffffffffffffffffffffff1673ffffffffffffffffffffffffffffffffffffffff168152602001908152602001600020600201600081548092919060010191905055508273ffffffffffffffffffffffffffffffffffffffff1673ffffffffffffffffffffffffffffffffffffffff166108fc6064601484028115156152ef57fe5b0483039081150290604051600060405180830381858888f1935050505015801561531d573d6000803e3d6000fd5b5060646014820281151561532d57fe5b048103600560008282540192505081905550615349848461534f565b50505050565b600160008154809291906001019190505550600154600860008473ffffffffffffffffffffffffffffffffffffffff1673ffffffffffffffffffffffffffffffffffffffff1681526020019081526020016000206000018190555080600860008473ffffffffffffffffffffffffffffffffffffffff1673ffffffffffffffffffffffffffffffffffffffff16815260200190815260200160002060010160006101000a81548173ffffffffffffffffffffffffffffffffffffffff021916908373ffffffffffffffffffffffffffffffffffffffff16021790555081600b6000600154815260200190815260200160002060006101000a81548173ffffffffffffffffffffffffffffffffffffffff021916908373ffffffffffffffffffffffffffffffffffffffff1602179055506001600860008473ffffffffffffffffffffffffffffffffffffffff1673ffffffffffffffffffffffffffffffffffffffff16815260200190815260200160002060090160006101000a81548160ff0219169083151502179055506000600860008473ffffffffffffffffffffffffffffffffffffffff1673ffffffffffffffffffffffffffffffffffffffff168152602001908152602001600020600b0160006101000a81548160ff0219169083151502179055506000600860003373ffffffffffffffffffffffffffffffffffffffff1673ffffffffffffffffffffffffffffffffffffffff168152602001908152602001600020600501819055508073ffffffffffffffffffffffffffffffffffffffff168273ffffffffffffffffffffffffffffffffffffffff167fcc0bec1447060c88cdc5a739cf29cfa26c453574dd3f5b9e4dcc317d6401cb1c6001546040518082815260200191505060405180910390a35050565b828054828255906000526020600020908101928215615661579160200282015b828111156156605782518260006101000a81548173ffffffffffffffffffffffffffffffffffffffff021916908373ffffffffffffffffffffffffffffffffffffffff16021790555091602001919060010190615608565b5b50905061566e91906156ee565b5090565b6101806040519081016040528060008152602001600073ffffffffffffffffffffffffffffffffffffffff16815260200160008152602001600081526020016000815260200160008152602001600081526020016060815260200160608152602001600015158152602001600081526020016000151581525090565b61572e91905b8082111561572a57600081816101000a81549073ffffffffffffffffffffffffffffffffffffffff0219169055506001016156f4565b5090565b9056fea165627a7a72305820b6bb0476d7df7c77f9cd35b1994da7c1ec198f1a66f00ed39e199edf1c44ff200029",
  "source": "//SPDX-License-Identifier: UNLICENSED\npragma solidity >=0.5.1;\n\ncontract MLM {\n    address public ownerWallet;\n    uint256 public totalUsers;\n    uint256 public rewardWallet;\n    uint256 public levelRewardWallet;\n    uint256 public distributionWallet;\n    uint256 public totalAmountDistributed;\n    address[] public levelWinners;\n    \n    struct User {\n        uint256 id;\n        address inviter;\n        uint256 totalReferals;\n        uint256 totalWins;\n        uint256 totalRecycles;\n        uint256 levelsPurchased;\n        uint256 upline;\n        address[] uplines;\n        address[] referral;\n        bool isExist;\n        uint256 loss;\n        bool getLevelReward;\n    }\n \n    struct UserIncomes{\n        uint256 directIncome;\n        uint256 rewardIncome;\n        uint256 levelIncome;\n        uint256 recycleIncome;\n        uint256 upgradeIncome;\n        uint256 levelRewardIncome;\n    }\n \n    struct UserFunds{\n        uint256 recycleFund;\n        uint256 levelFund;\n    }\n\n\n    uint256[] public levels;\n   \n    mapping(address => User) public users;\n    mapping(address => UserIncomes) public usersIncomes;\n    mapping(address => UserFunds) public usersFund;\n    // mapping(address => UserLevels) public userLevels;\n\n    mapping(uint256 => address) public users_ids;\n    \n    event Register(address indexed addr, address indexed inviter, uint256 id);\n    event BuyLevel(\n        address indexed addr,\n        address indexed upline,\n        uint8 level\n    );\n    event buyLevelEvent(address indexed _user, uint256 _level);\n\n    constructor() public{\n        totalUsers = 0;\n        ownerWallet = msg.sender;\n        levels.push(0.05 ether);\n        levels.push(0.01 ether);\n        levels.push(0.02 ether);\n        levels.push(0.03 ether);\n        levels.push(0.04 ether);\n        levels.push(0.05 ether);\n        levels.push(0.06 ether);\n        levels.push(0.07 ether);\n        levels.push(0.08 ether);\n        levels.push(0.09 ether);\n        levels.push(0.10 ether);\n        newUser(msg.sender, address(0));\n        users[msg.sender].levelsPurchased = 10;\n        users[msg.sender].referral= new address[](0);\n        users[msg.sender].upline = 0;\n        users[msg.sender].uplines = new address[](0);\n    }\n\n    function newUser(address _addr, address _inviter) private {\n        totalUsers++;\n        users[_addr].id = totalUsers;\n        users[_addr].inviter = _inviter;\n        users_ids[totalUsers] = _addr;\n        users[_addr].isExist = true;\n        users[_addr].getLevelReward = false;\n        users[msg.sender].levelsPurchased = 0;\n        emit Register(_addr, _inviter, totalUsers);\n\n    }\n\n    function _register(\n        address _user,\n        address _inviter,\n        uint256 _value\n    ) private {\n        require(users[_user].id == 0, \"User arleady registered\");\n        require(users[_inviter].id != 0, \"Inviter not registered\");\n        require(_value >= levels[0], \"Insufficient funds\");\n\n        \n        rewardWallet += (levels[0] * 10) / 100;\n        levelRewardWallet += (levels[0] * 10) / 100;\n\n        uint256 referalMoney = (levels[0] * 80) / 100;\n        usersIncomes[_inviter].directIncome += (referalMoney - (referalMoney * 20) / 100);\n        usersFund[_inviter].recycleFund += (referalMoney * 10) / 100;\n        usersFund[_inviter].levelFund += (referalMoney * 10) / 100;\n         users[_inviter].totalReferals++;\n        // setUplines(users[_inviter].id);\n        // setUplines(users[msg.sender].id);\n        // if(usersIncomes[_inviter].recycleFund>=levels[0])\n        // recycleId(_inviter);\n        \n        // if((usersIncomes[_inviter].levelFund>=levels[users[_inviter].levelsPurchased+1]) && users[_inviter].levelsPurchased < 10)\n        // autoBuyLevel(_inviter);\n        \n        address(uint256(_inviter)).transfer(referalMoney - (referalMoney * 20) / 100);\n\n        totalAmountDistributed += (referalMoney - (referalMoney * 20) / 100);\n        \n        newUser(_user, _inviter);\n    }\n\n    function register(uint256  _inviter_id) external payable {\n        // uint256 tempReferrerID = _inviter_id;\n        _register(msg.sender, users_ids[_inviter_id], msg.value);\n        address add;\n        uint256 id = _inviter_id;\n        if(users[users_ids[_inviter_id]].referral.length >= 4) {\n            add = findFreeReferrer(users_ids[_inviter_id]);\n            id = users[add].id;\n        }\n        \n            // if( users[users_ids[id]].referral.length==4){\n            //     levelWinners.push(users_ids[id]);\n            // }\n        \n        users[users_ids[id]].referral.push(msg.sender);\n        users[msg.sender].upline =id;\n       \n    }\n\n    function buyLevel(uint256 _level) public payable {\n        require( _level > users[msg.sender].levelsPurchased,\"Already purchased level\" );\n        require(users[msg.sender].isExist, \"User not exist\");\n        require(_level > 0 && _level <= 10, \"Incorrect level\");\n        require(msg.value == levels[_level], \"Incorrect Value\");\n        require( users[msg.sender].levelsPurchased == _level - 1,\"You haven't purchased previous level yet\");\n      \n        uint256 upgradeAmount = (levels[_level] * 20) / 100;\n        address _inviter = users[msg.sender].inviter;\n        usersIncomes[_inviter].levelIncome += (upgradeAmount -(20 * upgradeAmount) / 100);\n        usersFund[_inviter].recycleFund +=(10 * upgradeAmount) /100;\n        usersFund[_inviter].levelFund += (10 * upgradeAmount) / 100;\n        // if(usersIncomes[_inviter].recycleFund>=levels[0])\n        // recycleId(_inviter);\n        \n        // if((usersIncomes[_inviter].levelFund>=levels[users[_inviter].levelsPurchased+1]) && users[_inviter].levelsPurchased < 10)\n        // autoBuyLevel(_inviter);\n\n        address(uint256(users[msg.sender].inviter)).transfer(\n            upgradeAmount - (20 * upgradeAmount) / 100\n        );\n\n        totalAmountDistributed += (upgradeAmount - (20 * upgradeAmount) / 100);\n\n        if (users[msg.sender].levelsPurchased + 1 < 10)\n            users[msg.sender].levelsPurchased += 1;\n\n        distributeLevelUpgradeAmount(_level, msg.sender);\n       \n        emit buyLevelEvent(msg.sender, _level);\n    }\n\n    function autoBuyLevel(address _user) public {\n\n        uint256 _level = users[_user].levelsPurchased + 1;\n        require(_level > 0 && _level <= 10, \"Incorrect level\");\n        require( usersFund[_user].levelFund >= levels[_level],\"Incorrect Value\");\n     \n        uint256 upgradeAmount = (levels[_level] * 20) / 100;\n        address _inviter= users[_user].inviter;\n        usersIncomes[_inviter].levelIncome += (upgradeAmount -(20 * upgradeAmount) /100);\n        usersFund[_inviter].recycleFund +=(10 * upgradeAmount) /100;\n        usersFund[_inviter].levelFund +=(10 * upgradeAmount) /100;\n        \n        // if(usersIncomes[_inviter].recycleFund>=levels[0])\n        // recycleId(_inviter);\n        \n        // if((usersIncomes[_inviter].levelFund>=levels[users[_inviter].levelsPurchased+1]) && users[_inviter].levelsPurchased < 10)\n        // autoBuyLevel(_inviter);\n\n        address(uint256(users[_user].inviter)).transfer(\n            (upgradeAmount - (20 * upgradeAmount) / 100)\n        );\n\n        totalAmountDistributed += (upgradeAmount - (20 * upgradeAmount) / 100);\n        usersFund[_user].levelFund -= levels[_level];\n        users[_user].levelsPurchased += 1;\n\n         //level distribution is done\n        distributeLevelUpgradeAmount(_level,_user);\n\n        emit buyLevelEvent(_user, _level);\n    }\n\n    function recycleId(address _user) public {\n        if(usersFund[_user].recycleFund >= levels[0]){\n            usersFund[_user].recycleFund -= levels[0];\n            users[_user].totalRecycles+=1;\n\n            uint256 referalMoney = (levels[0] * 80) / 100;\n\n            address _inviter = users[_user].inviter;\n            usersIncomes[_inviter].recycleIncome += (referalMoney -(referalMoney * 20) /100);\n            usersFund[_inviter].recycleFund += (referalMoney * 10) / 100;\n            usersFund[_inviter].levelFund += (referalMoney * 10) / 100;\n\n            address(uint256(_inviter)).transfer(referalMoney - (referalMoney * 20) / 100);\n            totalAmountDistributed += (referalMoney -(referalMoney * 20) /100);\n\n            rewardWallet += (levels[0] * 10) / 100;\n            levelRewardWallet += (levels[0] * 10) / 100;\n            \n            // if(usersIncomes[_inviter].recycleFund>=levels[0])\n            // recycleId(_inviter);\n        \n            // if((usersIncomes[_inviter].levelFund>=levels[users[_inviter].levelsPurchased+1]) && users[_inviter].levelsPurchased < 10)\n            // autoBuyLevel(_inviter);\n        }\n    }\n\n    function distributeReward(\n        uint256 _winner1,\n        uint256 _winner2,\n        uint256 _winner3\n    ) public {\n     \n        uint256 first = (50 * rewardWallet) / 100;\n        uint256 second = (30 * rewardWallet) / 100;\n        uint256 third = (20 * rewardWallet) / 100;\n\n        usersIncomes[users_ids[_winner1]].rewardIncome += (first - (20 * first) / 100);\n        usersIncomes[users_ids[_winner2]].rewardIncome += (second - (20 * second) / 100);\n        usersIncomes[users_ids[_winner3]].rewardIncome += (third - (20 * third) / 100);\n\n        address(uint256(users_ids[_winner1])).transfer(usersIncomes[users_ids[_winner1]].rewardIncome);\n        address(uint256(users_ids[_winner2])).transfer(usersIncomes[users_ids[_winner2]].rewardIncome);\n        address(uint256(users_ids[_winner3])).transfer(usersIncomes[users_ids[_winner3]].rewardIncome);\n\n        users[users_ids[_winner1]].totalWins += 1;\n        users[users_ids[_winner2]].totalWins += 1;\n        users[users_ids[_winner3]].totalWins += 1;\n\n        totalAmountDistributed += (usersIncomes[users_ids[_winner1]].rewardIncome + \n        usersIncomes[users_ids[_winner2]].rewardIncome + usersIncomes[users_ids[_winner3]].rewardIncome);\n\n        rewardWallet = 0;\n        \n        address _inviter1 = users[users_ids[_winner1]].inviter;\n        address _inviter2 = users[users_ids[_winner2]].inviter;\n        address _inviter3 = users[users_ids[_winner3]].inviter;\n        \n        usersFund[_inviter1].recycleFund += (10 * first) / 100;\n        usersFund[_inviter2].recycleFund += (10 * second) / 100;\n        usersFund[_inviter3].recycleFund += (10 * third) / 100;\n\n        usersFund[_inviter1].levelFund += (10 * first) / 100;\n        usersFund[_inviter2].levelFund += (10 * second) / 100;\n        usersFund[_inviter3].levelFund += (10 * third) / 100;\n\n        // if(usersIncomes[_inviter1].recycleFund>=levels[0])\n        // recycleId(_inviter2);\n        \n        // if((usersIncomes[_inviter1].levelFund >= levels[users[_inviter1].levelsPurchased+1]) && (users[_inviter1].levelsPurchased < 10))\n        // autoBuyLevel(_inviter1);\n\n        // if(usersIncomes[_inviter2].recycleFund>=levels[0])\n        // recycleId(_inviter2);\n        \n        // if((usersFund[_inviter2].levelFund >= levels[users[_inviter2].levelsPurchased+1]) && (users[_inviter2].levelsPurchased < 10))\n        // autoBuyLevel(_inviter2);\n\n        // if(usersIncomes[_inviter3].recycleFund>=levels[0])\n        // recycleId(_inviter3);\n        \n        // if((usersFund[_inviter3].levelFund >= levels[users[_inviter3].levelsPurchased+1]) && (users[_inviter3].levelsPurchased < 10))\n        // autoBuyLevel(_inviter3);\n\n    }\n\n\n    function distributeLevelReward() public{\n        uint256 size = setLevelWinners();\n        uint256 totalprice = levelRewardWallet/size;\n        uint256 price = totalprice - (20*totalprice)/100;\n        uint256 recyclePrice = (10*totalprice)/100;\n        uint256 levelPrice = (10*totalprice)/100;\n        for(uint256 i=0;i<levelWinners.length;i++){\n            if(levelWinners[i]==address(0)){\n                distributionWallet += price;\n            }\n            address(uint256(levelWinners[i])).transfer(price);\n            usersIncomes[levelWinners[i]].levelRewardIncome += price;\n            address _inviter = users[levelWinners[i]].inviter;\n            \n            usersFund[_inviter].recycleFund += recyclePrice;\n            usersFund[_inviter].levelFund += levelPrice;\n            \n            // if(usersIncomes[_inviter].recycleFund>=levels[0])\n            // recycleId(_inviter);\n            \n            // if((usersIncomes[_inviter].levelFund >= levels[users[_inviter].levelsPurchased+1]) && (users[_inviter].levelsPurchased < 10))\n            // autoBuyLevel(_inviter);\n        }\n        totalAmountDistributed += price*levelWinners.length;\n    }\n\n    function distributeLevelUpgradeAmount(uint256 _level, address _user) public{\n        uint256 x = (levels[_level]*8)/100;\n        uint256 y = (20*x)/100;\n        uint256 price = (x-y);\n        setUplines(users[_user].id);\n        address[] memory uplines = new address[](10);\n        uplines = users[_user].uplines;\n        for(uint256 i=0;i<10;i++){\n            if(uplines[i]==address(0))\n            {\n                //some changes needed\n                distributionWallet += price; \n                break;\n            }\n            else if(users[uplines[i]].levelsPurchased>=(i+1)){\n                usersIncomes[uplines[i]].upgradeIncome += price;\n\n                usersFund[uplines[i]].recycleFund += (10*x)/100;\n                usersFund[uplines[i]].levelFund += (10*x)/100;\n                \n                // if(usersIncomes[users_ids[uplines[i]]].recycleFund>=levels[0])\n                // recycleId(users[users_ids[uplines[i]]].inviter);\n                \n                // if((usersIncomes[users_ids[user.upline]].levelFund >= levels[users[users_ids[user.upline]].levelsPurchased+1]) && (users[users_ids[user.uplines[i]]].levelsPurchased < 10))\n                // autoBuyLevel(users[users_ids[user.uplines[i]]].inviter);\n                \n                address(uint256(uplines[i])).transfer(price);\n                totalAmountDistributed += price;\n                \n            }\n\n            else{\n                users[uplines[i]].loss += price;\n                distributionWallet += price; \n            }\n           \n        }\n    }\n    \n    function getTotalAmountWithdrawn() public view returns (uint256) {\n        return totalAmountDistributed;\n    }\n\n    function getTotalUsers() public view returns (uint256) {\n        return totalUsers;\n    }\n\n    function getRewardWallet()public view returns (uint256) {\n        return rewardWallet;\n    }\n    function getLevelRewardWallet() public view returns (uint256) {\n        return levelRewardWallet;\n    }\n\n    function getDirectIncome(address _add) public view returns (uint256){\n        return usersIncomes[_add].directIncome;\n    }\n\n   function getUserInfo(uint256 _id)\n        public\n        view\n        returns (\n        address inviter,\n        uint256 totalReferals,\n        uint256 totalRecycles,\n        uint256 totalWins,\n        uint256 levelsPurchased,\n        uint256 loss\n        )\n    {\n        User memory user = users[users_ids[_id]];\n        return (\n            user.inviter,\n            user.totalReferals,\n            user.totalRecycles,\n            user.totalWins,\n            user.levelsPurchased,\n            user.loss\n        );\n    }\n    \n    function getUsersIncomes(uint256 _id) public view returns (\n        uint256 directIncome,\n        uint256 rewardIncome,\n        uint256 levelIncome,\n        uint256 recycleIncome,\n        uint256 upgradeIncome,\n        uint256 levelRewardIncome\n        )\n        {\n        return (\n            usersIncomes[users_ids[_id]].directIncome,\n            usersIncomes[users_ids[_id]].rewardIncome,\n            usersIncomes[users_ids[_id]].levelIncome,\n            usersIncomes[users_ids[_id]].recycleIncome,\n            usersIncomes[users_ids[_id]].upgradeIncome,\n            usersIncomes[users_ids[_id]].levelRewardIncome\n            );\n    }\n\n    function getUsersFunds(uint256 _id) public view returns(\n        uint256 recycleFund,\n        uint256 levelFund\n    ){\n        return (\n            usersFund[users_ids[_id]].recycleFund,\n            usersFund[users_ids[_id]].levelFund\n        );\n    }\n    function withDrawlevelFund() public {\n        require(users[msg.sender].levelsPurchased >= 10, \"you cannot withdraw amount\");\n\n        address(uint256(msg.sender)).transfer(\n            usersFund[msg.sender].levelFund\n        );\n\n        usersFund[msg.sender].levelFund = 0;\n    }\n   \n    function withdrawDistributionWallet() public{\n        require(msg.sender == ownerWallet,\"you are not owner\");\n        address(uint256(ownerWallet)).transfer(distributionWallet);\n        totalAmountDistributed += distributionWallet;\n        distributionWallet = 0;\n    }\n    function findFreeReferrer(address _user) public view returns(address) {\n        if(users[_user].referral.length < 4) return _user;\n\n        address[] memory referrals = new address[](30000);\n        referrals[0] = users[_user].referral[0];\n        referrals[1] = users[_user].referral[1];\n        referrals[2] = users[_user].referral[2];\n        referrals[3] = users[_user].referral[3];\n\n        address freeReferrer;\n        bool noFreeReferrer = true;\n\n        for(uint256 i = 0; i < 30000; i++) {\n            if(users[referrals[i]].referral.length == 4) {\n                    referrals[(i+1)*4] = users[referrals[i]].referral[0];\n                    referrals[(i+1)*4+1] = users[referrals[i]].referral[1];\n                    referrals[(i+1)*4+2] = users[referrals[i]].referral[2];\n                    referrals[(i+1)*4+3] = users[referrals[i]].referral[3];\n            }\n            else {\n                noFreeReferrer = false;\n                freeReferrer = referrals[i];\n                break;\n            }\n        }\n\n        require(!noFreeReferrer, 'No Free Referrer');\n\n        return freeReferrer;\n    }\n\n    function viewUserReferral(address _user) public view returns(address[] memory) {\n        return users[_user].referral;\n    }\n    \n    function setUplines(uint256 _id) public{\n        address[] memory uplinesLocal=new address[](10);\n        uint256 userId = users[users_ids[_id]].upline;\n        for(uint256 i=0;i<10;i++){\n            if(userId == 0)\n            break;\n            uplinesLocal[i]=users_ids[userId];\n            userId = users[users_ids[userId]].upline;\n        }\n        users[users_ids[_id]].uplines = uplinesLocal;\n       \n    }\n\n    function getUplines(uint256 _id) public view returns(address[] memory){\n        return users[users_ids[_id]].uplines;\n    }\n\n    function setLevelWinners() public returns(uint256){\n        address[] memory levelWinner = new address[](100);\n        uint256 i;\n        uint256 j=0;\n        for(i=1;i<=totalUsers;i++){\n             if(users[users_ids[i]].referral.length==4){\n                levelWinner[j++]= (users_ids[i]);\n            }\n        }\n        levelWinners = levelWinner;\n        return j;\n    }\n\n    function getLevelWinners() public view returns(address[] memory){\n     return levelWinners;\n    }\n}\n",
  "sourcePath": "/home/khanmosajjid/nexen-dashboard-new/contracts/MLM.sol",
  "compiler": {
    "name": "solc",
    "version": "0.5.1+commit.c8a2cb62.Emscripten.clang"
  },
  "schemaVersion": "3.1.0",
  "updatedAt": "2020-08-22T07:07:15.798Z",
  "networkType": "ethereum",
  "devdoc": {
    "methods": {}
  },
  "userdoc": {
    "methods": {}
  }
}