{
  "contractName": "MLM",
  "abi": [
    {
      "constant": true,
      "inputs": [
        {
          "name": "",
          "type": "uint256"
        }
      ],
      "name": "users_ids",
      "outputs": [
        {
          "name": "",
          "type": "address"
        }
      ],
      "payable": false,
      "stateMutability": "view",
      "type": "function"
    },
    {
      "constant": true,
      "inputs": [],
      "name": "totalAmountDistributed",
      "outputs": [
        {
          "name": "",
          "type": "uint256"
        }
      ],
      "payable": false,
      "stateMutability": "view",
      "type": "function"
    },
    {
      "constant": true,
      "inputs": [],
      "name": "distributionWallet",
      "outputs": [
        {
          "name": "",
          "type": "uint256"
        }
      ],
      "payable": false,
      "stateMutability": "view",
      "type": "function"
    },
    {
      "constant": true,
      "inputs": [
        {
          "name": "",
          "type": "address"
        }
      ],
      "name": "usersFund",
      "outputs": [
        {
          "name": "recycleFund",
          "type": "uint256"
        },
        {
          "name": "levelFund",
          "type": "uint256"
        }
      ],
      "payable": false,
      "stateMutability": "view",
      "type": "function"
    },
    {
      "constant": true,
      "inputs": [],
      "name": "levelRewardWallet",
      "outputs": [
        {
          "name": "",
          "type": "uint256"
        }
      ],
      "payable": false,
      "stateMutability": "view",
      "type": "function"
    },
    {
      "constant": true,
      "inputs": [
        {
          "name": "",
          "type": "uint256"
        }
      ],
      "name": "levelWinners",
      "outputs": [
        {
          "name": "",
          "type": "address"
        }
      ],
      "payable": false,
      "stateMutability": "view",
      "type": "function"
    },
    {
      "constant": true,
      "inputs": [],
      "name": "ownerWallet",
      "outputs": [
        {
          "name": "",
          "type": "address"
        }
      ],
      "payable": false,
      "stateMutability": "view",
      "type": "function"
    },
    {
      "constant": true,
      "inputs": [
        {
          "name": "",
          "type": "address"
        }
      ],
      "name": "users",
      "outputs": [
        {
          "name": "id",
          "type": "uint256"
        },
        {
          "name": "inviter",
          "type": "address"
        },
        {
          "name": "totalReferals",
          "type": "uint256"
        },
        {
          "name": "totalWins",
          "type": "uint256"
        },
        {
          "name": "totalRecycles",
          "type": "uint256"
        },
        {
          "name": "dailyReferrals",
          "type": "uint256"
        },
        {
          "name": "levelsPurchased",
          "type": "uint256"
        },
        {
          "name": "upline",
          "type": "uint256"
        },
        {
          "name": "isExist",
          "type": "bool"
        },
        {
          "name": "loss",
          "type": "uint256"
        }
      ],
      "payable": false,
      "stateMutability": "view",
      "type": "function"
    },
    {
      "constant": true,
      "inputs": [
        {
          "name": "",
          "type": "address"
        }
      ],
      "name": "usersIncomes",
      "outputs": [
        {
          "name": "directIncome",
          "type": "uint256"
        },
        {
          "name": "rewardIncome",
          "type": "uint256"
        },
        {
          "name": "levelIncome",
          "type": "uint256"
        },
        {
          "name": "recycleIncome",
          "type": "uint256"
        },
        {
          "name": "upgradeIncome",
          "type": "uint256"
        },
        {
          "name": "levelRewardIncome",
          "type": "uint256"
        }
      ],
      "payable": false,
      "stateMutability": "view",
      "type": "function"
    },
    {
      "constant": true,
      "inputs": [
        {
          "name": "",
          "type": "uint256"
        }
      ],
      "name": "levels",
      "outputs": [
        {
          "name": "",
          "type": "uint256"
        }
      ],
      "payable": false,
      "stateMutability": "view",
      "type": "function"
    },
    {
      "constant": true,
      "inputs": [],
      "name": "totalUsers",
      "outputs": [
        {
          "name": "",
          "type": "uint256"
        }
      ],
      "payable": false,
      "stateMutability": "view",
      "type": "function"
    },
    {
      "constant": true,
      "inputs": [],
      "name": "rewardWallet",
      "outputs": [
        {
          "name": "",
          "type": "uint256"
        }
      ],
      "payable": false,
      "stateMutability": "view",
      "type": "function"
    },
    {
      "inputs": [],
      "payable": false,
      "stateMutability": "nonpayable",
      "type": "constructor"
    },
    {
      "anonymous": false,
      "inputs": [
        {
          "indexed": true,
          "name": "addr",
          "type": "address"
        },
        {
          "indexed": true,
          "name": "inviter",
          "type": "address"
        },
        {
          "indexed": false,
          "name": "id",
          "type": "uint256"
        }
      ],
      "name": "Register",
      "type": "event"
    },
    {
      "anonymous": false,
      "inputs": [
        {
          "indexed": true,
          "name": "addr",
          "type": "address"
        },
        {
          "indexed": true,
          "name": "upline",
          "type": "address"
        },
        {
          "indexed": false,
          "name": "level",
          "type": "uint8"
        }
      ],
      "name": "BuyLevel",
      "type": "event"
    },
    {
      "anonymous": false,
      "inputs": [
        {
          "indexed": true,
          "name": "_user",
          "type": "address"
        },
        {
          "indexed": false,
          "name": "_level",
          "type": "uint256"
        }
      ],
      "name": "buyLevelEvent",
      "type": "event"
    },
    {
      "constant": false,
      "inputs": [
        {
          "name": "_inviter_id",
          "type": "uint256"
        }
      ],
      "name": "register",
      "outputs": [],
      "payable": true,
      "stateMutability": "payable",
      "type": "function"
    },
    {
      "constant": false,
      "inputs": [
        {
          "name": "_level",
          "type": "uint256"
        }
      ],
      "name": "buyLevel",
      "outputs": [],
      "payable": true,
      "stateMutability": "payable",
      "type": "function"
    },
    {
      "constant": false,
      "inputs": [
        {
          "name": "_user",
          "type": "address"
        }
      ],
      "name": "autoBuyLevel",
      "outputs": [],
      "payable": false,
      "stateMutability": "nonpayable",
      "type": "function"
    },
    {
      "constant": false,
      "inputs": [
        {
          "name": "_user",
          "type": "address"
        }
      ],
      "name": "recycleId",
      "outputs": [],
      "payable": false,
      "stateMutability": "nonpayable",
      "type": "function"
    },
    {
      "constant": false,
      "inputs": [
        {
          "name": "_winner1",
          "type": "uint256"
        },
        {
          "name": "_winner2",
          "type": "uint256"
        },
        {
          "name": "_winner3",
          "type": "uint256"
        }
      ],
      "name": "distributeReward",
      "outputs": [],
      "payable": false,
      "stateMutability": "nonpayable",
      "type": "function"
    },
    {
      "constant": false,
      "inputs": [
        {
          "name": "_level",
          "type": "uint256"
        }
      ],
      "name": "distributeLevelUpgradeAmount",
      "outputs": [],
      "payable": false,
      "stateMutability": "nonpayable",
      "type": "function"
    },
    {
      "constant": true,
      "inputs": [],
      "name": "getTotalAmountWithdrawn",
      "outputs": [
        {
          "name": "",
          "type": "uint256"
        }
      ],
      "payable": false,
      "stateMutability": "view",
      "type": "function"
    },
    {
      "constant": true,
      "inputs": [],
      "name": "getTotalUsers",
      "outputs": [
        {
          "name": "",
          "type": "uint256"
        }
      ],
      "payable": false,
      "stateMutability": "view",
      "type": "function"
    },
    {
      "constant": true,
      "inputs": [],
      "name": "getRewardWallet",
      "outputs": [
        {
          "name": "",
          "type": "uint256"
        }
      ],
      "payable": false,
      "stateMutability": "view",
      "type": "function"
    },
    {
      "constant": true,
      "inputs": [],
      "name": "getLevelRewardWallet",
      "outputs": [
        {
          "name": "",
          "type": "uint256"
        }
      ],
      "payable": false,
      "stateMutability": "view",
      "type": "function"
    },
    {
      "constant": true,
      "inputs": [
        {
          "name": "_add",
          "type": "address"
        }
      ],
      "name": "getDirectIncome",
      "outputs": [
        {
          "name": "",
          "type": "uint256"
        }
      ],
      "payable": false,
      "stateMutability": "view",
      "type": "function"
    },
    {
      "constant": true,
      "inputs": [
        {
          "name": "_id",
          "type": "uint256"
        }
      ],
      "name": "getUserInfo",
      "outputs": [
        {
          "name": "inviter",
          "type": "address"
        },
        {
          "name": "totalReferals",
          "type": "uint256"
        },
        {
          "name": "totalRecycles",
          "type": "uint256"
        },
        {
          "name": "totalWins",
          "type": "uint256"
        },
        {
          "name": "dailyReferrals",
          "type": "uint256"
        },
        {
          "name": "levelsPurchased",
          "type": "uint256"
        },
        {
          "name": "loss",
          "type": "uint256"
        }
      ],
      "payable": false,
      "stateMutability": "view",
      "type": "function"
    },
    {
      "constant": true,
      "inputs": [
        {
          "name": "_id",
          "type": "uint256"
        }
      ],
      "name": "getUsersIncomes",
      "outputs": [
        {
          "name": "directIncome",
          "type": "uint256"
        },
        {
          "name": "rewardIncome",
          "type": "uint256"
        },
        {
          "name": "levelIncome",
          "type": "uint256"
        },
        {
          "name": "recycleIncome",
          "type": "uint256"
        },
        {
          "name": "upgradeIncome",
          "type": "uint256"
        },
        {
          "name": "levelRewardIncome",
          "type": "uint256"
        }
      ],
      "payable": false,
      "stateMutability": "view",
      "type": "function"
    },
    {
      "constant": true,
      "inputs": [
        {
          "name": "_id",
          "type": "uint256"
        }
      ],
      "name": "getUsersFunds",
      "outputs": [
        {
          "name": "recycleFund",
          "type": "uint256"
        },
        {
          "name": "levelFund",
          "type": "uint256"
        }
      ],
      "payable": false,
      "stateMutability": "view",
      "type": "function"
    },
    {
      "constant": false,
      "inputs": [],
      "name": "withDrawlevelFund",
      "outputs": [],
      "payable": false,
      "stateMutability": "nonpayable",
      "type": "function"
    },
    {
      "constant": false,
      "inputs": [],
      "name": "withdrawDistributionWallet",
      "outputs": [],
      "payable": false,
      "stateMutability": "nonpayable",
      "type": "function"
    },
    {
      "constant": true,
      "inputs": [
        {
          "name": "_user",
          "type": "address"
        }
      ],
      "name": "findFreeReferrer",
      "outputs": [
        {
          "name": "",
          "type": "address"
        }
      ],
      "payable": false,
      "stateMutability": "view",
      "type": "function"
    },
    {
      "constant": true,
      "inputs": [
        {
          "name": "_user",
          "type": "address"
        }
      ],
      "name": "viewUserReferral",
      "outputs": [
        {
          "name": "",
          "type": "address[]"
        }
      ],
      "payable": false,
      "stateMutability": "view",
      "type": "function"
    },
    {
      "constant": false,
      "inputs": [
        {
          "name": "_id",
          "type": "uint256"
        }
      ],
      "name": "setUplines",
      "outputs": [],
      "payable": false,
      "stateMutability": "nonpayable",
      "type": "function"
    },
    {
      "constant": true,
      "inputs": [
        {
          "name": "_id",
          "type": "uint256"
        }
      ],
      "name": "getUplines",
      "outputs": [
        {
          "name": "",
          "type": "address[]"
        }
      ],
      "payable": false,
      "stateMutability": "view",
      "type": "function"
    }
  ],
  "bytecode": "0x60806040523480156200001157600080fd5b506000600181905550336000806101000a81548173ffffffffffffffffffffffffffffffffffffffff021916908373ffffffffffffffffffffffffffffffffffffffff160217905550600766b1a2bc2ec5000090806001815401808255809150509060018203906000526020600020016000909192909190915055506007662386f26fc100009080600181540180825580915050906001820390600052602060002001600090919290919091505550600766470de4df82000090806001815401808255809150509060018203906000526020600020016000909192909190915055506007666a94d74f43000090806001815401808255809150509060018203906000526020600020016000909192909190915055506007668e1bc9bf0400009080600181540180825580915050906001820390600052602060002001600090919290919091505550600766b1a2bc2ec500009080600181540180825580915050906001820390600052602060002001600090919290919091505550600766d529ae9e8600009080600181540180825580915050906001820390600052602060002001600090919290919091505550600766f8b0a10e4700009080600181540180825580915050906001820390600052602060002001600090919290919091505550600767011c37937e0800009080600181540180825580915050906001820390600052602060002001600090919290919091505550600767013fbe85edc900009080600181540180825580915050906001820390600052602060002001600090919290919091505550600767016345785d8a00009080600181540180825580915050906001820390600052602060002001600090919290919091505550620002aa33600062000454640100000000026401000000009004565b600a600860003373ffffffffffffffffffffffffffffffffffffffff1673ffffffffffffffffffffffffffffffffffffffff168152602001908152602001600020600601819055506000604051908082528060200260200182016040528015620003235781602001602082028038833980820191505090505b50600860003373ffffffffffffffffffffffffffffffffffffffff1673ffffffffffffffffffffffffffffffffffffffff16815260200190815260200160002060090190805190602001906200037b92919062000692565b506000600860003373ffffffffffffffffffffffffffffffffffffffff1673ffffffffffffffffffffffffffffffffffffffff168152602001908152602001600020600701819055506000604051908082528060200260200182016040528015620003f55781602001602082028038833980820191505090505b50600860003373ffffffffffffffffffffffffffffffffffffffff1673ffffffffffffffffffffffffffffffffffffffff16815260200190815260200160002060080190805190602001906200044d92919062000692565b5062000767565b600160008154809291906001019190505550600154600860008473ffffffffffffffffffffffffffffffffffffffff1673ffffffffffffffffffffffffffffffffffffffff1681526020019081526020016000206000018190555080600860008473ffffffffffffffffffffffffffffffffffffffff1673ffffffffffffffffffffffffffffffffffffffff16815260200190815260200160002060010160006101000a81548173ffffffffffffffffffffffffffffffffffffffff021916908373ffffffffffffffffffffffffffffffffffffffff16021790555081600b6000600154815260200190815260200160002060006101000a81548173ffffffffffffffffffffffffffffffffffffffff021916908373ffffffffffffffffffffffffffffffffffffffff1602179055506001600860008473ffffffffffffffffffffffffffffffffffffffff1673ffffffffffffffffffffffffffffffffffffffff168152602001908152602001600020600a0160006101000a81548160ff0219169083151502179055506000600860003373ffffffffffffffffffffffffffffffffffffffff1673ffffffffffffffffffffffffffffffffffffffff168152602001908152602001600020600601819055508073ffffffffffffffffffffffffffffffffffffffff168273ffffffffffffffffffffffffffffffffffffffff167fcc0bec1447060c88cdc5a739cf29cfa26c453574dd3f5b9e4dcc317d6401cb1c6001546040518082815260200191505060405180910390a35050565b8280548282559060005260206000209081019282156200070e579160200282015b828111156200070d5782518260006101000a81548173ffffffffffffffffffffffffffffffffffffffff021916908373ffffffffffffffffffffffffffffffffffffffff16021790555091602001919060010190620006b3565b5b5090506200071d919062000721565b5090565b6200076491905b808211156200076057600081816101000a81549073ffffffffffffffffffffffffffffffffffffffff02191690555060010162000728565b5090565b90565b61530280620007776000396000f3fe608060405260043610610190576000357c010000000000000000000000000000000000000000000000000000000090048063024e749914610195578063085bea3c146102255780630883b73c146102a0578063118be0d8146102f6578063132c8c9b1461033157806334ebff14146103c25780633710040e146103ed57806339b728ac14610404578063467d01191461042f5780634a4baa8f1461045a5780634f123df51461050057806355f7bd1b1461053b5780635eccfb6d146105a75780636c72f123146105d2578063720f64b5146105e957806375103d6a1461063a5780639335dcb7146106b55780639be572f61461070c578063a87430ba14610737578063a8e1c6101461080b578063ab5bc49f1461087d578063acc87b2e146108e2578063b2596a671461096a578063b958089b146109b9578063beb2861014610a08578063bff1f9e114610a59578063d379dadf14610a84578063d67dff0114610b29578063e405ca0114610b54578063f207564e14610b7f578063f6838a7214610bad578063fb75b2c714610bdb575b600080fd5b3480156101a157600080fd5b506101ce600480360360208110156101b857600080fd5b8101908080359060200190929190505050610c06565b6040518080602001828103825283818151815260200191508051906020019060200280838360005b838110156102115780820151818401526020810190506101f6565b505050509050019250505060405180910390f35b34801561023157600080fd5b5061025e6004803603602081101561024857600080fd5b8101908080359060200190929190505050610d09565b604051808273ffffffffffffffffffffffffffffffffffffffff1673ffffffffffffffffffffffffffffffffffffffff16815260200191505060405180910390f35b3480156102ac57600080fd5b506102d9600480360360208110156102c357600080fd5b8101908080359060200190929190505050610d3c565b604051808381526020018281526020019250505060405180910390f35b34801561030257600080fd5b5061032f6004803603602081101561031957600080fd5b8101908080359060200190929190505050610e34565b005b34801561033d57600080fd5b506103806004803603602081101561035457600080fd5b81019080803573ffffffffffffffffffffffffffffffffffffffff169060200190929190505050611303565b604051808273ffffffffffffffffffffffffffffffffffffffff1673ffffffffffffffffffffffffffffffffffffffff16815260200191505060405180910390f35b3480156103ce57600080fd5b506103d7611b6e565b6040518082815260200191505060405180910390f35b3480156103f957600080fd5b50610402611b78565b005b34801561041057600080fd5b50610419611d1c565b6040518082815260200191505060405180910390f35b34801561043b57600080fd5b50610444611d22565b6040518082815260200191505060405180910390f35b34801561046657600080fd5b506104a96004803603602081101561047d57600080fd5b81019080803573ffffffffffffffffffffffffffffffffffffffff169060200190929190505050611d28565b6040518080602001828103825283818151815260200191508051906020019060200280838360005b838110156104ec5780820151818401526020810190506104d1565b505050509050019250505060405180910390f35b34801561050c57600080fd5b506105396004803603602081101561052357600080fd5b8101908080359060200190929190505050611df8565b005b34801561054757600080fd5b5061058a6004803603602081101561055e57600080fd5b81019080803573ffffffffffffffffffffffffffffffffffffffff169060200190929190505050612057565b604051808381526020018281526020019250505060405180910390f35b3480156105b357600080fd5b506105bc61207b565b6040518082815260200191505060405180910390f35b3480156105de57600080fd5b506105e7612081565b005b3480156105f557600080fd5b506106386004803603602081101561060c57600080fd5b81019080803573ffffffffffffffffffffffffffffffffffffffff1690602001909291905050506121e1565b005b34801561064657600080fd5b506106736004803603602081101561065d57600080fd5b810190808035906020019092919050505061273e565b604051808273ffffffffffffffffffffffffffffffffffffffff1673ffffffffffffffffffffffffffffffffffffffff16815260200191505060405180910390f35b3480156106c157600080fd5b506106ca61277c565b604051808273ffffffffffffffffffffffffffffffffffffffff1673ffffffffffffffffffffffffffffffffffffffff16815260200191505060405180910390f35b34801561071857600080fd5b506107216127a1565b6040518082815260200191505060405180910390f35b34801561074357600080fd5b506107866004803603602081101561075a57600080fd5b81019080803573ffffffffffffffffffffffffffffffffffffffff1690602001909291905050506127ab565b604051808b81526020018a73ffffffffffffffffffffffffffffffffffffffff1673ffffffffffffffffffffffffffffffffffffffff168152602001898152602001888152602001878152602001868152602001858152602001848152602001831515151581526020018281526020019a505050505050505050505060405180910390f35b34801561081757600080fd5b506108446004803603602081101561082e57600080fd5b810190808035906020019092919050505061282c565b60405180878152602001868152602001858152602001848152602001838152602001828152602001965050505050505060405180910390f35b34801561088957600080fd5b506108cc600480360360208110156108a057600080fd5b81019080803573ffffffffffffffffffffffffffffffffffffffff169060200190929190505050612b0e565b6040518082815260200191505060405180910390f35b3480156108ee57600080fd5b506109316004803603602081101561090557600080fd5b81019080803573ffffffffffffffffffffffffffffffffffffffff169060200190929190505050612b5a565b60405180878152602001868152602001858152602001848152602001838152602001828152602001965050505050505060405180910390f35b34801561097657600080fd5b506109a36004803603602081101561098d57600080fd5b8101908080359060200190929190505050612b96565b6040518082815260200191505060405180910390f35b3480156109c557600080fd5b50610a06600480360360608110156109dc57600080fd5b81019080803590602001909291908035906020019092919080359060200190929190505050612bb9565b005b348015610a1457600080fd5b50610a5760048036036020811015610a2b57600080fd5b81019080803573ffffffffffffffffffffffffffffffffffffffff1690602001909291905050506139e2565b005b348015610a6557600080fd5b50610a6e613dbd565b6040518082815260200191505060405180910390f35b348015610a9057600080fd5b50610abd60048036036020811015610aa757600080fd5b8101908080359060200190929190505050613dc3565b604051808873ffffffffffffffffffffffffffffffffffffffff1673ffffffffffffffffffffffffffffffffffffffff16815260200187815260200186815260200185815260200184815260200183815260200182815260200197505050505050505060405180910390f35b348015610b3557600080fd5b50610b3e614072565b6040518082815260200191505060405180910390f35b348015610b6057600080fd5b50610b6961407c565b6040518082815260200191505060405180910390f35b610bab60048036036020811015610b9557600080fd5b8101908080359060200190929190505050614086565b005b610bd960048036036020811015610bc357600080fd5b8101908080359060200190929190505050614380565b005b348015610be757600080fd5b50610bf0614a94565b6040518082815260200191505060405180910390f35b606060086000600b600085815260200190815260200160002060009054906101000a900473ffffffffffffffffffffffffffffffffffffffff1673ffffffffffffffffffffffffffffffffffffffff1673ffffffffffffffffffffffffffffffffffffffff168152602001908152602001600020600801805480602002602001604051908101604052809291908181526020018280548015610cfd57602002820191906000526020600020905b8160009054906101000a900473ffffffffffffffffffffffffffffffffffffffff1673ffffffffffffffffffffffffffffffffffffffff1681526020019060010190808311610cb3575b50505050509050919050565b600b6020528060005260406000206000915054906101000a900473ffffffffffffffffffffffffffffffffffffffff1681565b600080600a6000600b600086815260200190815260200160002060009054906101000a900473ffffffffffffffffffffffffffffffffffffffff1673ffffffffffffffffffffffffffffffffffffffff1673ffffffffffffffffffffffffffffffffffffffff16815260200190815260200160002060000154600a6000600b600087815260200190815260200160002060009054906101000a900473ffffffffffffffffffffffffffffffffffffffff1673ffffffffffffffffffffffffffffffffffffffff1673ffffffffffffffffffffffffffffffffffffffff1681526020019081526020016000206001015491509150915091565b600060646008600784815481101515610e4957fe5b906000526020600020015402811515610e5e57fe5b0490506000606482601402811515610e7257fe5b04905060008183039050610ec7600860003373ffffffffffffffffffffffffffffffffffffffff1673ffffffffffffffffffffffffffffffffffffffff16815260200190815260200160002060000154611df8565b6060600a604051908082528060200260200182016040528015610ef95781602001602082028038833980820191505090505b509050600860003373ffffffffffffffffffffffffffffffffffffffff1673ffffffffffffffffffffffffffffffffffffffff168152602001908152602001600020600801805480602002602001604051908101604052809291908181526020018280548015610fbe57602002820191906000526020600020905b8160009054906101000a900473ffffffffffffffffffffffffffffffffffffffff1673ffffffffffffffffffffffffffffffffffffffff1681526020019060010190808311610f74575b5050505050905060008090505b600a8110156112fb57600073ffffffffffffffffffffffffffffffffffffffff168282815181101515610ffa57fe5b9060200190602002015173ffffffffffffffffffffffffffffffffffffffff16141561103557826004600082825401925050819055506112fb565b6001810160086000848481518110151561104b57fe5b9060200190602002015173ffffffffffffffffffffffffffffffffffffffff1673ffffffffffffffffffffffffffffffffffffffff1681526020019081526020016000206006015410151561127657826009600084848151811015156110ad57fe5b9060200190602002015173ffffffffffffffffffffffffffffffffffffffff1673ffffffffffffffffffffffffffffffffffffffff16815260200190815260200160002060040160008282540192505081905550606485600a0281151561111057fe5b04600a6000848481518110151561112357fe5b9060200190602002015173ffffffffffffffffffffffffffffffffffffffff1673ffffffffffffffffffffffffffffffffffffffff16815260200190815260200160002060000160008282540192505081905550606485600a0281151561118657fe5b04600a6000848481518110151561119957fe5b9060200190602002015173ffffffffffffffffffffffffffffffffffffffff1673ffffffffffffffffffffffffffffffffffffffff1681526020019081526020016000206001016000828254019250508190555081818151811015156111fb57fe5b9060200190602002015173ffffffffffffffffffffffffffffffffffffffff1673ffffffffffffffffffffffffffffffffffffffff166108fc849081150290604051600060405180830381858888f19350505050158015611260573d6000803e3d6000fd5b50826005600082825401925050819055506112ee565b8260086000848481518110151561128957fe5b9060200190602002015173ffffffffffffffffffffffffffffffffffffffff1673ffffffffffffffffffffffffffffffffffffffff168152602001908152602001600020600b0160008282540192505081905550826004600082825401925050819055505b8080600101915050610fcb565b505050505050565b60006004600860008473ffffffffffffffffffffffffffffffffffffffff1673ffffffffffffffffffffffffffffffffffffffff16815260200190815260200160002060090180549050101561135b57819050611b69565b6060614e2060405190808252806020026020018201604052801561138e5781602001602082028038833980820191505090505b509050600860008473ffffffffffffffffffffffffffffffffffffffff1673ffffffffffffffffffffffffffffffffffffffff16815260200190815260200160002060090160008154811015156113e157fe5b9060005260206000200160009054906101000a900473ffffffffffffffffffffffffffffffffffffffff1681600081518110151561141b57fe5b9060200190602002019073ffffffffffffffffffffffffffffffffffffffff16908173ffffffffffffffffffffffffffffffffffffffff1681525050600860008473ffffffffffffffffffffffffffffffffffffffff1673ffffffffffffffffffffffffffffffffffffffff16815260200190815260200160002060090160018154811015156114a757fe5b9060005260206000200160009054906101000a900473ffffffffffffffffffffffffffffffffffffffff168160018151811015156114e157fe5b9060200190602002019073ffffffffffffffffffffffffffffffffffffffff16908173ffffffffffffffffffffffffffffffffffffffff1681525050600860008473ffffffffffffffffffffffffffffffffffffffff1673ffffffffffffffffffffffffffffffffffffffff168152602001908152602001600020600901600281548110151561156d57fe5b9060005260206000200160009054906101000a900473ffffffffffffffffffffffffffffffffffffffff168160028151811015156115a757fe5b9060200190602002019073ffffffffffffffffffffffffffffffffffffffff16908173ffffffffffffffffffffffffffffffffffffffff1681525050600860008473ffffffffffffffffffffffffffffffffffffffff1673ffffffffffffffffffffffffffffffffffffffff168152602001908152602001600020600901600381548110151561163357fe5b9060005260206000200160009054906101000a900473ffffffffffffffffffffffffffffffffffffffff1681600381518110151561166d57fe5b9060200190602002019073ffffffffffffffffffffffffffffffffffffffff16908173ffffffffffffffffffffffffffffffffffffffff16815250506000806001905060008090505b614e20811015611aeb5760046008600086848151811015156116d457fe5b9060200190602002015173ffffffffffffffffffffffffffffffffffffffff1673ffffffffffffffffffffffffffffffffffffffff168152602001908152602001600020600901805490501415611abb5760086000858381518110151561173757fe5b9060200190602002015173ffffffffffffffffffffffffffffffffffffffff1673ffffffffffffffffffffffffffffffffffffffff168152602001908152602001600020600901600081548110151561178c57fe5b9060005260206000200160009054906101000a900473ffffffffffffffffffffffffffffffffffffffff1684600460018401028151811015156117cb57fe5b9060200190602002019073ffffffffffffffffffffffffffffffffffffffff16908173ffffffffffffffffffffffffffffffffffffffff168152505060086000858381518110151561181957fe5b9060200190602002015173ffffffffffffffffffffffffffffffffffffffff1673ffffffffffffffffffffffffffffffffffffffff168152602001908152602001600020600901600181548110151561186e57fe5b9060005260206000200160009054906101000a900473ffffffffffffffffffffffffffffffffffffffff1684600160046001850102018151811015156118b057fe5b9060200190602002019073ffffffffffffffffffffffffffffffffffffffff16908173ffffffffffffffffffffffffffffffffffffffff16815250506008600085838151811015156118fe57fe5b9060200190602002015173ffffffffffffffffffffffffffffffffffffffff1673ffffffffffffffffffffffffffffffffffffffff168152602001908152602001600020600901600281548110151561195357fe5b9060005260206000200160009054906101000a900473ffffffffffffffffffffffffffffffffffffffff16846002600460018501020181518110151561199557fe5b9060200190602002019073ffffffffffffffffffffffffffffffffffffffff16908173ffffffffffffffffffffffffffffffffffffffff16815250506008600085838151811015156119e357fe5b9060200190602002015173ffffffffffffffffffffffffffffffffffffffff1673ffffffffffffffffffffffffffffffffffffffff1681526020019081526020016000206009016003815481101515611a3857fe5b9060005260206000200160009054906101000a900473ffffffffffffffffffffffffffffffffffffffff168460036004600185010201815181101515611a7a57fe5b9060200190602002019073ffffffffffffffffffffffffffffffffffffffff16908173ffffffffffffffffffffffffffffffffffffffff1681525050611ade565b600091508381815181101515611acd57fe5b906020019060200201519250611aeb565b80806001019150506116b6565b5080151515611b62576040517f08c379a00000000000000000000000000000000000000000000000000000000081526004018080602001828103825260108152602001807f4e6f20467265652052656665727265720000000000000000000000000000000081525060200191505060405180910390fd5b8193505050505b919050565b6000600354905090565b600a600860003373ffffffffffffffffffffffffffffffffffffffff1673ffffffffffffffffffffffffffffffffffffffff1681526020019081526020016000206006015410151515611c33576040517f08c379a000000000000000000000000000000000000000000000000000000000815260040180806020018281038252601a8152602001807f796f752063616e6e6f7420776974686472617720616d6f756e7400000000000081525060200191505060405180910390fd5b3373ffffffffffffffffffffffffffffffffffffffff1673ffffffffffffffffffffffffffffffffffffffff166108fc600a60003373ffffffffffffffffffffffffffffffffffffffff1673ffffffffffffffffffffffffffffffffffffffff168152602001908152602001600020600101549081150290604051600060405180830381858888f19350505050158015611cd1573d6000803e3d6000fd5b506000600a60003373ffffffffffffffffffffffffffffffffffffffff1673ffffffffffffffffffffffffffffffffffffffff16815260200190815260200160002060010181905550565b60055481565b60045481565b6060600860008373ffffffffffffffffffffffffffffffffffffffff1673ffffffffffffffffffffffffffffffffffffffff168152602001908152602001600020600901805480602002602001604051908101604052809291908181526020018280548015611dec57602002820191906000526020600020905b8160009054906101000a900473ffffffffffffffffffffffffffffffffffffffff1673ffffffffffffffffffffffffffffffffffffffff1681526020019060010190808311611da2575b50505050509050919050565b6060600a604051908082528060200260200182016040528015611e2a5781602001602082028038833980820191505090505b509050600060086000600b600086815260200190815260200160002060009054906101000a900473ffffffffffffffffffffffffffffffffffffffff1673ffffffffffffffffffffffffffffffffffffffff1673ffffffffffffffffffffffffffffffffffffffff16815260200190815260200160002060070154905060008090505b600a811015611fc7576000821415611ec457611fc7565b600b600083815260200190815260200160002060009054906101000a900473ffffffffffffffffffffffffffffffffffffffff168382815181101515611f0657fe5b9060200190602002019073ffffffffffffffffffffffffffffffffffffffff16908173ffffffffffffffffffffffffffffffffffffffff168152505060086000600b600085815260200190815260200160002060009054906101000a900473ffffffffffffffffffffffffffffffffffffffff1673ffffffffffffffffffffffffffffffffffffffff1673ffffffffffffffffffffffffffffffffffffffff1681526020019081526020016000206007015491508080600101915050611ead565b508160086000600b600087815260200190815260200160002060009054906101000a900473ffffffffffffffffffffffffffffffffffffffff1673ffffffffffffffffffffffffffffffffffffffff1673ffffffffffffffffffffffffffffffffffffffff168152602001908152602001600020600801908051906020019061205192919061518f565b50505050565b600a6020528060005260406000206000915090508060000154908060010154905082565b60035481565b6000809054906101000a900473ffffffffffffffffffffffffffffffffffffffff1673ffffffffffffffffffffffffffffffffffffffff163373ffffffffffffffffffffffffffffffffffffffff16141515612145576040517f08c379a00000000000000000000000000000000000000000000000000000000081526004018080602001828103825260118152602001807f796f7520617265206e6f74206f776e657200000000000000000000000000000081525060200191505060405180910390fd5b6000809054906101000a900473ffffffffffffffffffffffffffffffffffffffff1673ffffffffffffffffffffffffffffffffffffffff1673ffffffffffffffffffffffffffffffffffffffff166108fc6004549081150290604051600060405180830381858888f193505050501580156121c4573d6000803e3d6000fd5b506004546005600082825401925050819055506000600481905550565b60006001600860008473ffffffffffffffffffffffffffffffffffffffff1673ffffffffffffffffffffffffffffffffffffffff1681526020019081526020016000206006015401905060008111801561223c5750600a8111155b15156122b0576040517f08c379a000000000000000000000000000000000000000000000000000000000815260040180806020018281038252600f8152602001807f496e636f7272656374206c6576656c000000000000000000000000000000000081525060200191505060405180910390fd5b6007818154811015156122bf57fe5b9060005260206000200154600a60008473ffffffffffffffffffffffffffffffffffffffff1673ffffffffffffffffffffffffffffffffffffffff1681526020019081526020016000206001015410151515612383576040517f08c379a000000000000000000000000000000000000000000000000000000000815260040180806020018281038252600f8152602001807f496e636f72726563742056616c7565000000000000000000000000000000000081525060200191505060405180910390fd5b60006064601460078481548110151561239857fe5b9060005260206000200154028115156123ad57fe5b0490506000600860003373ffffffffffffffffffffffffffffffffffffffff1673ffffffffffffffffffffffffffffffffffffffff16815260200190815260200160002060010160009054906101000a900473ffffffffffffffffffffffffffffffffffffffff16905060648260140281151561242657fe5b048203600960008373ffffffffffffffffffffffffffffffffffffffff1673ffffffffffffffffffffffffffffffffffffffff16815260200190815260200160002060020160008282540192505081905550606482600a0281151561248757fe5b04600a60008373ffffffffffffffffffffffffffffffffffffffff1673ffffffffffffffffffffffffffffffffffffffff16815260200190815260200160002060000160008282540192505081905550606482600a028115156124e657fe5b04600a60008373ffffffffffffffffffffffffffffffffffffffff1673ffffffffffffffffffffffffffffffffffffffff16815260200190815260200160002060010160008282540192505081905550600860008573ffffffffffffffffffffffffffffffffffffffff1673ffffffffffffffffffffffffffffffffffffffff16815260200190815260200160002060010160009054906101000a900473ffffffffffffffffffffffffffffffffffffffff1673ffffffffffffffffffffffffffffffffffffffff1673ffffffffffffffffffffffffffffffffffffffff166108fc6064846014028115156125d757fe5b0484039081150290604051600060405180830381858888f19350505050158015612605573d6000803e3d6000fd5b5060648260140281151561261557fe5b04820360056000828254019250508190555060078381548110151561263657fe5b9060005260206000200154600a60008673ffffffffffffffffffffffffffffffffffffffff1673ffffffffffffffffffffffffffffffffffffffff168152602001908152602001600020600101600082825403925050819055506001600860008673ffffffffffffffffffffffffffffffffffffffff1673ffffffffffffffffffffffffffffffffffffffff168152602001908152602001600020600601600082825401925050819055506126ea83610e34565b8373ffffffffffffffffffffffffffffffffffffffff167f94ea718a6517c74ee4da32e6297595705048e7f1ca05b3133069c756cff40421846040518082815260200191505060405180910390a250505050565b60068181548110151561274d57fe5b906000526020600020016000915054906101000a900473ffffffffffffffffffffffffffffffffffffffff1681565b6000809054906101000a900473ffffffffffffffffffffffffffffffffffffffff1681565b6000600154905090565b60086020528060005260406000206000915090508060000154908060010160009054906101000a900473ffffffffffffffffffffffffffffffffffffffff169080600201549080600301549080600401549080600501549080600601549080600701549080600a0160009054906101000a900460ff169080600b015490508a565b60008060008060008060096000600b60008a815260200190815260200160002060009054906101000a900473ffffffffffffffffffffffffffffffffffffffff1673ffffffffffffffffffffffffffffffffffffffff1673ffffffffffffffffffffffffffffffffffffffff1681526020019081526020016000206000015460096000600b60008b815260200190815260200160002060009054906101000a900473ffffffffffffffffffffffffffffffffffffffff1673ffffffffffffffffffffffffffffffffffffffff1673ffffffffffffffffffffffffffffffffffffffff1681526020019081526020016000206001015460096000600b60008c815260200190815260200160002060009054906101000a900473ffffffffffffffffffffffffffffffffffffffff1673ffffffffffffffffffffffffffffffffffffffff1673ffffffffffffffffffffffffffffffffffffffff1681526020019081526020016000206002015460096000600b60008d815260200190815260200160002060009054906101000a900473ffffffffffffffffffffffffffffffffffffffff1673ffffffffffffffffffffffffffffffffffffffff1673ffffffffffffffffffffffffffffffffffffffff1681526020019081526020016000206003015460096000600b60008e815260200190815260200160002060009054906101000a900473ffffffffffffffffffffffffffffffffffffffff1673ffffffffffffffffffffffffffffffffffffffff1673ffffffffffffffffffffffffffffffffffffffff1681526020019081526020016000206004015460096000600b60008f815260200190815260200160002060009054906101000a900473ffffffffffffffffffffffffffffffffffffffff1673ffffffffffffffffffffffffffffffffffffffff1673ffffffffffffffffffffffffffffffffffffffff1681526020019081526020016000206005015495509550955095509550955091939550919395565b6000600960008373ffffffffffffffffffffffffffffffffffffffff1673ffffffffffffffffffffffffffffffffffffffff168152602001908152602001600020600001549050919050565b60096020528060005260406000206000915090508060000154908060010154908060020154908060030154908060040154908060050154905086565b600781815481101515612ba557fe5b906000526020600020016000915090505481565b60006064600254603202811515612bcc57fe5b04905060006064600254601e02811515612be257fe5b04905060006064600254601402811515612bf857fe5b049050606483601402811515612c0a57fe5b04830360096000600b60008a815260200190815260200160002060009054906101000a900473ffffffffffffffffffffffffffffffffffffffff1673ffffffffffffffffffffffffffffffffffffffff1673ffffffffffffffffffffffffffffffffffffffff16815260200190815260200160002060010160008282540192505081905550606482601402811515612c9e57fe5b04820360096000600b600089815260200190815260200160002060009054906101000a900473ffffffffffffffffffffffffffffffffffffffff1673ffffffffffffffffffffffffffffffffffffffff1673ffffffffffffffffffffffffffffffffffffffff16815260200190815260200160002060010160008282540192505081905550606481601402811515612d3257fe5b04810360096000600b600088815260200190815260200160002060009054906101000a900473ffffffffffffffffffffffffffffffffffffffff1673ffffffffffffffffffffffffffffffffffffffff1673ffffffffffffffffffffffffffffffffffffffff16815260200190815260200160002060010160008282540192505081905550600b600087815260200190815260200160002060009054906101000a900473ffffffffffffffffffffffffffffffffffffffff1673ffffffffffffffffffffffffffffffffffffffff1673ffffffffffffffffffffffffffffffffffffffff166108fc60096000600b60008b815260200190815260200160002060009054906101000a900473ffffffffffffffffffffffffffffffffffffffff1673ffffffffffffffffffffffffffffffffffffffff1673ffffffffffffffffffffffffffffffffffffffff168152602001908152602001600020600101549081150290604051600060405180830381858888f19350505050158015612ebb573d6000803e3d6000fd5b50600b600086815260200190815260200160002060009054906101000a900473ffffffffffffffffffffffffffffffffffffffff1673ffffffffffffffffffffffffffffffffffffffff1673ffffffffffffffffffffffffffffffffffffffff166108fc60096000600b60008a815260200190815260200160002060009054906101000a900473ffffffffffffffffffffffffffffffffffffffff1673ffffffffffffffffffffffffffffffffffffffff1673ffffffffffffffffffffffffffffffffffffffff168152602001908152602001600020600101549081150290604051600060405180830381858888f19350505050158015612fc0573d6000803e3d6000fd5b50600b600085815260200190815260200160002060009054906101000a900473ffffffffffffffffffffffffffffffffffffffff1673ffffffffffffffffffffffffffffffffffffffff1673ffffffffffffffffffffffffffffffffffffffff166108fc60096000600b600089815260200190815260200160002060009054906101000a900473ffffffffffffffffffffffffffffffffffffffff1673ffffffffffffffffffffffffffffffffffffffff1673ffffffffffffffffffffffffffffffffffffffff168152602001908152602001600020600101549081150290604051600060405180830381858888f193505050501580156130c5573d6000803e3d6000fd5b50600160086000600b60008a815260200190815260200160002060009054906101000a900473ffffffffffffffffffffffffffffffffffffffff1673ffffffffffffffffffffffffffffffffffffffff1673ffffffffffffffffffffffffffffffffffffffff16815260200190815260200160002060030160008282540192505081905550600160086000600b600089815260200190815260200160002060009054906101000a900473ffffffffffffffffffffffffffffffffffffffff1673ffffffffffffffffffffffffffffffffffffffff1673ffffffffffffffffffffffffffffffffffffffff16815260200190815260200160002060030160008282540192505081905550600160086000600b600088815260200190815260200160002060009054906101000a900473ffffffffffffffffffffffffffffffffffffffff1673ffffffffffffffffffffffffffffffffffffffff1673ffffffffffffffffffffffffffffffffffffffff1681526020019081526020016000206003016000828254019250508190555060096000600b600087815260200190815260200160002060009054906101000a900473ffffffffffffffffffffffffffffffffffffffff1673ffffffffffffffffffffffffffffffffffffffff1673ffffffffffffffffffffffffffffffffffffffff1681526020019081526020016000206001015460096000600b600089815260200190815260200160002060009054906101000a900473ffffffffffffffffffffffffffffffffffffffff1673ffffffffffffffffffffffffffffffffffffffff1673ffffffffffffffffffffffffffffffffffffffff1681526020019081526020016000206001015460096000600b60008b815260200190815260200160002060009054906101000a900473ffffffffffffffffffffffffffffffffffffffff1673ffffffffffffffffffffffffffffffffffffffff1673ffffffffffffffffffffffffffffffffffffffff1681526020019081526020016000206001015401016005600082825401925050819055506000600281905550600060086000600b60008a815260200190815260200160002060009054906101000a900473ffffffffffffffffffffffffffffffffffffffff1673ffffffffffffffffffffffffffffffffffffffff1673ffffffffffffffffffffffffffffffffffffffff16815260200190815260200160002060010160009054906101000a900473ffffffffffffffffffffffffffffffffffffffff169050600060086000600b60008a815260200190815260200160002060009054906101000a900473ffffffffffffffffffffffffffffffffffffffff1673ffffffffffffffffffffffffffffffffffffffff1673ffffffffffffffffffffffffffffffffffffffff16815260200190815260200160002060010160009054906101000a900473ffffffffffffffffffffffffffffffffffffffff169050600060086000600b60008a815260200190815260200160002060009054906101000a900473ffffffffffffffffffffffffffffffffffffffff1673ffffffffffffffffffffffffffffffffffffffff1673ffffffffffffffffffffffffffffffffffffffff16815260200190815260200160002060010160009054906101000a900473ffffffffffffffffffffffffffffffffffffffff169050606486600a028115156135aa57fe5b04600a60008573ffffffffffffffffffffffffffffffffffffffff1673ffffffffffffffffffffffffffffffffffffffff16815260200190815260200160002060000160008282540192505081905550606485600a0281151561360957fe5b04600a60008473ffffffffffffffffffffffffffffffffffffffff1673ffffffffffffffffffffffffffffffffffffffff16815260200190815260200160002060000160008282540192505081905550606484600a0281151561366857fe5b04600a60008373ffffffffffffffffffffffffffffffffffffffff1673ffffffffffffffffffffffffffffffffffffffff16815260200190815260200160002060000160008282540192505081905550606486600a028115156136c757fe5b04600a60008573ffffffffffffffffffffffffffffffffffffffff1673ffffffffffffffffffffffffffffffffffffffff16815260200190815260200160002060010160008282540192505081905550606485600a0281151561372657fe5b04600a60008473ffffffffffffffffffffffffffffffffffffffff1673ffffffffffffffffffffffffffffffffffffffff16815260200190815260200160002060010160008282540192505081905550606484600a0281151561378557fe5b04600a60008373ffffffffffffffffffffffffffffffffffffffff1673ffffffffffffffffffffffffffffffffffffffff1681526020019081526020016000206001016000828254019250508190555060076001600860008573ffffffffffffffffffffffffffffffffffffffff1673ffffffffffffffffffffffffffffffffffffffff168152602001908152602001600020600601540181548110151561382957fe5b9060005260206000200154600a60008473ffffffffffffffffffffffffffffffffffffffff1673ffffffffffffffffffffffffffffffffffffffff16815260200190815260200160002060010154101580156138c75750600a600860008473ffffffffffffffffffffffffffffffffffffffff1673ffffffffffffffffffffffffffffffffffffffff16815260200190815260200160002060060154105b156138d6576138d5826121e1565b5b60076001600860008473ffffffffffffffffffffffffffffffffffffffff1673ffffffffffffffffffffffffffffffffffffffff168152602001908152602001600020600601540181548110151561392a57fe5b9060005260206000200154600a60008373ffffffffffffffffffffffffffffffffffffffff1673ffffffffffffffffffffffffffffffffffffffff16815260200190815260200160002060010154101580156139c85750600a600860008373ffffffffffffffffffffffffffffffffffffffff1673ffffffffffffffffffffffffffffffffffffffff16815260200190815260200160002060060154105b156139d7576139d6816121e1565b5b505050505050505050565b600760008154811015156139f257fe5b9060005260206000200154600a60008373ffffffffffffffffffffffffffffffffffffffff1673ffffffffffffffffffffffffffffffffffffffff16815260200190815260200160002060000154101515613dba5760076000815481101515613a5757fe5b9060005260206000200154600a60008373ffffffffffffffffffffffffffffffffffffffff1673ffffffffffffffffffffffffffffffffffffffff168152602001908152602001600020600001600082825403925050819055506001600860008373ffffffffffffffffffffffffffffffffffffffff1673ffffffffffffffffffffffffffffffffffffffff1681526020019081526020016000206004016000828254019250508190555060006064605060076000815481101515613b1857fe5b906000526020600020015402811515613b2d57fe5b0490506000600860008473ffffffffffffffffffffffffffffffffffffffff1673ffffffffffffffffffffffffffffffffffffffff16815260200190815260200160002060010160009054906101000a900473ffffffffffffffffffffffffffffffffffffffff169050606460148302811515613ba657fe5b048203600960008373ffffffffffffffffffffffffffffffffffffffff1673ffffffffffffffffffffffffffffffffffffffff168152602001908152602001600020600301600082825401925050819055506064600a8302811515613c0757fe5b04600a60008373ffffffffffffffffffffffffffffffffffffffff1673ffffffffffffffffffffffffffffffffffffffff168152602001908152602001600020600001600082825401925050819055506064600a8302811515613c6657fe5b04600a60008373ffffffffffffffffffffffffffffffffffffffff1673ffffffffffffffffffffffffffffffffffffffff168152602001908152602001600020600101600082825401925050819055508073ffffffffffffffffffffffffffffffffffffffff1673ffffffffffffffffffffffffffffffffffffffff166108fc606460148502811515613cf557fe5b0484039081150290604051600060405180830381858888f19350505050158015613d23573d6000803e3d6000fd5b50606460148302811515613d3357fe5b0482036005600082825401925050819055506064600a60076000815481101515613d5957fe5b906000526020600020015402811515613d6e57fe5b046002600082825401925050819055506064600a60076000815481101515613d9257fe5b906000526020600020015402811515613da757fe5b0460036000828254019250508190555050505b50565b60015481565b6000806000806000806000613dd6615219565b60086000600b60008c815260200190815260200160002060009054906101000a900473ffffffffffffffffffffffffffffffffffffffff1673ffffffffffffffffffffffffffffffffffffffff1673ffffffffffffffffffffffffffffffffffffffff1681526020019081526020016000206101806040519081016040529081600082015481526020016001820160009054906101000a900473ffffffffffffffffffffffffffffffffffffffff1673ffffffffffffffffffffffffffffffffffffffff1673ffffffffffffffffffffffffffffffffffffffff16815260200160028201548152602001600382015481526020016004820154815260200160058201548152602001600682015481526020016007820154815260200160088201805480602002602001604051908101604052809291908181526020018280548015613f7657602002820191906000526020600020905b8160009054906101000a900473ffffffffffffffffffffffffffffffffffffffff1673ffffffffffffffffffffffffffffffffffffffff1681526020019060010190808311613f2c575b505050505081526020016009820180548060200260200160405190810160405280929190818152602001828054801561400457602002820191906000526020600020905b8160009054906101000a900473ffffffffffffffffffffffffffffffffffffffff1673ffffffffffffffffffffffffffffffffffffffff1681526020019060010190808311613fba575b50505050508152602001600a820160009054906101000a900460ff16151515158152602001600b82015481525050905080602001518160400151826080015183606001518460a001518560c00151866101600151975097509750975097509750975050919395979092949650565b6000600254905090565b6000600554905090565b60008190506140c933600b600085815260200190815260200160002060009054906101000a900473ffffffffffffffffffffffffffffffffffffffff1634614a9a565b600080839050600460086000600b600088815260200190815260200160002060009054906101000a900473ffffffffffffffffffffffffffffffffffffffff1673ffffffffffffffffffffffffffffffffffffffff1673ffffffffffffffffffffffffffffffffffffffff168152602001908152602001600020600901805490501015156141d55761418d600b600086815260200190815260200160002060009054906101000a900473ffffffffffffffffffffffffffffffffffffffff16611303565b9150600860008373ffffffffffffffffffffffffffffffffffffffff1673ffffffffffffffffffffffffffffffffffffffff1681526020019081526020016000206000015490505b60086000600b600084815260200190815260200160002060009054906101000a900473ffffffffffffffffffffffffffffffffffffffff1673ffffffffffffffffffffffffffffffffffffffff1673ffffffffffffffffffffffffffffffffffffffff1681526020019081526020016000206009013390806001815401808255809150509060018203906000526020600020016000909192909190916101000a81548173ffffffffffffffffffffffffffffffffffffffff021916908373ffffffffffffffffffffffffffffffffffffffff1602179055505080600860003373ffffffffffffffffffffffffffffffffffffffff1673ffffffffffffffffffffffffffffffffffffffff1681526020019081526020016000206007018190555060086000600b600086815260200190815260200160002060009054906101000a900473ffffffffffffffffffffffffffffffffffffffff1673ffffffffffffffffffffffffffffffffffffffff1673ffffffffffffffffffffffffffffffffffffffff1681526020019081526020016000206002016000815480929190600101919050555050505050565b600860003373ffffffffffffffffffffffffffffffffffffffff1673ffffffffffffffffffffffffffffffffffffffff1681526020019081526020016000206006015481111515614439576040517f08c379a00000000000000000000000000000000000000000000000000000000081526004018080602001828103825260178152602001807f416c726561647920707572636861736564206c6576656c00000000000000000081525060200191505060405180910390fd5b600860003373ffffffffffffffffffffffffffffffffffffffff1673ffffffffffffffffffffffffffffffffffffffff168152602001908152602001600020600a0160009054906101000a900460ff1615156144fd576040517f08c379a000000000000000000000000000000000000000000000000000000000815260040180806020018281038252600e8152602001807f55736572206e6f7420657869737400000000000000000000000000000000000081525060200191505060405180910390fd5b60008111801561450e5750600a8111155b1515614582576040517f08c379a000000000000000000000000000000000000000000000000000000000815260040180806020018281038252600f8152602001807f496e636f7272656374206c6576656c000000000000000000000000000000000081525060200191505060405180910390fd5b60078181548110151561459157fe5b906000526020600020015434141515614612576040517f08c379a000000000000000000000000000000000000000000000000000000000815260040180806020018281038252600f8152602001807f496e636f72726563742056616c7565000000000000000000000000000000000081525060200191505060405180910390fd5b60018103600860003373ffffffffffffffffffffffffffffffffffffffff1673ffffffffffffffffffffffffffffffffffffffff168152602001908152602001600020600601541415156146f4576040517f08c379a00000000000000000000000000000000000000000000000000000000081526004018080602001828103825260288152602001807f596f7520686176656e2774207075726368617365642070726576696f7573206c81526020017f6576656c2079657400000000000000000000000000000000000000000000000081525060400191505060405180910390fd5b60006064601460078481548110151561470957fe5b90600052602060002001540281151561471e57fe5b0490506000600860003373ffffffffffffffffffffffffffffffffffffffff1673ffffffffffffffffffffffffffffffffffffffff16815260200190815260200160002060010160009054906101000a900473ffffffffffffffffffffffffffffffffffffffff16905060648260140281151561479757fe5b048203600960008373ffffffffffffffffffffffffffffffffffffffff1673ffffffffffffffffffffffffffffffffffffffff16815260200190815260200160002060020160008282540192505081905550606482600a028115156147f857fe5b04600a60008373ffffffffffffffffffffffffffffffffffffffff1673ffffffffffffffffffffffffffffffffffffffff16815260200190815260200160002060000160008282540192505081905550606482600a0281151561485757fe5b04600a60008373ffffffffffffffffffffffffffffffffffffffff1673ffffffffffffffffffffffffffffffffffffffff16815260200190815260200160002060010160008282540192505081905550600860003373ffffffffffffffffffffffffffffffffffffffff1673ffffffffffffffffffffffffffffffffffffffff16815260200190815260200160002060010160009054906101000a900473ffffffffffffffffffffffffffffffffffffffff1673ffffffffffffffffffffffffffffffffffffffff1673ffffffffffffffffffffffffffffffffffffffff166108fc60648460140281151561494857fe5b0484039081150290604051600060405180830381858888f19350505050158015614976573d6000803e3d6000fd5b5060648260140281151561498657fe5b048203600560008282540192505081905550600a6001600860003373ffffffffffffffffffffffffffffffffffffffff1673ffffffffffffffffffffffffffffffffffffffff16815260200190815260200160002060060154011015614a38576001600860003373ffffffffffffffffffffffffffffffffffffffff1673ffffffffffffffffffffffffffffffffffffffff168152602001908152602001600020600601600082825401925050819055505b614a4183610e34565b3373ffffffffffffffffffffffffffffffffffffffff167f94ea718a6517c74ee4da32e6297595705048e7f1ca05b3133069c756cff40421846040518082815260200191505060405180910390a2505050565b60025481565b6000600860008573ffffffffffffffffffffffffffffffffffffffff1673ffffffffffffffffffffffffffffffffffffffff16815260200190815260200160002060000154141515614b54576040517f08c379a00000000000000000000000000000000000000000000000000000000081526004018080602001828103825260178152602001807f557365722061726c65616479207265676973746572656400000000000000000081525060200191505060405180910390fd5b6000600860008473ffffffffffffffffffffffffffffffffffffffff1673ffffffffffffffffffffffffffffffffffffffff1681526020019081526020016000206000015414151515614c0f576040517f08c379a00000000000000000000000000000000000000000000000000000000081526004018080602001828103825260168152602001807f496e7669746572206e6f7420726567697374657265640000000000000000000081525060200191505060405180910390fd5b60076000815481101515614c1f57fe5b90600052602060002001548110151515614ca1576040517f08c379a00000000000000000000000000000000000000000000000000000000081526004018080602001828103825260128152602001807f496e73756666696369656e742066756e6473000000000000000000000000000081525060200191505060405180910390fd5b6064600a60076000815481101515614cb557fe5b906000526020600020015402811515614cca57fe5b046002600082825401925050819055506064600a60076000815481101515614cee57fe5b906000526020600020015402811515614d0357fe5b0460036000828254019250508190555060006064605060076000815481101515614d2957fe5b906000526020600020015402811515614d3e57fe5b049050606460148202811515614d5057fe5b048103600960008573ffffffffffffffffffffffffffffffffffffffff1673ffffffffffffffffffffffffffffffffffffffff168152602001908152602001600020600001600082825401925050819055506064600a8202811515614db157fe5b04600a60008573ffffffffffffffffffffffffffffffffffffffff1673ffffffffffffffffffffffffffffffffffffffff168152602001908152602001600020600001600082825401925050819055506064600a8202811515614e1057fe5b04600a60008573ffffffffffffffffffffffffffffffffffffffff1673ffffffffffffffffffffffffffffffffffffffff16815260200190815260200160002060010160008282540192505081905550600860008473ffffffffffffffffffffffffffffffffffffffff1673ffffffffffffffffffffffffffffffffffffffff168152602001908152602001600020600501600081548092919060010191905055508273ffffffffffffffffffffffffffffffffffffffff1673ffffffffffffffffffffffffffffffffffffffff166108fc606460148402811515614ef157fe5b0483039081150290604051600060405180830381858888f19350505050158015614f1f573d6000803e3d6000fd5b50606460148202811515614f2f57fe5b048103600560008282540192505081905550614f4b8484614f51565b50505050565b600160008154809291906001019190505550600154600860008473ffffffffffffffffffffffffffffffffffffffff1673ffffffffffffffffffffffffffffffffffffffff1681526020019081526020016000206000018190555080600860008473ffffffffffffffffffffffffffffffffffffffff1673ffffffffffffffffffffffffffffffffffffffff16815260200190815260200160002060010160006101000a81548173ffffffffffffffffffffffffffffffffffffffff021916908373ffffffffffffffffffffffffffffffffffffffff16021790555081600b6000600154815260200190815260200160002060006101000a81548173ffffffffffffffffffffffffffffffffffffffff021916908373ffffffffffffffffffffffffffffffffffffffff1602179055506001600860008473ffffffffffffffffffffffffffffffffffffffff1673ffffffffffffffffffffffffffffffffffffffff168152602001908152602001600020600a0160006101000a81548160ff0219169083151502179055506000600860003373ffffffffffffffffffffffffffffffffffffffff1673ffffffffffffffffffffffffffffffffffffffff168152602001908152602001600020600601819055508073ffffffffffffffffffffffffffffffffffffffff168273ffffffffffffffffffffffffffffffffffffffff167fcc0bec1447060c88cdc5a739cf29cfa26c453574dd3f5b9e4dcc317d6401cb1c6001546040518082815260200191505060405180910390a35050565b828054828255906000526020600020908101928215615208579160200282015b828111156152075782518260006101000a81548173ffffffffffffffffffffffffffffffffffffffff021916908373ffffffffffffffffffffffffffffffffffffffff160217905550916020019190600101906151af565b5b5090506152159190615293565b5090565b6101806040519081016040528060008152602001600073ffffffffffffffffffffffffffffffffffffffff1681526020016000815260200160008152602001600081526020016000815260200160008152602001600081526020016060815260200160608152602001600015158152602001600081525090565b6152d391905b808211156152cf57600081816101000a81549073ffffffffffffffffffffffffffffffffffffffff021916905550600101615299565b5090565b9056fea165627a7a723058202f5645893cb8fae293202854dc62512a4254fc245ba9144ce17c792c2112ca520029",
  "source": "//SPDX-License-Identifier: UNLICENSED\npragma solidity >=0.5.1;\n\ncontract MLM {\n    address public ownerWallet;\n    uint256 public totalUsers;\n    uint256 public rewardWallet;\n    uint256 public levelRewardWallet;\n    uint256 public distributionWallet;\n    uint256 public totalAmountDistributed;\n    address[] public levelWinners;\n    \n    struct User {\n        uint256 id;\n        address inviter;\n        uint256 totalReferals;\n        uint256 totalWins;\n        uint256 totalRecycles;\n        uint256 dailyReferrals;\n        uint256 levelsPurchased;\n        uint256 upline;\n        address[] uplines;\n        address[] referral;\n        bool isExist;\n        uint256 loss;\n    }\n \n    struct UserIncomes{\n        uint256 directIncome;\n        uint256 rewardIncome;\n        uint256 levelIncome;\n        uint256 recycleIncome;\n        uint256 upgradeIncome;\n        uint256 levelRewardIncome;\n    }\n \n    struct UserFunds{\n        uint256 recycleFund;\n        uint256 levelFund;\n    }\n\n\n    uint256[] public levels;\n   \n    mapping(address => User) public users;\n    mapping(address => UserIncomes) public usersIncomes;\n    mapping(address => UserFunds) public usersFund;\n    // mapping(address => UserLevels) public userLevels;\n\n    mapping(uint256 => address) public users_ids;\n    \n    event Register(address indexed addr, address indexed inviter, uint256 id);\n    event BuyLevel(\n        address indexed addr,\n        address indexed upline,\n        uint8 level\n    );\n    event buyLevelEvent(address indexed _user, uint256 _level);\n\n    constructor() public{\n        totalUsers = 0;\n        ownerWallet = msg.sender;\n        levels.push(0.05 ether);\n        levels.push(0.01 ether);\n        levels.push(0.02 ether);\n        levels.push(0.03 ether);\n        levels.push(0.04 ether);\n        levels.push(0.05 ether);\n        levels.push(0.06 ether);\n        levels.push(0.07 ether);\n        levels.push(0.08 ether);\n        levels.push(0.09 ether);\n        levels.push(0.10 ether);\n        newUser(msg.sender, address(0));\n        users[msg.sender].levelsPurchased = 10;\n        users[msg.sender].referral= new address[](0);\n        users[msg.sender].upline = 0;\n        users[msg.sender].uplines = new address[](0);\n    }\n\n    function newUser(address _addr, address _inviter) private {\n        totalUsers++;\n        users[_addr].id = totalUsers;\n        users[_addr].inviter = _inviter;\n        users_ids[totalUsers] = _addr;\n        users[_addr].isExist = true;\n        \n        users[msg.sender].levelsPurchased = 0;\n        emit Register(_addr, _inviter, totalUsers);\n\n    }\n\n    function _register(\n        address _user,\n        address _inviter,\n        uint256 _value\n    ) private {\n        require(users[_user].id == 0, \"User arleady registered\");\n        require(users[_inviter].id != 0, \"Inviter not registered\");\n        require(_value >= levels[0], \"Insufficient funds\");\n\n        \n        rewardWallet += (levels[0] * 10) / 100;\n        levelRewardWallet += (levels[0] * 10) / 100;\n\n        uint256 referalMoney = (levels[0] * 80) / 100;\n        usersIncomes[_inviter].directIncome += (referalMoney - (referalMoney * 20) / 100);\n        usersFund[_inviter].recycleFund += (referalMoney * 10) / 100;\n        usersFund[_inviter].levelFund += (referalMoney * 10) / 100;\n        \n        // if(usersIncomes[_inviter].recycleFund>=levels[0])\n        // recycleId(_inviter);\n        \n        // if((usersIncomes[_inviter].levelFund>=levels[users[_inviter].levelsPurchased+1]) && users[_inviter].levelsPurchased < 10)\n        // autoBuyLevel(_inviter);\n        \n        users[_inviter].dailyReferrals++;\n        address(uint256(_inviter)).transfer(referalMoney - (referalMoney * 20) / 100);\n\n        totalAmountDistributed += (referalMoney - (referalMoney * 20) / 100);\n        \n        newUser(_user, _inviter);\n    }\n\n    function register(uint256  _inviter_id) external payable {\n        uint256 tempReferrerID = _inviter_id;\n        _register(msg.sender, users_ids[_inviter_id], msg.value);\n        address add;\n        uint256 id = _inviter_id;\n        if(users[users_ids[_inviter_id]].referral.length >= 4) {\n            add = findFreeReferrer(users_ids[_inviter_id]);\n            id = users[add].id;\n        }\n        // if(userLevels[users_ids[id]].level1<4){\n        //     userLevels[users_ids[id]].level1++;\n        //     if( userLevels[users_ids[id]].level1==4){\n        //         levelWinners.push(id);\n        //     }\n        // }\n\n        // else if(userLevels[users_ids[id]].level1>=4 && userLevels[users_ids[id]].level2<16){\n        //     userLevels[users_ids[id]].level2++;\n        //     if( userLevels[users_ids[id]].level2==16){\n        //         levelWinners.push(id);\n        //     }\n        // }\n\n        // else if(userLevels[users_ids[id]].level2>=16 && userLevels[users_ids[id]].level3<64){\n        //     userLevels[users_ids[id]].level3++;\n        //     if( userLevels[users_ids[id]].level3==64){\n        //         levelWinners.push(id);\n        //     }\n        // }\n        users[users_ids[id]].referral.push(msg.sender);\n        users[msg.sender].upline =id;\n        users[users_ids[tempReferrerID]].totalReferals++;\n    }\n\n    function buyLevel(uint256 _level) public payable {\n        require( _level > users[msg.sender].levelsPurchased,\"Already purchased level\" );\n        require(users[msg.sender].isExist, \"User not exist\");\n        require(_level > 0 && _level <= 10, \"Incorrect level\");\n        require(msg.value == levels[_level], \"Incorrect Value\");\n        require( users[msg.sender].levelsPurchased == _level - 1,\"You haven't purchased previous level yet\");\n      \n        uint256 upgradeAmount = (levels[_level] * 20) / 100;\n        address _inviter = users[msg.sender].inviter;\n        usersIncomes[_inviter].levelIncome += (upgradeAmount -(20 * upgradeAmount) / 100);\n        usersFund[_inviter].recycleFund +=(10 * upgradeAmount) /100;\n        usersFund[_inviter].levelFund += (10 * upgradeAmount) / 100;\n        // if(usersIncomes[_inviter].recycleFund>=levels[0])\n        // recycleId(_inviter);\n        \n        // if((usersIncomes[_inviter].levelFund>=levels[users[_inviter].levelsPurchased+1]) && users[_inviter].levelsPurchased < 10)\n        // autoBuyLevel(_inviter);\n\n        address(uint256(users[msg.sender].inviter)).transfer(\n            upgradeAmount - (20 * upgradeAmount) / 100\n        );\n\n        totalAmountDistributed += (upgradeAmount - (20 * upgradeAmount) / 100);\n\n        if (users[msg.sender].levelsPurchased + 1 < 10)\n            users[msg.sender].levelsPurchased += 1;\n\n        distributeLevelUpgradeAmount(_level);\n       \n        emit buyLevelEvent(msg.sender, _level);\n    }\n\n    function autoBuyLevel(address _user) public {\n\n        uint256 _level = users[_user].levelsPurchased + 1;\n        require(_level > 0 && _level <= 10, \"Incorrect level\");\n        require( usersFund[_user].levelFund >= levels[_level],\"Incorrect Value\");\n     \n        uint256 upgradeAmount = (levels[_level] * 20) / 100;\n        address _inviter= users[msg.sender].inviter;\n        usersIncomes[_inviter].levelIncome += (upgradeAmount -(20 * upgradeAmount) /100);\n        usersFund[_inviter].recycleFund +=(10 * upgradeAmount) /100;\n        usersFund[_inviter].levelFund +=(10 * upgradeAmount) /100;\n        \n        // if(usersIncomes[_inviter].recycleFund>=levels[0])\n        // recycleId(_inviter);\n        \n        // if((usersIncomes[_inviter].levelFund>=levels[users[_inviter].levelsPurchased+1]) && users[_inviter].levelsPurchased < 10)\n        // autoBuyLevel(_inviter);\n\n        address(uint256(users[_user].inviter)).transfer(\n            (upgradeAmount - (20 * upgradeAmount) / 100)\n        );\n\n        totalAmountDistributed += (upgradeAmount - (20 * upgradeAmount) / 100);\n        usersFund[_user].levelFund -= levels[_level];\n        users[_user].levelsPurchased += 1;\n\n         //level distribution is done\n        distributeLevelUpgradeAmount(_level);\n\n        emit buyLevelEvent(_user, _level);\n    }\n\n    function recycleId(address _user) public {\n        if(usersFund[_user].recycleFund >= levels[0]){\n            usersFund[_user].recycleFund -= levels[0];\n            users[_user].totalRecycles+=1;\n\n            uint256 referalMoney = (levels[0] * 80) / 100;\n\n            address _inviter = users[_user].inviter;\n            usersIncomes[_inviter].recycleIncome += (referalMoney -(referalMoney * 20) /100);\n            usersFund[_inviter].recycleFund += (referalMoney * 10) / 100;\n            usersFund[_inviter].levelFund += (referalMoney * 10) / 100;\n\n            address(uint256(_inviter)).transfer(referalMoney - (referalMoney * 20) / 100);\n            totalAmountDistributed += (referalMoney -(referalMoney * 20) /100);\n\n            rewardWallet += (levels[0] * 10) / 100;\n            levelRewardWallet += (levels[0] * 10) / 100;\n            \n            // if(usersIncomes[_inviter].recycleFund>=levels[0])\n            // recycleId(_inviter);\n        \n            // if((usersIncomes[_inviter].levelFund>=levels[users[_inviter].levelsPurchased+1]) && users[_inviter].levelsPurchased < 10)\n            // autoBuyLevel(_inviter);\n        }\n    }\n\n    function distributeReward(\n        uint256 _winner1,\n        uint256 _winner2,\n        uint256 _winner3\n    ) public {\n     \n        uint256 first = (50 * rewardWallet) / 100;\n        uint256 second = (30 * rewardWallet) / 100;\n        uint256 third = (20 * rewardWallet) / 100;\n\n        usersIncomes[users_ids[_winner1]].rewardIncome += (first - (20 * first) / 100);\n        usersIncomes[users_ids[_winner2]].rewardIncome += (second - (20 * second) / 100);\n        usersIncomes[users_ids[_winner3]].rewardIncome += (third - (20 * third) / 100);\n\n        address(uint256(users_ids[_winner1])).transfer(usersIncomes[users_ids[_winner1]].rewardIncome);\n        address(uint256(users_ids[_winner2])).transfer(usersIncomes[users_ids[_winner2]].rewardIncome);\n        address(uint256(users_ids[_winner3])).transfer(usersIncomes[users_ids[_winner3]].rewardIncome);\n\n        users[users_ids[_winner1]].totalWins += 1;\n        users[users_ids[_winner2]].totalWins += 1;\n        users[users_ids[_winner3]].totalWins += 1;\n\n        totalAmountDistributed += (usersIncomes[users_ids[_winner1]].rewardIncome + \n        usersIncomes[users_ids[_winner2]].rewardIncome + usersIncomes[users_ids[_winner3]].rewardIncome);\n\n        rewardWallet = 0;\n        \n        address _inviter1 = users[users_ids[_winner1]].inviter;\n        address _inviter2 = users[users_ids[_winner2]].inviter;\n        address _inviter3 = users[users_ids[_winner3]].inviter;\n        \n        usersFund[_inviter1].recycleFund += (10 * first) / 100;\n        usersFund[_inviter2].recycleFund += (10 * second) / 100;\n        usersFund[_inviter3].recycleFund += (10 * third) / 100;\n\n        usersFund[_inviter1].levelFund += (10 * first) / 100;\n        usersFund[_inviter2].levelFund += (10 * second) / 100;\n        usersFund[_inviter3].levelFund += (10 * third) / 100;\n\n        // if(usersIncomes[_inviter1].recycleFund>=levels[0])\n        // recycleId(_inviter2);\n        \n        // if((usersIncomes[_inviter1].levelFund >= levels[users[_inviter1].levelsPurchased+1]) && (users[_inviter1].levelsPurchased < 10))\n        // autoBuyLevel(_inviter1);\n\n        // if(usersIncomes[_inviter2].recycleFund>=levels[0])\n        // recycleId(_inviter2);\n        \n        if((usersFund[_inviter2].levelFund >= levels[users[_inviter2].levelsPurchased+1]) && (users[_inviter2].levelsPurchased < 10))\n        autoBuyLevel(_inviter2);\n\n        // if(usersIncomes[_inviter3].recycleFund>=levels[0])\n        // recycleId(_inviter3);\n        \n        if((usersFund[_inviter3].levelFund >= levels[users[_inviter3].levelsPurchased+1]) && (users[_inviter3].levelsPurchased < 10))\n        autoBuyLevel(_inviter3);\n\n    }\n\n\n    // function distributeLevelReward() public{\n    //     uint256 totalprice = levelRewardWallet/levelWinners.length;\n    //     uint256 price = totalprice - (20*totalprice)/100;\n    //     uint256 recyclePrice = (10*totalprice)/100;\n    //     uint256 levelPrice = (10*totalprice)/100;\n    //     for(uint256 i=0;i<levelWinners.length;i++){\n    //         address(uint256(users_ids[levelWinners[i]])).transfer(price);\n    //         usersIncomes[users_ids[levelWinners[i]]].levelRewardIncome += price;\n    //         address _inviter = users[users_ids[levelWinners[i]]].inviter;\n            \n    //         usersIncomes[_inviter].recycleFund += recyclePrice;\n    //         usersIncomes[_inviter].levelFund += levelPrice;\n            \n    //         // if(usersIncomes[_inviter].recycleFund>=levels[0])\n    //         // recycleId(_inviter);\n            \n    //         // if((usersIncomes[_inviter].levelFund >= levels[users[_inviter].levelsPurchased+1]) && (users[_inviter].levelsPurchased < 10))\n    //         // autoBuyLevel(_inviter);\n    //     }\n    //     totalAmountDistributed += price*levelWinners.length;\n    //     delete levelWinners;\n    // }\n\n    function distributeLevelUpgradeAmount(uint256 _level) public{\n        uint256 x = (levels[_level]*8)/100;\n        uint256 y = (20*x)/100;\n        uint256 price = (x-y);\n        setUplines(users[msg.sender].id);\n        address[] memory uplines = new address[](10);\n        uplines = users[msg.sender].uplines;\n        for(uint256 i=0;i<10;i++){\n            if(uplines[i]==address(0))\n            {\n                //some changes needed\n                distributionWallet += price; \n                break;\n            }\n            else if(users[uplines[i]].levelsPurchased>=(i+1)){\n                usersIncomes[uplines[i]].upgradeIncome += price;\n\n                usersFund[uplines[i]].recycleFund += (10*x)/100;\n                usersFund[uplines[i]].levelFund += (10*x)/100;\n                \n                // if(usersIncomes[users_ids[uplines[i]]].recycleFund>=levels[0])\n                // recycleId(users[users_ids[uplines[i]]].inviter);\n                \n                // if((usersIncomes[users_ids[user.upline]].levelFund >= levels[users[users_ids[user.upline]].levelsPurchased+1]) && (users[users_ids[user.uplines[i]]].levelsPurchased < 10))\n                // autoBuyLevel(users[users_ids[user.uplines[i]]].inviter);\n                \n                address(uint256(uplines[i])).transfer(price);\n                totalAmountDistributed += price;\n                \n            }\n\n            else{\n                users[uplines[i]].loss += price;\n                distributionWallet += price; \n            }\n           \n        }\n    }\n    \n    function getTotalAmountWithdrawn() public view returns (uint256) {\n        return totalAmountDistributed;\n    }\n\n    function getTotalUsers() public view returns (uint256) {\n        return totalUsers;\n    }\n\n    function getRewardWallet()public view returns (uint256) {\n        return rewardWallet;\n    }\n    function getLevelRewardWallet() public view returns (uint256) {\n        return levelRewardWallet;\n    }\n\n    function getDirectIncome(address _add) public view returns (uint256){\n        return usersIncomes[_add].directIncome;\n    }\n\n   function getUserInfo(uint256 _id)\n        public\n        view\n        returns (\n        address inviter,\n        uint256 totalReferals,\n        uint256 totalRecycles,\n        uint256 totalWins,\n        uint256 dailyReferrals,\n        uint256 levelsPurchased,\n        uint256 loss\n        )\n    {\n        User memory user = users[users_ids[_id]];\n        return (\n            user.inviter,\n            user.totalReferals,\n            user.totalRecycles,\n            user.totalWins,\n            user.dailyReferrals,\n            user.levelsPurchased,\n            user.loss\n        );\n    }\n    \n    function getUsersIncomes(uint256 _id) public view returns (\n        uint256 directIncome,\n        uint256 rewardIncome,\n        uint256 levelIncome,\n        uint256 recycleIncome,\n        uint256 upgradeIncome,\n        uint256 levelRewardIncome\n        )\n        {\n        return (\n            usersIncomes[users_ids[_id]].directIncome,\n            usersIncomes[users_ids[_id]].rewardIncome,\n            usersIncomes[users_ids[_id]].levelIncome,\n            usersIncomes[users_ids[_id]].recycleIncome,\n            usersIncomes[users_ids[_id]].upgradeIncome,\n            usersIncomes[users_ids[_id]].levelRewardIncome\n            );\n    }\n\n    function getUsersFunds(uint256 _id) public view returns(\n        uint256 recycleFund,\n        uint256 levelFund\n    ){\n        return (\n            usersFund[users_ids[_id]].recycleFund,\n            usersFund[users_ids[_id]].levelFund\n        );\n    }\n    function withDrawlevelFund() public {\n        require(users[msg.sender].levelsPurchased >= 10, \"you cannot withdraw amount\");\n\n        address(uint256(msg.sender)).transfer(\n            usersFund[msg.sender].levelFund\n        );\n\n        usersFund[msg.sender].levelFund = 0;\n    }\n   \n    function withdrawDistributionWallet() public{\n        require(msg.sender == ownerWallet,\"you are not owner\");\n        address(uint256(ownerWallet)).transfer(distributionWallet);\n        totalAmountDistributed += distributionWallet;\n        distributionWallet = 0;\n    }\n    function findFreeReferrer(address _user) public view returns(address) {\n        if(users[_user].referral.length < 4) return _user;\n\n        address[] memory referrals = new address[](20000);\n        referrals[0] = users[_user].referral[0];\n        referrals[1] = users[_user].referral[1];\n        referrals[2] = users[_user].referral[2];\n        referrals[3] = users[_user].referral[3];\n\n        address freeReferrer;\n        bool noFreeReferrer = true;\n\n        for(uint256 i = 0; i < 20000; i++) {\n            if(users[referrals[i]].referral.length == 4) {\n                    referrals[(i+1)*4] = users[referrals[i]].referral[0];\n                    referrals[(i+1)*4+1] = users[referrals[i]].referral[1];\n                    referrals[(i+1)*4+2] = users[referrals[i]].referral[2];\n                    referrals[(i+1)*4+3] = users[referrals[i]].referral[3];\n            }\n            else {\n                noFreeReferrer = false;\n                freeReferrer = referrals[i];\n                break;\n            }\n        }\n\n        require(!noFreeReferrer, 'No Free Referrer');\n\n        return freeReferrer;\n    }\n\n    function viewUserReferral(address _user) public view returns(address[] memory) {\n        return users[_user].referral;\n    }\n    \n    function setUplines(uint256 _id) public{\n        address[] memory uplinesLocal=new address[](10);\n        uint256 userId = users[users_ids[_id]].upline;\n        for(uint256 i=0;i<10;i++){\n            if(userId == 0)\n            break;\n            uplinesLocal[i]=users_ids[userId];\n            userId = users[users_ids[userId]].upline;\n        }\n        users[users_ids[_id]].uplines = uplinesLocal;\n       \n    }\n\n    function getUplines(uint256 _id) public view returns(address[] memory){\n        return users[users_ids[_id]].uplines;\n    }\n}\n",
  "sourcePath": "/home/neha/nexen-dashboard-new/contracts/MLM.sol",
  "compiler": {
    "name": "solc",
    "version": "0.5.1+commit.c8a2cb62.Emscripten.clang"
  },
  "schemaVersion": "3.1.0",
  "updatedAt": "2020-08-15T17:50:48.314Z",
  "networkType": "ethereum",
  "devdoc": {
    "methods": {}
  },
  "userdoc": {
    "methods": {}
  }
}