{
  "contractName": "MLM",
  "abi": [
    {
      "constant": true,
      "inputs": [
        {
          "name": "",
          "type": "uint256"
        }
      ],
      "name": "users_ids",
      "outputs": [
        {
          "name": "",
          "type": "address"
        }
      ],
      "payable": false,
      "stateMutability": "view",
      "type": "function"
    },
    {
      "constant": true,
      "inputs": [
        {
          "name": "",
          "type": "address"
        }
      ],
      "name": "userLevels",
      "outputs": [
        {
          "name": "level1",
          "type": "uint256"
        },
        {
          "name": "level2",
          "type": "uint256"
        },
        {
          "name": "level3",
          "type": "uint256"
        }
      ],
      "payable": false,
      "stateMutability": "view",
      "type": "function"
    },
    {
      "constant": true,
      "inputs": [],
      "name": "totalAmountDistributed",
      "outputs": [
        {
          "name": "",
          "type": "uint256"
        }
      ],
      "payable": false,
      "stateMutability": "view",
      "type": "function"
    },
    {
      "constant": true,
      "inputs": [],
      "name": "distributionWallet",
      "outputs": [
        {
          "name": "",
          "type": "uint256"
        }
      ],
      "payable": false,
      "stateMutability": "view",
      "type": "function"
    },
    {
      "constant": true,
      "inputs": [],
      "name": "levelRewardWallet",
      "outputs": [
        {
          "name": "",
          "type": "uint256"
        }
      ],
      "payable": false,
      "stateMutability": "view",
      "type": "function"
    },
    {
      "constant": true,
      "inputs": [
        {
          "name": "",
          "type": "uint256"
        }
      ],
      "name": "levelWinners",
      "outputs": [
        {
          "name": "",
          "type": "address"
        }
      ],
      "payable": false,
      "stateMutability": "view",
      "type": "function"
    },
    {
      "constant": true,
      "inputs": [],
      "name": "ownerWallet",
      "outputs": [
        {
          "name": "",
          "type": "address"
        }
      ],
      "payable": false,
      "stateMutability": "view",
      "type": "function"
    },
    {
      "constant": true,
      "inputs": [
        {
          "name": "",
          "type": "address"
        }
      ],
      "name": "users",
      "outputs": [
        {
          "name": "id",
          "type": "uint256"
        },
        {
          "name": "inviter",
          "type": "address"
        },
        {
          "name": "totalReferals",
          "type": "uint256"
        },
        {
          "name": "totalRecycles",
          "type": "uint256"
        },
        {
          "name": "dailyReferrals",
          "type": "uint256"
        },
        {
          "name": "levelsPurchased",
          "type": "uint256"
        },
        {
          "name": "upline",
          "type": "uint256"
        },
        {
          "name": "isExist",
          "type": "bool"
        },
        {
          "name": "loss",
          "type": "uint256"
        }
      ],
      "payable": false,
      "stateMutability": "view",
      "type": "function"
    },
    {
      "constant": true,
      "inputs": [
        {
          "name": "",
          "type": "address"
        }
      ],
      "name": "usersIncomes",
      "outputs": [
        {
          "name": "id",
          "type": "uint256"
        },
        {
          "name": "directIncome",
          "type": "uint256"
        },
        {
          "name": "rewardIncome",
          "type": "uint256"
        },
        {
          "name": "levelIncome",
          "type": "uint256"
        },
        {
          "name": "recycleIncome",
          "type": "uint256"
        },
        {
          "name": "recycleFund",
          "type": "uint256"
        },
        {
          "name": "levelFund",
          "type": "uint256"
        },
        {
          "name": "upgradeIncome",
          "type": "uint256"
        },
        {
          "name": "levelRewardIncome",
          "type": "uint256"
        }
      ],
      "payable": false,
      "stateMutability": "view",
      "type": "function"
    },
    {
      "constant": true,
      "inputs": [
        {
          "name": "",
          "type": "uint256"
        }
      ],
      "name": "levels",
      "outputs": [
        {
          "name": "",
          "type": "uint256"
        }
      ],
      "payable": false,
      "stateMutability": "view",
      "type": "function"
    },
    {
      "constant": true,
      "inputs": [],
      "name": "totalUsers",
      "outputs": [
        {
          "name": "",
          "type": "uint256"
        }
      ],
      "payable": false,
      "stateMutability": "view",
      "type": "function"
    },
    {
      "constant": true,
      "inputs": [],
      "name": "rewardWallet",
      "outputs": [
        {
          "name": "",
          "type": "uint256"
        }
      ],
      "payable": false,
      "stateMutability": "view",
      "type": "function"
    },
    {
      "inputs": [],
      "payable": false,
      "stateMutability": "nonpayable",
      "type": "constructor"
    },
    {
      "anonymous": false,
      "inputs": [
        {
          "indexed": true,
          "name": "addr",
          "type": "address"
        },
        {
          "indexed": true,
          "name": "inviter",
          "type": "address"
        },
        {
          "indexed": false,
          "name": "id",
          "type": "uint256"
        }
      ],
      "name": "Register",
      "type": "event"
    },
    {
      "anonymous": false,
      "inputs": [
        {
          "indexed": true,
          "name": "addr",
          "type": "address"
        },
        {
          "indexed": true,
          "name": "upline",
          "type": "address"
        },
        {
          "indexed": false,
          "name": "level",
          "type": "uint8"
        }
      ],
      "name": "BuyLevel",
      "type": "event"
    },
    {
      "anonymous": false,
      "inputs": [
        {
          "indexed": true,
          "name": "_user",
          "type": "address"
        },
        {
          "indexed": false,
          "name": "_level",
          "type": "uint256"
        }
      ],
      "name": "buyLevelEvent",
      "type": "event"
    },
    {
      "constant": false,
      "inputs": [
        {
          "name": "_inviter_id",
          "type": "uint256"
        }
      ],
      "name": "register",
      "outputs": [],
      "payable": true,
      "stateMutability": "payable",
      "type": "function"
    },
    {
      "constant": false,
      "inputs": [
        {
          "name": "_level",
          "type": "uint256"
        }
      ],
      "name": "buyLevel",
      "outputs": [],
      "payable": true,
      "stateMutability": "payable",
      "type": "function"
    },
    {
      "constant": false,
      "inputs": [
        {
          "name": "_user",
          "type": "address"
        }
      ],
      "name": "autoBuyLevel",
      "outputs": [],
      "payable": false,
      "stateMutability": "nonpayable",
      "type": "function"
    },
    {
      "constant": false,
      "inputs": [
        {
          "name": "_user",
          "type": "address"
        }
      ],
      "name": "recycleId",
      "outputs": [],
      "payable": false,
      "stateMutability": "nonpayable",
      "type": "function"
    },
    {
      "constant": false,
      "inputs": [
        {
          "name": "_winner1",
          "type": "address"
        },
        {
          "name": "_winner2",
          "type": "address"
        },
        {
          "name": "_winner3",
          "type": "address"
        }
      ],
      "name": "distributeReward",
      "outputs": [],
      "payable": false,
      "stateMutability": "nonpayable",
      "type": "function"
    },
    {
      "constant": false,
      "inputs": [
        {
          "name": "_level",
          "type": "uint256"
        }
      ],
      "name": "distributeLevelUpgradeAmount",
      "outputs": [],
      "payable": false,
      "stateMutability": "nonpayable",
      "type": "function"
    },
    {
      "constant": true,
      "inputs": [],
      "name": "getTotalAmountWithdrawn",
      "outputs": [
        {
          "name": "",
          "type": "uint256"
        }
      ],
      "payable": false,
      "stateMutability": "view",
      "type": "function"
    },
    {
      "constant": true,
      "inputs": [],
      "name": "getTotalUsers",
      "outputs": [
        {
          "name": "",
          "type": "uint256"
        }
      ],
      "payable": false,
      "stateMutability": "view",
      "type": "function"
    },
    {
      "constant": true,
      "inputs": [],
      "name": "getRewardWallet",
      "outputs": [
        {
          "name": "",
          "type": "uint256"
        }
      ],
      "payable": false,
      "stateMutability": "view",
      "type": "function"
    },
    {
      "constant": true,
      "inputs": [],
      "name": "getLevelRewardWallet",
      "outputs": [
        {
          "name": "",
          "type": "uint256"
        }
      ],
      "payable": false,
      "stateMutability": "view",
      "type": "function"
    },
    {
      "constant": true,
      "inputs": [
        {
          "name": "_add",
          "type": "address"
        }
      ],
      "name": "getDirectIncome",
      "outputs": [
        {
          "name": "",
          "type": "uint256"
        }
      ],
      "payable": false,
      "stateMutability": "view",
      "type": "function"
    },
    {
      "constant": true,
      "inputs": [
        {
          "name": "_id",
          "type": "uint256"
        }
      ],
      "name": "getUserInfo",
      "outputs": [
        {
          "name": "inviter",
          "type": "address"
        },
        {
          "name": "totalReferals",
          "type": "uint256"
        },
        {
          "name": "totalRecycles",
          "type": "uint256"
        },
        {
          "name": "dailyReferrals",
          "type": "uint256"
        },
        {
          "name": "levelsPurchased",
          "type": "uint256"
        },
        {
          "name": "upline",
          "type": "uint256"
        },
        {
          "name": "loss",
          "type": "uint256"
        }
      ],
      "payable": false,
      "stateMutability": "view",
      "type": "function"
    },
    {
      "constant": true,
      "inputs": [
        {
          "name": "_id",
          "type": "uint256"
        }
      ],
      "name": "getUsersIncomes",
      "outputs": [
        {
          "name": "directIncome",
          "type": "uint256"
        },
        {
          "name": "levelIncome",
          "type": "uint256"
        },
        {
          "name": "recycleIncome",
          "type": "uint256"
        },
        {
          "name": "recycleFund",
          "type": "uint256"
        },
        {
          "name": "upgradeIncome",
          "type": "uint256"
        },
        {
          "name": "levelRewardIncome",
          "type": "uint256"
        }
      ],
      "payable": false,
      "stateMutability": "view",
      "type": "function"
    },
    {
      "constant": false,
      "inputs": [],
      "name": "withDrawlevelFund",
      "outputs": [],
      "payable": false,
      "stateMutability": "nonpayable",
      "type": "function"
    },
    {
      "constant": false,
      "inputs": [],
      "name": "withdrawDistributionWallet",
      "outputs": [],
      "payable": false,
      "stateMutability": "nonpayable",
      "type": "function"
    },
    {
      "constant": true,
      "inputs": [
        {
          "name": "_user",
          "type": "address"
        }
      ],
      "name": "findFreeReferrer",
      "outputs": [
        {
          "name": "",
          "type": "address"
        }
      ],
      "payable": false,
      "stateMutability": "view",
      "type": "function"
    },
    {
      "constant": true,
      "inputs": [
        {
          "name": "_user",
          "type": "address"
        }
      ],
      "name": "viewUserReferral",
      "outputs": [
        {
          "name": "",
          "type": "address[]"
        }
      ],
      "payable": false,
      "stateMutability": "view",
      "type": "function"
    },
    {
      "constant": false,
      "inputs": [
        {
          "name": "_id",
          "type": "uint256"
        }
      ],
      "name": "setUplines",
      "outputs": [],
      "payable": false,
      "stateMutability": "nonpayable",
      "type": "function"
    },
    {
      "constant": true,
      "inputs": [
        {
          "name": "_id",
          "type": "uint256"
        }
      ],
      "name": "getUplines",
      "outputs": [
        {
          "name": "",
          "type": "address[]"
        }
      ],
      "payable": false,
      "stateMutability": "view",
      "type": "function"
    }
  ],
  "bytecode": "0x60806040523480156200001157600080fd5b506000600181905550336000806101000a81548173ffffffffffffffffffffffffffffffffffffffff021916908373ffffffffffffffffffffffffffffffffffffffff160217905550600766b1a2bc2ec5000090806001815401808255809150509060018203906000526020600020016000909192909190915055506007662386f26fc100009080600181540180825580915050906001820390600052602060002001600090919290919091505550600766470de4df82000090806001815401808255809150509060018203906000526020600020016000909192909190915055506007666a94d74f43000090806001815401808255809150509060018203906000526020600020016000909192909190915055506007668e1bc9bf0400009080600181540180825580915050906001820390600052602060002001600090919290919091505550600766b1a2bc2ec500009080600181540180825580915050906001820390600052602060002001600090919290919091505550600766d529ae9e8600009080600181540180825580915050906001820390600052602060002001600090919290919091505550600766f8b0a10e4700009080600181540180825580915050906001820390600052602060002001600090919290919091505550600767011c37937e0800009080600181540180825580915050906001820390600052602060002001600090919290919091505550600767013fbe85edc900009080600181540180825580915050906001820390600052602060002001600090919290919091505550600767016345785d8a00009080600181540180825580915050906001820390600052602060002001600090919290919091505550620002aa33600062000454640100000000026401000000009004565b600a600860003373ffffffffffffffffffffffffffffffffffffffff1673ffffffffffffffffffffffffffffffffffffffff168152602001908152602001600020600501819055506000604051908082528060200260200182016040528015620003235781602001602082028038833980820191505090505b50600860003373ffffffffffffffffffffffffffffffffffffffff1673ffffffffffffffffffffffffffffffffffffffff16815260200190815260200160002060080190805190602001906200037b92919062000692565b506000600860003373ffffffffffffffffffffffffffffffffffffffff1673ffffffffffffffffffffffffffffffffffffffff168152602001908152602001600020600601819055506000604051908082528060200260200182016040528015620003f55781602001602082028038833980820191505090505b50600860003373ffffffffffffffffffffffffffffffffffffffff1673ffffffffffffffffffffffffffffffffffffffff16815260200190815260200160002060070190805190602001906200044d92919062000692565b5062000767565b600160008154809291906001019190505550600154600860008473ffffffffffffffffffffffffffffffffffffffff1673ffffffffffffffffffffffffffffffffffffffff1681526020019081526020016000206000018190555080600860008473ffffffffffffffffffffffffffffffffffffffff1673ffffffffffffffffffffffffffffffffffffffff16815260200190815260200160002060010160006101000a81548173ffffffffffffffffffffffffffffffffffffffff021916908373ffffffffffffffffffffffffffffffffffffffff16021790555081600b6000600154815260200190815260200160002060006101000a81548173ffffffffffffffffffffffffffffffffffffffff021916908373ffffffffffffffffffffffffffffffffffffffff1602179055506001600860008473ffffffffffffffffffffffffffffffffffffffff1673ffffffffffffffffffffffffffffffffffffffff16815260200190815260200160002060090160006101000a81548160ff0219169083151502179055506000600860003373ffffffffffffffffffffffffffffffffffffffff1673ffffffffffffffffffffffffffffffffffffffff168152602001908152602001600020600501819055508073ffffffffffffffffffffffffffffffffffffffff168273ffffffffffffffffffffffffffffffffffffffff167fcc0bec1447060c88cdc5a739cf29cfa26c453574dd3f5b9e4dcc317d6401cb1c6001546040518082815260200191505060405180910390a35050565b8280548282559060005260206000209081019282156200070e579160200282015b828111156200070d5782518260006101000a81548173ffffffffffffffffffffffffffffffffffffffff021916908373ffffffffffffffffffffffffffffffffffffffff16021790555091602001919060010190620006b3565b5b5090506200071d919062000721565b5090565b6200076491905b808211156200076057600081816101000a81549073ffffffffffffffffffffffffffffffffffffffff02191690555060010162000728565b5090565b90565b614d7880620007776000396000f3fe608060405260043610610185576000357c010000000000000000000000000000000000000000000000000000000090048063024e74991461018a578063085bea3c1461021a578063118be0d814610295578063132c8c9b146102d057806330413ccf1461036157806334ebff14146103d45780633710040e146103ff57806339b728ac14610416578063467d0119146104415780634a4baa8f1461046c5780634f123df514610512578063521181d51461054d5780635eccfb6d146105de5780636c72f12314610609578063720f64b51461062057806375103d6a146106715780639335dcb7146106ec5780639be572f614610743578063a87430ba1461076e578063a8e1c6101461083b578063ab5bc49f146108ad578063acc87b2e14610912578063b2596a67146109af578063beb28610146109fe578063bff1f9e114610a4f578063d379dadf14610a7a578063d67dff0114610b1f578063e405ca0114610b4a578063f207564e14610b75578063f6838a7214610ba3578063fb75b2c714610bd1575b600080fd5b34801561019657600080fd5b506101c3600480360360208110156101ad57600080fd5b8101908080359060200190929190505050610bfc565b6040518080602001828103825283818151815260200191508051906020019060200280838360005b838110156102065780820151818401526020810190506101eb565b505050509050019250505060405180910390f35b34801561022657600080fd5b506102536004803603602081101561023d57600080fd5b8101908080359060200190929190505050610cff565b604051808273ffffffffffffffffffffffffffffffffffffffff1673ffffffffffffffffffffffffffffffffffffffff16815260200191505060405180910390f35b3480156102a157600080fd5b506102ce600480360360208110156102b857600080fd5b8101908080359060200190929190505050610d32565b005b3480156102dc57600080fd5b5061031f600480360360208110156102f357600080fd5b81019080803573ffffffffffffffffffffffffffffffffffffffff169060200190929190505050611201565b604051808273ffffffffffffffffffffffffffffffffffffffff1673ffffffffffffffffffffffffffffffffffffffff16815260200191505060405180910390f35b34801561036d57600080fd5b506103b06004803603602081101561038457600080fd5b81019080803573ffffffffffffffffffffffffffffffffffffffff169060200190929190505050611a6c565b60405180848152602001838152602001828152602001935050505060405180910390f35b3480156103e057600080fd5b506103e9611a96565b6040518082815260200191505060405180910390f35b34801561040b57600080fd5b50610414611aa0565b005b34801561042257600080fd5b5061042b611c44565b6040518082815260200191505060405180910390f35b34801561044d57600080fd5b50610456611c4a565b6040518082815260200191505060405180910390f35b34801561047857600080fd5b506104bb6004803603602081101561048f57600080fd5b81019080803573ffffffffffffffffffffffffffffffffffffffff169060200190929190505050611c50565b6040518080602001828103825283818151815260200191508051906020019060200280838360005b838110156104fe5780820151818401526020810190506104e3565b505050509050019250505060405180910390f35b34801561051e57600080fd5b5061054b6004803603602081101561053557600080fd5b8101908080359060200190929190505050611d20565b005b34801561055957600080fd5b506105dc6004803603606081101561057057600080fd5b81019080803573ffffffffffffffffffffffffffffffffffffffff169060200190929190803573ffffffffffffffffffffffffffffffffffffffff169060200190929190803573ffffffffffffffffffffffffffffffffffffffff169060200190929190505050611f7f565b005b3480156105ea57600080fd5b506105f361291f565b6040518082815260200191505060405180910390f35b34801561061557600080fd5b5061061e612925565b005b34801561062c57600080fd5b5061066f6004803603602081101561064357600080fd5b81019080803573ffffffffffffffffffffffffffffffffffffffff169060200190929190505050612a85565b005b34801561067d57600080fd5b506106aa6004803603602081101561069457600080fd5b8101908080359060200190929190505050612fe2565b604051808273ffffffffffffffffffffffffffffffffffffffff1673ffffffffffffffffffffffffffffffffffffffff16815260200191505060405180910390f35b3480156106f857600080fd5b50610701613020565b604051808273ffffffffffffffffffffffffffffffffffffffff1673ffffffffffffffffffffffffffffffffffffffff16815260200191505060405180910390f35b34801561074f57600080fd5b50610758613045565b6040518082815260200191505060405180910390f35b34801561077a57600080fd5b506107bd6004803603602081101561079157600080fd5b81019080803573ffffffffffffffffffffffffffffffffffffffff16906020019092919050505061304f565b604051808a81526020018973ffffffffffffffffffffffffffffffffffffffff1673ffffffffffffffffffffffffffffffffffffffff16815260200188815260200187815260200186815260200185815260200184815260200183151515158152602001828152602001995050505050505050505060405180910390f35b34801561084757600080fd5b506108746004803603602081101561085e57600080fd5b81019080803590602001909291905050506130ca565b60405180878152602001868152602001858152602001848152602001838152602001828152602001965050505050505060405180910390f35b3480156108b957600080fd5b506108fc600480360360208110156108d057600080fd5b81019080803573ffffffffffffffffffffffffffffffffffffffff1690602001909291905050506133ac565b6040518082815260200191505060405180910390f35b34801561091e57600080fd5b506109616004803603602081101561093557600080fd5b81019080803573ffffffffffffffffffffffffffffffffffffffff1690602001909291905050506133f8565b604051808a8152602001898152602001888152602001878152602001868152602001858152602001848152602001838152602001828152602001995050505050505050505060405180910390f35b3480156109bb57600080fd5b506109e8600480360360208110156109d257600080fd5b8101908080359060200190929190505050613446565b6040518082815260200191505060405180910390f35b348015610a0a57600080fd5b50610a4d60048036036020811015610a2157600080fd5b81019080803573ffffffffffffffffffffffffffffffffffffffff169060200190929190505050613469565b005b348015610a5b57600080fd5b50610a64613844565b6040518082815260200191505060405180910390f35b348015610a8657600080fd5b50610ab360048036036020811015610a9d57600080fd5b810190808035906020019092919050505061384a565b604051808873ffffffffffffffffffffffffffffffffffffffff1673ffffffffffffffffffffffffffffffffffffffff16815260200187815260200186815260200185815260200184815260200183815260200182815260200197505050505050505060405180910390f35b348015610b2b57600080fd5b50610b34613aef565b6040518082815260200191505060405180910390f35b348015610b5657600080fd5b50610b5f613af9565b6040518082815260200191505060405180910390f35b610ba160048036036020811015610b8b57600080fd5b8101908080359060200190929190505050613b03565b005b610bcf60048036036020811015610bb957600080fd5b8101908080359060200190929190505050613dfd565b005b348015610bdd57600080fd5b50610be6614511565b6040518082815260200191505060405180910390f35b606060086000600b600085815260200190815260200160002060009054906101000a900473ffffffffffffffffffffffffffffffffffffffff1673ffffffffffffffffffffffffffffffffffffffff1673ffffffffffffffffffffffffffffffffffffffff168152602001908152602001600020600701805480602002602001604051908101604052809291908181526020018280548015610cf357602002820191906000526020600020905b8160009054906101000a900473ffffffffffffffffffffffffffffffffffffffff1673ffffffffffffffffffffffffffffffffffffffff1681526020019060010190808311610ca9575b50505050509050919050565b600b6020528060005260406000206000915054906101000a900473ffffffffffffffffffffffffffffffffffffffff1681565b600060646008600784815481101515610d4757fe5b906000526020600020015402811515610d5c57fe5b0490506000606482601402811515610d7057fe5b04905060008183039050610dc5600860003373ffffffffffffffffffffffffffffffffffffffff1673ffffffffffffffffffffffffffffffffffffffff16815260200190815260200160002060000154611d20565b6060600a604051908082528060200260200182016040528015610df75781602001602082028038833980820191505090505b509050600860003373ffffffffffffffffffffffffffffffffffffffff1673ffffffffffffffffffffffffffffffffffffffff168152602001908152602001600020600701805480602002602001604051908101604052809291908181526020018280548015610ebc57602002820191906000526020600020905b8160009054906101000a900473ffffffffffffffffffffffffffffffffffffffff1673ffffffffffffffffffffffffffffffffffffffff1681526020019060010190808311610e72575b5050505050905060008090505b600a8110156111f957600073ffffffffffffffffffffffffffffffffffffffff168282815181101515610ef857fe5b9060200190602002015173ffffffffffffffffffffffffffffffffffffffff161415610f3357826004600082825401925050819055506111f9565b60018101600860008484815181101515610f4957fe5b9060200190602002015173ffffffffffffffffffffffffffffffffffffffff1673ffffffffffffffffffffffffffffffffffffffff168152602001908152602001600020600501541015156111745782600960008484815181101515610fab57fe5b9060200190602002015173ffffffffffffffffffffffffffffffffffffffff1673ffffffffffffffffffffffffffffffffffffffff16815260200190815260200160002060070160008282540192505081905550606485600a0281151561100e57fe5b0460096000848481518110151561102157fe5b9060200190602002015173ffffffffffffffffffffffffffffffffffffffff1673ffffffffffffffffffffffffffffffffffffffff16815260200190815260200160002060050160008282540192505081905550606485600a0281151561108457fe5b0460096000848481518110151561109757fe5b9060200190602002015173ffffffffffffffffffffffffffffffffffffffff1673ffffffffffffffffffffffffffffffffffffffff1681526020019081526020016000206006016000828254019250508190555081818151811015156110f957fe5b9060200190602002015173ffffffffffffffffffffffffffffffffffffffff1673ffffffffffffffffffffffffffffffffffffffff166108fc849081150290604051600060405180830381858888f1935050505015801561115e573d6000803e3d6000fd5b50826005600082825401925050819055506111ec565b8260086000848481518110151561118757fe5b9060200190602002015173ffffffffffffffffffffffffffffffffffffffff1673ffffffffffffffffffffffffffffffffffffffff168152602001908152602001600020600a0160008282540192505081905550826004600082825401925050819055505b8080600101915050610ec9565b505050505050565b60006004600860008473ffffffffffffffffffffffffffffffffffffffff1673ffffffffffffffffffffffffffffffffffffffff16815260200190815260200160002060080180549050101561125957819050611a67565b6060614e2060405190808252806020026020018201604052801561128c5781602001602082028038833980820191505090505b509050600860008473ffffffffffffffffffffffffffffffffffffffff1673ffffffffffffffffffffffffffffffffffffffff16815260200190815260200160002060080160008154811015156112df57fe5b9060005260206000200160009054906101000a900473ffffffffffffffffffffffffffffffffffffffff1681600081518110151561131957fe5b9060200190602002019073ffffffffffffffffffffffffffffffffffffffff16908173ffffffffffffffffffffffffffffffffffffffff1681525050600860008473ffffffffffffffffffffffffffffffffffffffff1673ffffffffffffffffffffffffffffffffffffffff16815260200190815260200160002060080160018154811015156113a557fe5b9060005260206000200160009054906101000a900473ffffffffffffffffffffffffffffffffffffffff168160018151811015156113df57fe5b9060200190602002019073ffffffffffffffffffffffffffffffffffffffff16908173ffffffffffffffffffffffffffffffffffffffff1681525050600860008473ffffffffffffffffffffffffffffffffffffffff1673ffffffffffffffffffffffffffffffffffffffff168152602001908152602001600020600801600281548110151561146b57fe5b9060005260206000200160009054906101000a900473ffffffffffffffffffffffffffffffffffffffff168160028151811015156114a557fe5b9060200190602002019073ffffffffffffffffffffffffffffffffffffffff16908173ffffffffffffffffffffffffffffffffffffffff1681525050600860008473ffffffffffffffffffffffffffffffffffffffff1673ffffffffffffffffffffffffffffffffffffffff168152602001908152602001600020600801600381548110151561153157fe5b9060005260206000200160009054906101000a900473ffffffffffffffffffffffffffffffffffffffff1681600381518110151561156b57fe5b9060200190602002019073ffffffffffffffffffffffffffffffffffffffff16908173ffffffffffffffffffffffffffffffffffffffff16815250506000806001905060008090505b614e208110156119e95760046008600086848151811015156115d257fe5b9060200190602002015173ffffffffffffffffffffffffffffffffffffffff1673ffffffffffffffffffffffffffffffffffffffff1681526020019081526020016000206008018054905014156119b95760086000858381518110151561163557fe5b9060200190602002015173ffffffffffffffffffffffffffffffffffffffff1673ffffffffffffffffffffffffffffffffffffffff168152602001908152602001600020600801600081548110151561168a57fe5b9060005260206000200160009054906101000a900473ffffffffffffffffffffffffffffffffffffffff1684600460018401028151811015156116c957fe5b9060200190602002019073ffffffffffffffffffffffffffffffffffffffff16908173ffffffffffffffffffffffffffffffffffffffff168152505060086000858381518110151561171757fe5b9060200190602002015173ffffffffffffffffffffffffffffffffffffffff1673ffffffffffffffffffffffffffffffffffffffff168152602001908152602001600020600801600181548110151561176c57fe5b9060005260206000200160009054906101000a900473ffffffffffffffffffffffffffffffffffffffff1684600160046001850102018151811015156117ae57fe5b9060200190602002019073ffffffffffffffffffffffffffffffffffffffff16908173ffffffffffffffffffffffffffffffffffffffff16815250506008600085838151811015156117fc57fe5b9060200190602002015173ffffffffffffffffffffffffffffffffffffffff1673ffffffffffffffffffffffffffffffffffffffff168152602001908152602001600020600801600281548110151561185157fe5b9060005260206000200160009054906101000a900473ffffffffffffffffffffffffffffffffffffffff16846002600460018501020181518110151561189357fe5b9060200190602002019073ffffffffffffffffffffffffffffffffffffffff16908173ffffffffffffffffffffffffffffffffffffffff16815250506008600085838151811015156118e157fe5b9060200190602002015173ffffffffffffffffffffffffffffffffffffffff1673ffffffffffffffffffffffffffffffffffffffff168152602001908152602001600020600801600381548110151561193657fe5b9060005260206000200160009054906101000a900473ffffffffffffffffffffffffffffffffffffffff16846003600460018501020181518110151561197857fe5b9060200190602002019073ffffffffffffffffffffffffffffffffffffffff16908173ffffffffffffffffffffffffffffffffffffffff16815250506119dc565b6000915083818151811015156119cb57fe5b9060200190602002015192506119e9565b80806001019150506115b4565b5080151515611a60576040517f08c379a00000000000000000000000000000000000000000000000000000000081526004018080602001828103825260108152602001807f4e6f20467265652052656665727265720000000000000000000000000000000081525060200191505060405180910390fd5b8193505050505b919050565b600a6020528060005260406000206000915090508060000154908060010154908060020154905083565b6000600354905090565b600a600860003373ffffffffffffffffffffffffffffffffffffffff1673ffffffffffffffffffffffffffffffffffffffff1681526020019081526020016000206005015410151515611b5b576040517f08c379a000000000000000000000000000000000000000000000000000000000815260040180806020018281038252601a8152602001807f796f752063616e6e6f7420776974686472617720616d6f756e7400000000000081525060200191505060405180910390fd5b3373ffffffffffffffffffffffffffffffffffffffff1673ffffffffffffffffffffffffffffffffffffffff166108fc600960003373ffffffffffffffffffffffffffffffffffffffff1673ffffffffffffffffffffffffffffffffffffffff168152602001908152602001600020600601549081150290604051600060405180830381858888f19350505050158015611bf9573d6000803e3d6000fd5b506000600960003373ffffffffffffffffffffffffffffffffffffffff1673ffffffffffffffffffffffffffffffffffffffff16815260200190815260200160002060060181905550565b60055481565b60045481565b6060600860008373ffffffffffffffffffffffffffffffffffffffff1673ffffffffffffffffffffffffffffffffffffffff168152602001908152602001600020600801805480602002602001604051908101604052809291908181526020018280548015611d1457602002820191906000526020600020905b8160009054906101000a900473ffffffffffffffffffffffffffffffffffffffff1673ffffffffffffffffffffffffffffffffffffffff1681526020019060010190808311611cca575b50505050509050919050565b6060600a604051908082528060200260200182016040528015611d525781602001602082028038833980820191505090505b509050600060086000600b600086815260200190815260200160002060009054906101000a900473ffffffffffffffffffffffffffffffffffffffff1673ffffffffffffffffffffffffffffffffffffffff1673ffffffffffffffffffffffffffffffffffffffff16815260200190815260200160002060060154905060008090505b600a811015611eef576000821415611dec57611eef565b600b600083815260200190815260200160002060009054906101000a900473ffffffffffffffffffffffffffffffffffffffff168382815181101515611e2e57fe5b9060200190602002019073ffffffffffffffffffffffffffffffffffffffff16908173ffffffffffffffffffffffffffffffffffffffff168152505060086000600b600085815260200190815260200160002060009054906101000a900473ffffffffffffffffffffffffffffffffffffffff1673ffffffffffffffffffffffffffffffffffffffff1673ffffffffffffffffffffffffffffffffffffffff1681526020019081526020016000206006015491508080600101915050611dd5565b508160086000600b600087815260200190815260200160002060009054906101000a900473ffffffffffffffffffffffffffffffffffffffff1673ffffffffffffffffffffffffffffffffffffffff1673ffffffffffffffffffffffffffffffffffffffff1681526020019081526020016000206007019080519060200190611f79929190614c0c565b50505050565b60006064600254603202811515611f9257fe5b04905060006064600254601e02811515611fa857fe5b04905060006064600254601402811515611fbe57fe5b049050606483601402811515611fd057fe5b048303600960008873ffffffffffffffffffffffffffffffffffffffff1673ffffffffffffffffffffffffffffffffffffffff1681526020019081526020016000206002016000828254019250508190555060648260140281151561203157fe5b048203600960008773ffffffffffffffffffffffffffffffffffffffff1673ffffffffffffffffffffffffffffffffffffffff1681526020019081526020016000206002016000828254019250508190555060648160140281151561209257fe5b048103600960008673ffffffffffffffffffffffffffffffffffffffff1673ffffffffffffffffffffffffffffffffffffffff168152602001908152602001600020600201600082825401925050819055508573ffffffffffffffffffffffffffffffffffffffff1673ffffffffffffffffffffffffffffffffffffffff166108fc600960008973ffffffffffffffffffffffffffffffffffffffff1673ffffffffffffffffffffffffffffffffffffffff168152602001908152602001600020600201549081150290604051600060405180830381858888f19350505050158015612182573d6000803e3d6000fd5b508473ffffffffffffffffffffffffffffffffffffffff1673ffffffffffffffffffffffffffffffffffffffff166108fc600960008873ffffffffffffffffffffffffffffffffffffffff1673ffffffffffffffffffffffffffffffffffffffff168152602001908152602001600020600201549081150290604051600060405180830381858888f19350505050158015612221573d6000803e3d6000fd5b508373ffffffffffffffffffffffffffffffffffffffff1673ffffffffffffffffffffffffffffffffffffffff166108fc600960008773ffffffffffffffffffffffffffffffffffffffff1673ffffffffffffffffffffffffffffffffffffffff168152602001908152602001600020600201549081150290604051600060405180830381858888f193505050501580156122c0573d6000803e3d6000fd5b50600960008573ffffffffffffffffffffffffffffffffffffffff1673ffffffffffffffffffffffffffffffffffffffff16815260200190815260200160002060020154600960008773ffffffffffffffffffffffffffffffffffffffff1673ffffffffffffffffffffffffffffffffffffffff16815260200190815260200160002060020154600960008973ffffffffffffffffffffffffffffffffffffffff1673ffffffffffffffffffffffffffffffffffffffff16815260200190815260200160002060020154010160056000828254019250508190555060006002819055506000600860008873ffffffffffffffffffffffffffffffffffffffff1673ffffffffffffffffffffffffffffffffffffffff16815260200190815260200160002060010160009054906101000a900473ffffffffffffffffffffffffffffffffffffffff1690506000600860008873ffffffffffffffffffffffffffffffffffffffff1673ffffffffffffffffffffffffffffffffffffffff16815260200190815260200160002060010160009054906101000a900473ffffffffffffffffffffffffffffffffffffffff1690506000600860008873ffffffffffffffffffffffffffffffffffffffff1673ffffffffffffffffffffffffffffffffffffffff16815260200190815260200160002060010160009054906101000a900473ffffffffffffffffffffffffffffffffffffffff169050606486600a028115156124e757fe5b04600960008573ffffffffffffffffffffffffffffffffffffffff1673ffffffffffffffffffffffffffffffffffffffff16815260200190815260200160002060050160008282540192505081905550606485600a0281151561254657fe5b04600960008473ffffffffffffffffffffffffffffffffffffffff1673ffffffffffffffffffffffffffffffffffffffff16815260200190815260200160002060050160008282540192505081905550606484600a028115156125a557fe5b04600960008373ffffffffffffffffffffffffffffffffffffffff1673ffffffffffffffffffffffffffffffffffffffff16815260200190815260200160002060050160008282540192505081905550606486600a0281151561260457fe5b04600960008573ffffffffffffffffffffffffffffffffffffffff1673ffffffffffffffffffffffffffffffffffffffff16815260200190815260200160002060060160008282540192505081905550606485600a0281151561266357fe5b04600960008473ffffffffffffffffffffffffffffffffffffffff1673ffffffffffffffffffffffffffffffffffffffff16815260200190815260200160002060060160008282540192505081905550606484600a028115156126c257fe5b04600960008373ffffffffffffffffffffffffffffffffffffffff1673ffffffffffffffffffffffffffffffffffffffff1681526020019081526020016000206006016000828254019250508190555060076001600860008573ffffffffffffffffffffffffffffffffffffffff1673ffffffffffffffffffffffffffffffffffffffff168152602001908152602001600020600501540181548110151561276657fe5b9060005260206000200154600960008473ffffffffffffffffffffffffffffffffffffffff1673ffffffffffffffffffffffffffffffffffffffff16815260200190815260200160002060060154101580156128045750600a600860008473ffffffffffffffffffffffffffffffffffffffff1673ffffffffffffffffffffffffffffffffffffffff16815260200190815260200160002060050154105b156128135761281282612a85565b5b60076001600860008473ffffffffffffffffffffffffffffffffffffffff1673ffffffffffffffffffffffffffffffffffffffff168152602001908152602001600020600501540181548110151561286757fe5b9060005260206000200154600960008373ffffffffffffffffffffffffffffffffffffffff1673ffffffffffffffffffffffffffffffffffffffff16815260200190815260200160002060060154101580156129055750600a600860008373ffffffffffffffffffffffffffffffffffffffff1673ffffffffffffffffffffffffffffffffffffffff16815260200190815260200160002060050154105b156129145761291381612a85565b5b505050505050505050565b60035481565b6000809054906101000a900473ffffffffffffffffffffffffffffffffffffffff1673ffffffffffffffffffffffffffffffffffffffff163373ffffffffffffffffffffffffffffffffffffffff161415156129e9576040517f08c379a00000000000000000000000000000000000000000000000000000000081526004018080602001828103825260118152602001807f796f7520617265206e6f74206f776e657200000000000000000000000000000081525060200191505060405180910390fd5b6000809054906101000a900473ffffffffffffffffffffffffffffffffffffffff1673ffffffffffffffffffffffffffffffffffffffff1673ffffffffffffffffffffffffffffffffffffffff166108fc6004549081150290604051600060405180830381858888f19350505050158015612a68573d6000803e3d6000fd5b506004546005600082825401925050819055506000600481905550565b60006001600860008473ffffffffffffffffffffffffffffffffffffffff1673ffffffffffffffffffffffffffffffffffffffff16815260200190815260200160002060050154019050600081118015612ae05750600a8111155b1515612b54576040517f08c379a000000000000000000000000000000000000000000000000000000000815260040180806020018281038252600f8152602001807f496e636f7272656374206c6576656c000000000000000000000000000000000081525060200191505060405180910390fd5b600781815481101515612b6357fe5b9060005260206000200154600960008473ffffffffffffffffffffffffffffffffffffffff1673ffffffffffffffffffffffffffffffffffffffff1681526020019081526020016000206006015410151515612c27576040517f08c379a000000000000000000000000000000000000000000000000000000000815260040180806020018281038252600f8152602001807f496e636f72726563742056616c7565000000000000000000000000000000000081525060200191505060405180910390fd5b600060646014600784815481101515612c3c57fe5b906000526020600020015402811515612c5157fe5b0490506000600860003373ffffffffffffffffffffffffffffffffffffffff1673ffffffffffffffffffffffffffffffffffffffff16815260200190815260200160002060010160009054906101000a900473ffffffffffffffffffffffffffffffffffffffff169050606482601402811515612cca57fe5b048203600960008373ffffffffffffffffffffffffffffffffffffffff1673ffffffffffffffffffffffffffffffffffffffff16815260200190815260200160002060030160008282540192505081905550606482600a02811515612d2b57fe5b04600960008373ffffffffffffffffffffffffffffffffffffffff1673ffffffffffffffffffffffffffffffffffffffff16815260200190815260200160002060050160008282540192505081905550606482600a02811515612d8a57fe5b04600960008373ffffffffffffffffffffffffffffffffffffffff1673ffffffffffffffffffffffffffffffffffffffff16815260200190815260200160002060060160008282540192505081905550600860008573ffffffffffffffffffffffffffffffffffffffff1673ffffffffffffffffffffffffffffffffffffffff16815260200190815260200160002060010160009054906101000a900473ffffffffffffffffffffffffffffffffffffffff1673ffffffffffffffffffffffffffffffffffffffff1673ffffffffffffffffffffffffffffffffffffffff166108fc606484601402811515612e7b57fe5b0484039081150290604051600060405180830381858888f19350505050158015612ea9573d6000803e3d6000fd5b50606482601402811515612eb957fe5b048203600560008282540192505081905550600783815481101515612eda57fe5b9060005260206000200154600960008673ffffffffffffffffffffffffffffffffffffffff1673ffffffffffffffffffffffffffffffffffffffff168152602001908152602001600020600601600082825403925050819055506001600860008673ffffffffffffffffffffffffffffffffffffffff1673ffffffffffffffffffffffffffffffffffffffff16815260200190815260200160002060050160008282540192505081905550612f8e83610d32565b8373ffffffffffffffffffffffffffffffffffffffff167f94ea718a6517c74ee4da32e6297595705048e7f1ca05b3133069c756cff40421846040518082815260200191505060405180910390a250505050565b600681815481101515612ff157fe5b906000526020600020016000915054906101000a900473ffffffffffffffffffffffffffffffffffffffff1681565b6000809054906101000a900473ffffffffffffffffffffffffffffffffffffffff1681565b6000600154905090565b60086020528060005260406000206000915090508060000154908060010160009054906101000a900473ffffffffffffffffffffffffffffffffffffffff16908060020154908060030154908060040154908060050154908060060154908060090160009054906101000a900460ff169080600a0154905089565b60008060008060008060096000600b60008a815260200190815260200160002060009054906101000a900473ffffffffffffffffffffffffffffffffffffffff1673ffffffffffffffffffffffffffffffffffffffff1673ffffffffffffffffffffffffffffffffffffffff1681526020019081526020016000206001015460096000600b60008b815260200190815260200160002060009054906101000a900473ffffffffffffffffffffffffffffffffffffffff1673ffffffffffffffffffffffffffffffffffffffff1673ffffffffffffffffffffffffffffffffffffffff1681526020019081526020016000206003015460096000600b60008c815260200190815260200160002060009054906101000a900473ffffffffffffffffffffffffffffffffffffffff1673ffffffffffffffffffffffffffffffffffffffff1673ffffffffffffffffffffffffffffffffffffffff1681526020019081526020016000206004015460096000600b60008d815260200190815260200160002060009054906101000a900473ffffffffffffffffffffffffffffffffffffffff1673ffffffffffffffffffffffffffffffffffffffff1673ffffffffffffffffffffffffffffffffffffffff1681526020019081526020016000206005015460096000600b60008e815260200190815260200160002060009054906101000a900473ffffffffffffffffffffffffffffffffffffffff1673ffffffffffffffffffffffffffffffffffffffff1673ffffffffffffffffffffffffffffffffffffffff1681526020019081526020016000206007015460096000600b60008f815260200190815260200160002060009054906101000a900473ffffffffffffffffffffffffffffffffffffffff1673ffffffffffffffffffffffffffffffffffffffff1673ffffffffffffffffffffffffffffffffffffffff1681526020019081526020016000206008015495509550955095509550955091939550919395565b6000600960008373ffffffffffffffffffffffffffffffffffffffff1673ffffffffffffffffffffffffffffffffffffffff168152602001908152602001600020600101549050919050565b60096020528060005260406000206000915090508060000154908060010154908060020154908060030154908060040154908060050154908060060154908060070154908060080154905089565b60078181548110151561345557fe5b906000526020600020016000915090505481565b6007600081548110151561347957fe5b9060005260206000200154600960008373ffffffffffffffffffffffffffffffffffffffff1673ffffffffffffffffffffffffffffffffffffffff1681526020019081526020016000206005015410151561384157600760008154811015156134de57fe5b9060005260206000200154600960008373ffffffffffffffffffffffffffffffffffffffff1673ffffffffffffffffffffffffffffffffffffffff168152602001908152602001600020600501600082825403925050819055506001600860008373ffffffffffffffffffffffffffffffffffffffff1673ffffffffffffffffffffffffffffffffffffffff168152602001908152602001600020600301600082825401925050819055506000606460506007600081548110151561359f57fe5b9060005260206000200154028115156135b457fe5b0490506000600860008473ffffffffffffffffffffffffffffffffffffffff1673ffffffffffffffffffffffffffffffffffffffff16815260200190815260200160002060010160009054906101000a900473ffffffffffffffffffffffffffffffffffffffff16905060646014830281151561362d57fe5b048203600960008373ffffffffffffffffffffffffffffffffffffffff1673ffffffffffffffffffffffffffffffffffffffff168152602001908152602001600020600401600082825401925050819055506064600a830281151561368e57fe5b04600960008373ffffffffffffffffffffffffffffffffffffffff1673ffffffffffffffffffffffffffffffffffffffff168152602001908152602001600020600501600082825401925050819055506064600a83028115156136ed57fe5b04600960008373ffffffffffffffffffffffffffffffffffffffff1673ffffffffffffffffffffffffffffffffffffffff168152602001908152602001600020600601600082825401925050819055508073ffffffffffffffffffffffffffffffffffffffff1673ffffffffffffffffffffffffffffffffffffffff166108fc60646014850281151561377c57fe5b0484039081150290604051600060405180830381858888f193505050501580156137aa573d6000803e3d6000fd5b506064601483028115156137ba57fe5b0482036005600082825401925050819055506064600a600760008154811015156137e057fe5b9060005260206000200154028115156137f557fe5b046002600082825401925050819055506064600a6007600081548110151561381957fe5b90600052602060002001540281151561382e57fe5b0460036000828254019250508190555050505b50565b60015481565b600080600080600080600061385d614c96565b60086000600b60008c815260200190815260200160002060009054906101000a900473ffffffffffffffffffffffffffffffffffffffff1673ffffffffffffffffffffffffffffffffffffffff1673ffffffffffffffffffffffffffffffffffffffff1681526020019081526020016000206101606040519081016040529081600082015481526020016001820160009054906101000a900473ffffffffffffffffffffffffffffffffffffffff1673ffffffffffffffffffffffffffffffffffffffff1673ffffffffffffffffffffffffffffffffffffffff1681526020016002820154815260200160038201548152602001600482015481526020016005820154815260200160068201548152602001600782018054806020026020016040519081016040528092919081815260200182805480156139f357602002820191906000526020600020905b8160009054906101000a900473ffffffffffffffffffffffffffffffffffffffff1673ffffffffffffffffffffffffffffffffffffffff16815260200190600101908083116139a9575b5050505050815260200160088201805480602002602001604051908101604052809291908181526020018280548015613a8157602002820191906000526020600020905b8160009054906101000a900473ffffffffffffffffffffffffffffffffffffffff1673ffffffffffffffffffffffffffffffffffffffff1681526020019060010190808311613a37575b505050505081526020016009820160009054906101000a900460ff16151515158152602001600a82015481525050905080602001518160400151826060015183608001518460a001518560c00151866101400151975097509750975097509750975050919395979092949650565b6000600254905090565b6000600554905090565b6000819050613b4633600b600085815260200190815260200160002060009054906101000a900473ffffffffffffffffffffffffffffffffffffffff1634614517565b600080839050600460086000600b600088815260200190815260200160002060009054906101000a900473ffffffffffffffffffffffffffffffffffffffff1673ffffffffffffffffffffffffffffffffffffffff1673ffffffffffffffffffffffffffffffffffffffff16815260200190815260200160002060080180549050101515613c5257613c0a600b600086815260200190815260200160002060009054906101000a900473ffffffffffffffffffffffffffffffffffffffff16611201565b9150600860008373ffffffffffffffffffffffffffffffffffffffff1673ffffffffffffffffffffffffffffffffffffffff1681526020019081526020016000206000015490505b60086000600b600084815260200190815260200160002060009054906101000a900473ffffffffffffffffffffffffffffffffffffffff1673ffffffffffffffffffffffffffffffffffffffff1673ffffffffffffffffffffffffffffffffffffffff1681526020019081526020016000206008013390806001815401808255809150509060018203906000526020600020016000909192909190916101000a81548173ffffffffffffffffffffffffffffffffffffffff021916908373ffffffffffffffffffffffffffffffffffffffff1602179055505080600860003373ffffffffffffffffffffffffffffffffffffffff1673ffffffffffffffffffffffffffffffffffffffff1681526020019081526020016000206006018190555060086000600b600086815260200190815260200160002060009054906101000a900473ffffffffffffffffffffffffffffffffffffffff1673ffffffffffffffffffffffffffffffffffffffff1673ffffffffffffffffffffffffffffffffffffffff1681526020019081526020016000206002016000815480929190600101919050555050505050565b600860003373ffffffffffffffffffffffffffffffffffffffff1673ffffffffffffffffffffffffffffffffffffffff1681526020019081526020016000206005015481111515613eb6576040517f08c379a00000000000000000000000000000000000000000000000000000000081526004018080602001828103825260178152602001807f416c726561647920707572636861736564206c6576656c00000000000000000081525060200191505060405180910390fd5b600860003373ffffffffffffffffffffffffffffffffffffffff1673ffffffffffffffffffffffffffffffffffffffff16815260200190815260200160002060090160009054906101000a900460ff161515613f7a576040517f08c379a000000000000000000000000000000000000000000000000000000000815260040180806020018281038252600e8152602001807f55736572206e6f7420657869737400000000000000000000000000000000000081525060200191505060405180910390fd5b600081118015613f8b5750600a8111155b1515613fff576040517f08c379a000000000000000000000000000000000000000000000000000000000815260040180806020018281038252600f8152602001807f496e636f7272656374206c6576656c000000000000000000000000000000000081525060200191505060405180910390fd5b60078181548110151561400e57fe5b90600052602060002001543414151561408f576040517f08c379a000000000000000000000000000000000000000000000000000000000815260040180806020018281038252600f8152602001807f496e636f72726563742056616c7565000000000000000000000000000000000081525060200191505060405180910390fd5b60018103600860003373ffffffffffffffffffffffffffffffffffffffff1673ffffffffffffffffffffffffffffffffffffffff16815260200190815260200160002060050154141515614171576040517f08c379a00000000000000000000000000000000000000000000000000000000081526004018080602001828103825260288152602001807f596f7520686176656e2774207075726368617365642070726576696f7573206c81526020017f6576656c2079657400000000000000000000000000000000000000000000000081525060400191505060405180910390fd5b60006064601460078481548110151561418657fe5b90600052602060002001540281151561419b57fe5b0490506000600860003373ffffffffffffffffffffffffffffffffffffffff1673ffffffffffffffffffffffffffffffffffffffff16815260200190815260200160002060010160009054906101000a900473ffffffffffffffffffffffffffffffffffffffff16905060648260140281151561421457fe5b048203600960008373ffffffffffffffffffffffffffffffffffffffff1673ffffffffffffffffffffffffffffffffffffffff16815260200190815260200160002060030160008282540192505081905550606482600a0281151561427557fe5b04600960008373ffffffffffffffffffffffffffffffffffffffff1673ffffffffffffffffffffffffffffffffffffffff16815260200190815260200160002060050160008282540192505081905550606482600a028115156142d457fe5b04600960008373ffffffffffffffffffffffffffffffffffffffff1673ffffffffffffffffffffffffffffffffffffffff16815260200190815260200160002060060160008282540192505081905550600860003373ffffffffffffffffffffffffffffffffffffffff1673ffffffffffffffffffffffffffffffffffffffff16815260200190815260200160002060010160009054906101000a900473ffffffffffffffffffffffffffffffffffffffff1673ffffffffffffffffffffffffffffffffffffffff1673ffffffffffffffffffffffffffffffffffffffff166108fc6064846014028115156143c557fe5b0484039081150290604051600060405180830381858888f193505050501580156143f3573d6000803e3d6000fd5b5060648260140281151561440357fe5b048203600560008282540192505081905550600a6001600860003373ffffffffffffffffffffffffffffffffffffffff1673ffffffffffffffffffffffffffffffffffffffff168152602001908152602001600020600501540110156144b5576001600860003373ffffffffffffffffffffffffffffffffffffffff1673ffffffffffffffffffffffffffffffffffffffff168152602001908152602001600020600501600082825401925050819055505b6144be83610d32565b3373ffffffffffffffffffffffffffffffffffffffff167f94ea718a6517c74ee4da32e6297595705048e7f1ca05b3133069c756cff40421846040518082815260200191505060405180910390a2505050565b60025481565b6000600860008573ffffffffffffffffffffffffffffffffffffffff1673ffffffffffffffffffffffffffffffffffffffff168152602001908152602001600020600001541415156145d1576040517f08c379a00000000000000000000000000000000000000000000000000000000081526004018080602001828103825260178152602001807f557365722061726c65616479207265676973746572656400000000000000000081525060200191505060405180910390fd5b6000600860008473ffffffffffffffffffffffffffffffffffffffff1673ffffffffffffffffffffffffffffffffffffffff168152602001908152602001600020600001541415151561468c576040517f08c379a00000000000000000000000000000000000000000000000000000000081526004018080602001828103825260168152602001807f496e7669746572206e6f7420726567697374657265640000000000000000000081525060200191505060405180910390fd5b6007600081548110151561469c57fe5b9060005260206000200154811015151561471e576040517f08c379a00000000000000000000000000000000000000000000000000000000081526004018080602001828103825260128152602001807f496e73756666696369656e742066756e6473000000000000000000000000000081525060200191505060405180910390fd5b6064600a6007600081548110151561473257fe5b90600052602060002001540281151561474757fe5b046002600082825401925050819055506064600a6007600081548110151561476b57fe5b90600052602060002001540281151561478057fe5b04600360008282540192505081905550600060646050600760008154811015156147a657fe5b9060005260206000200154028115156147bb57fe5b0490506064601482028115156147cd57fe5b048103600960008573ffffffffffffffffffffffffffffffffffffffff1673ffffffffffffffffffffffffffffffffffffffff168152602001908152602001600020600101600082825401925050819055506064600a820281151561482e57fe5b04600960008573ffffffffffffffffffffffffffffffffffffffff1673ffffffffffffffffffffffffffffffffffffffff168152602001908152602001600020600501600082825401925050819055506064600a820281151561488d57fe5b04600960008573ffffffffffffffffffffffffffffffffffffffff1673ffffffffffffffffffffffffffffffffffffffff16815260200190815260200160002060060160008282540192505081905550600860008473ffffffffffffffffffffffffffffffffffffffff1673ffffffffffffffffffffffffffffffffffffffff168152602001908152602001600020600401600081548092919060010191905055508273ffffffffffffffffffffffffffffffffffffffff1673ffffffffffffffffffffffffffffffffffffffff166108fc60646014840281151561496e57fe5b0483039081150290604051600060405180830381858888f1935050505015801561499c573d6000803e3d6000fd5b506064601482028115156149ac57fe5b0481036005600082825401925050819055506149c884846149ce565b50505050565b600160008154809291906001019190505550600154600860008473ffffffffffffffffffffffffffffffffffffffff1673ffffffffffffffffffffffffffffffffffffffff1681526020019081526020016000206000018190555080600860008473ffffffffffffffffffffffffffffffffffffffff1673ffffffffffffffffffffffffffffffffffffffff16815260200190815260200160002060010160006101000a81548173ffffffffffffffffffffffffffffffffffffffff021916908373ffffffffffffffffffffffffffffffffffffffff16021790555081600b6000600154815260200190815260200160002060006101000a81548173ffffffffffffffffffffffffffffffffffffffff021916908373ffffffffffffffffffffffffffffffffffffffff1602179055506001600860008473ffffffffffffffffffffffffffffffffffffffff1673ffffffffffffffffffffffffffffffffffffffff16815260200190815260200160002060090160006101000a81548160ff0219169083151502179055506000600860003373ffffffffffffffffffffffffffffffffffffffff1673ffffffffffffffffffffffffffffffffffffffff168152602001908152602001600020600501819055508073ffffffffffffffffffffffffffffffffffffffff168273ffffffffffffffffffffffffffffffffffffffff167fcc0bec1447060c88cdc5a739cf29cfa26c453574dd3f5b9e4dcc317d6401cb1c6001546040518082815260200191505060405180910390a35050565b828054828255906000526020600020908101928215614c85579160200282015b82811115614c845782518260006101000a81548173ffffffffffffffffffffffffffffffffffffffff021916908373ffffffffffffffffffffffffffffffffffffffff16021790555091602001919060010190614c2c565b5b509050614c929190614d09565b5090565b6101606040519081016040528060008152602001600073ffffffffffffffffffffffffffffffffffffffff16815260200160008152602001600081526020016000815260200160008152602001600081526020016060815260200160608152602001600015158152602001600081525090565b614d4991905b80821115614d4557600081816101000a81549073ffffffffffffffffffffffffffffffffffffffff021916905550600101614d0f565b5090565b9056fea165627a7a72305820cb127b0c9b5991094827e1813a834471ef4aad74577fd3487dd3ee9c88ede2980029",
  "source": "//SPDX-License-Identifier: UNLICENSED\npragma solidity >=0.5.1;\n\ncontract MLM {\n    address public ownerWallet;\n    uint256 public totalUsers;\n    uint256 public rewardWallet;\n    uint256 public levelRewardWallet;\n    uint256 public distributionWallet;\n    uint256 public totalAmountDistributed;\n    address[] public levelWinners;\n    \n    struct User {\n        uint256 id;\n        address inviter;\n        uint256 totalReferals;\n        uint256 totalRecycles;\n        uint256 dailyReferrals;\n        uint256 levelsPurchased;\n        uint256 upline;\n        address[] uplines;\n        address[] referral;\n        bool isExist;\n        uint256 loss;\n    }\n \n    struct UserIncomes{\n        uint256 id;\n        uint256 directIncome;\n        uint256 rewardIncome;\n        uint256 levelIncome;\n        uint256 recycleIncome;\n        uint256 recycleFund;\n        uint256 levelFund;\n        uint256 upgradeIncome;\n        uint256 levelRewardIncome;\n }\n \n struct UserLevels{\n    uint256 level1;\n    uint256 level2;\n    uint256 level3;\n }\n\n    uint256[] public levels;\n   \n    mapping(address => User) public users;\n    mapping(address => UserIncomes) public usersIncomes;\n    mapping(address => UserLevels) public userLevels;\n\n    mapping(uint256 => address) public users_ids;\n    \n    event Register(address indexed addr, address indexed inviter, uint256 id);\n    event BuyLevel(\n        address indexed addr,\n        address indexed upline,\n        uint8 level\n    );\n    event buyLevelEvent(address indexed _user, uint256 _level);\n\n    constructor() public{\n        totalUsers = 0;\n        ownerWallet = msg.sender;\n        levels.push(0.05 ether);\n        levels.push(0.01 ether);\n        levels.push(0.02 ether);\n        levels.push(0.03 ether);\n        levels.push(0.04 ether);\n        levels.push(0.05 ether);\n        levels.push(0.06 ether);\n        levels.push(0.07 ether);\n        levels.push(0.08 ether);\n        levels.push(0.09 ether);\n        levels.push(0.10 ether);\n        newUser(msg.sender, address(0));\n        users[msg.sender].levelsPurchased = 10;\n        users[msg.sender].referral= new address[](0);\n        users[msg.sender].upline = 0;\n        users[msg.sender].uplines = new address[](0);\n    }\n\n    function newUser(address _addr, address _inviter) private {\n        totalUsers++;\n        users[_addr].id = totalUsers;\n        users[_addr].inviter = _inviter;\n        users_ids[totalUsers] = _addr;\n        users[_addr].isExist = true;\n        \n        users[msg.sender].levelsPurchased = 0;\n        emit Register(_addr, _inviter, totalUsers);\n\n    }\n\n    function _register(\n        address _user,\n        address _inviter,\n        uint256 _value\n    ) private {\n        require(users[_user].id == 0, \"User arleady registered\");\n        require(users[_inviter].id != 0, \"Inviter not registered\");\n        require(_value >= levels[0], \"Insufficient funds\");\n\n        \n        rewardWallet += (levels[0] * 10) / 100;\n        levelRewardWallet += (levels[0] * 10) / 100;\n\n        uint256 referalMoney = (levels[0] * 80) / 100;\n        usersIncomes[_inviter].directIncome += (referalMoney - (referalMoney * 20) / 100);\n        usersIncomes[_inviter].recycleFund += (referalMoney * 10) / 100;\n        usersIncomes[_inviter].levelFund += (referalMoney * 10) / 100;\n        \n        // if(usersIncomes[_inviter].recycleFund>=levels[0])\n        // recycleId(_inviter);\n        \n        // if((usersIncomes[_inviter].levelFund>=levels[users[_inviter].levelsPurchased+1]) && users[_inviter].levelsPurchased < 10)\n        // autoBuyLevel(_inviter);\n        \n        users[_inviter].dailyReferrals++;\n        address(uint256(_inviter)).transfer(referalMoney - (referalMoney * 20) / 100);\n\n        totalAmountDistributed += (referalMoney - (referalMoney * 20) / 100);\n        \n        newUser(_user, _inviter);\n    }\n\n    function register(uint256  _inviter_id) external payable {\n        uint256 tempReferrerID = _inviter_id;\n        _register(msg.sender, users_ids[_inviter_id], msg.value);\n        address add;\n        uint256 id = _inviter_id;\n        if(users[users_ids[_inviter_id]].referral.length >= 4) {\n            add = findFreeReferrer(users_ids[_inviter_id]);\n            id = users[add].id;\n        }\n        // if(userLevels[users_ids[id]].level1<4){\n        //     userLevels[users_ids[id]].level1++;\n        //     if( userLevels[users_ids[id]].level1==4){\n        //         levelWinners.push(id);\n        //     }\n        // }\n\n        // else if(userLevels[users_ids[id]].level1>=4 && userLevels[users_ids[id]].level2<16){\n        //     userLevels[users_ids[id]].level2++;\n        //     if( userLevels[users_ids[id]].level2==16){\n        //         levelWinners.push(id);\n        //     }\n        // }\n\n        // else if(userLevels[users_ids[id]].level2>=16 && userLevels[users_ids[id]].level3<64){\n        //     userLevels[users_ids[id]].level3++;\n        //     if( userLevels[users_ids[id]].level3==64){\n        //         levelWinners.push(id);\n        //     }\n        // }\n        users[users_ids[id]].referral.push(msg.sender);\n        users[msg.sender].upline =id;\n        users[users_ids[tempReferrerID]].totalReferals++;\n    }\n\n    function buyLevel(uint256 _level) public payable {\n        require( _level > users[msg.sender].levelsPurchased,\"Already purchased level\" );\n        require(users[msg.sender].isExist, \"User not exist\");\n        require(_level > 0 && _level <= 10, \"Incorrect level\");\n        require(msg.value == levels[_level], \"Incorrect Value\");\n        require( users[msg.sender].levelsPurchased == _level - 1,\"You haven't purchased previous level yet\");\n      \n        uint256 upgradeAmount = (levels[_level] * 20) / 100;\n        address _inviter = users[msg.sender].inviter;\n        usersIncomes[_inviter].levelIncome += (upgradeAmount -(20 * upgradeAmount) / 100);\n        usersIncomes[_inviter].recycleFund +=(10 * upgradeAmount) /100;\n        usersIncomes[_inviter].levelFund += (10 * upgradeAmount) / 100;\n        // if(usersIncomes[_inviter].recycleFund>=levels[0])\n        // recycleId(_inviter);\n        \n        // if((usersIncomes[_inviter].levelFund>=levels[users[_inviter].levelsPurchased+1]) && users[_inviter].levelsPurchased < 10)\n        // autoBuyLevel(_inviter);\n\n        address(uint256(users[msg.sender].inviter)).transfer(\n            upgradeAmount - (20 * upgradeAmount) / 100\n        );\n\n        totalAmountDistributed += (upgradeAmount - (20 * upgradeAmount) / 100);\n\n        if (users[msg.sender].levelsPurchased + 1 < 10)\n            users[msg.sender].levelsPurchased += 1;\n\n        distributeLevelUpgradeAmount(_level);\n       \n        emit buyLevelEvent(msg.sender, _level);\n    }\n\n    function autoBuyLevel(address _user) public {\n\n        uint256 _level = users[_user].levelsPurchased + 1;\n        require(_level > 0 && _level <= 10, \"Incorrect level\");\n        require( usersIncomes[_user].levelFund >= levels[_level],\"Incorrect Value\");\n     \n        uint256 upgradeAmount = (levels[_level] * 20) / 100;\n        address _inviter= users[msg.sender].inviter;\n        usersIncomes[_inviter].levelIncome += (upgradeAmount -(20 * upgradeAmount) /100);\n        usersIncomes[_inviter].recycleFund +=(10 * upgradeAmount) /100;\n        usersIncomes[_inviter].levelFund +=(10 * upgradeAmount) /100;\n        \n        // if(usersIncomes[_inviter].recycleFund>=levels[0])\n        // recycleId(_inviter);\n        \n        // if((usersIncomes[_inviter].levelFund>=levels[users[_inviter].levelsPurchased+1]) && users[_inviter].levelsPurchased < 10)\n        // autoBuyLevel(_inviter);\n\n        address(uint256(users[_user].inviter)).transfer(\n            (upgradeAmount - (20 * upgradeAmount) / 100)\n        );\n\n        totalAmountDistributed += (upgradeAmount - (20 * upgradeAmount) / 100);\n        usersIncomes[_user].levelFund -= levels[_level];\n        users[_user].levelsPurchased += 1;\n\n         //level distribution is done\n        distributeLevelUpgradeAmount(_level);\n\n        emit buyLevelEvent(_user, _level);\n    }\n\n    function recycleId(address _user) public {\n        if(usersIncomes[_user].recycleFund >= levels[0]){\n            usersIncomes[_user].recycleFund -= levels[0];\n            users[_user].totalRecycles+=1;\n\n            uint256 referalMoney = (levels[0] * 80) / 100;\n\n            address _inviter = users[_user].inviter;\n            usersIncomes[_inviter].recycleIncome += (referalMoney -(referalMoney * 20) /100);\n            usersIncomes[_inviter].recycleFund += (referalMoney * 10) / 100;\n            usersIncomes[_inviter].levelFund += (referalMoney * 10) / 100;\n\n            address(uint256(_inviter)).transfer(referalMoney - (referalMoney * 20) / 100);\n            totalAmountDistributed += (referalMoney -(referalMoney * 20) /100);\n\n            rewardWallet += (levels[0] * 10) / 100;\n            levelRewardWallet += (levels[0] * 10) / 100;\n            \n            // if(usersIncomes[_inviter].recycleFund>=levels[0])\n            // recycleId(_inviter);\n        \n            // if((usersIncomes[_inviter].levelFund>=levels[users[_inviter].levelsPurchased+1]) && users[_inviter].levelsPurchased < 10)\n            // autoBuyLevel(_inviter);\n        }\n    }\n\n    function distributeReward(\n        address _winner1,\n        address _winner2,\n        address _winner3\n    ) public {\n     \n        uint256 first = (50 * rewardWallet) / 100;\n        uint256 second = (30 * rewardWallet) / 100;\n        uint256 third = (20 * rewardWallet) / 100;\n\n        usersIncomes[_winner1].rewardIncome += (first - (20 * first) / 100);\n        usersIncomes[_winner2].rewardIncome += (second - (20 * second) / 100);\n        usersIncomes[_winner3].rewardIncome += (third - (20 * third) / 100);\n\n        address(uint256(_winner1)).transfer(usersIncomes[_winner1].rewardIncome);\n        address(uint256(_winner2)).transfer(usersIncomes[_winner2].rewardIncome);\n        address(uint256(_winner3)).transfer(usersIncomes[_winner3].rewardIncome);\n\n        totalAmountDistributed += (usersIncomes[_winner1].rewardIncome + \n        usersIncomes[_winner2].rewardIncome + usersIncomes[_winner3].rewardIncome);\n\n        rewardWallet = 0;\n        \n        address _inviter1 = users[_winner1].inviter;\n        address _inviter2 = users[_winner2].inviter;\n        address _inviter3 = users[_winner3].inviter;\n        \n        usersIncomes[_inviter1].recycleFund += (10 * first) / 100;\n        usersIncomes[_inviter2].recycleFund += (10 * second) / 100;\n        usersIncomes[_inviter3].recycleFund += (10 * third) / 100;\n\n        usersIncomes[_inviter1].levelFund += (10 * first) / 100;\n        usersIncomes[_inviter2].levelFund += (10 * second) / 100;\n        usersIncomes[_inviter3].levelFund += (10 * third) / 100;\n\n        // if(usersIncomes[_inviter1].recycleFund>=levels[0])\n        // recycleId(_inviter2);\n        \n        // if((usersIncomes[_inviter1].levelFund >= levels[users[_inviter1].levelsPurchased+1]) && (users[_inviter1].levelsPurchased < 10))\n        // autoBuyLevel(_inviter1);\n\n        // if(usersIncomes[_inviter2].recycleFund>=levels[0])\n        // recycleId(_inviter2);\n        \n        if((usersIncomes[_inviter2].levelFund >= levels[users[_inviter2].levelsPurchased+1]) && (users[_inviter2].levelsPurchased < 10))\n        autoBuyLevel(_inviter2);\n\n        // if(usersIncomes[_inviter3].recycleFund>=levels[0])\n        // recycleId(_inviter3);\n        \n        if((usersIncomes[_inviter3].levelFund >= levels[users[_inviter3].levelsPurchased+1]) && (users[_inviter3].levelsPurchased < 10))\n        autoBuyLevel(_inviter3);\n\n    }\n\n\n    // function distributeLevelReward() public{\n    //     uint256 totalprice = levelRewardWallet/levelWinners.length;\n    //     uint256 price = totalprice - (20*totalprice)/100;\n    //     uint256 recyclePrice = (10*totalprice)/100;\n    //     uint256 levelPrice = (10*totalprice)/100;\n    //     for(uint256 i=0;i<levelWinners.length;i++){\n    //         address(uint256(users_ids[levelWinners[i]])).transfer(price);\n    //         usersIncomes[users_ids[levelWinners[i]]].levelRewardIncome += price;\n    //         address _inviter = users[users_ids[levelWinners[i]]].inviter;\n            \n    //         usersIncomes[_inviter].recycleFund += recyclePrice;\n    //         usersIncomes[_inviter].levelFund += levelPrice;\n            \n    //         // if(usersIncomes[_inviter].recycleFund>=levels[0])\n    //         // recycleId(_inviter);\n            \n    //         // if((usersIncomes[_inviter].levelFund >= levels[users[_inviter].levelsPurchased+1]) && (users[_inviter].levelsPurchased < 10))\n    //         // autoBuyLevel(_inviter);\n    //     }\n    //     totalAmountDistributed += price*levelWinners.length;\n    //     delete levelWinners;\n    // }\n\n    function distributeLevelUpgradeAmount(uint256 _level) public{\n        uint256 x = (levels[_level]*8)/100;\n        uint256 y = (20*x)/100;\n        uint256 price = (x-y);\n        setUplines(users[msg.sender].id);\n        address[] memory uplines = new address[](10);\n        uplines = users[msg.sender].uplines;\n        for(uint256 i=0;i<10;i++){\n            if(uplines[i]==address(0))\n            {\n                //some changes needed\n                distributionWallet += price; \n                break;\n            }\n            else if(users[uplines[i]].levelsPurchased>=(i+1)){\n                usersIncomes[uplines[i]].upgradeIncome += price;\n\n                usersIncomes[uplines[i]].recycleFund += (10*x)/100;\n                usersIncomes[uplines[i]].levelFund += (10*x)/100;\n                \n                // if(usersIncomes[users_ids[uplines[i]]].recycleFund>=levels[0])\n                // recycleId(users[users_ids[uplines[i]]].inviter);\n                \n                // if((usersIncomes[users_ids[user.upline]].levelFund >= levels[users[users_ids[user.upline]].levelsPurchased+1]) && (users[users_ids[user.uplines[i]]].levelsPurchased < 10))\n                // autoBuyLevel(users[users_ids[user.uplines[i]]].inviter);\n                \n                address(uint256(uplines[i])).transfer(price);\n                totalAmountDistributed += price;\n                \n            }\n\n            else{\n                users[uplines[i]].loss += price;\n                distributionWallet += price; \n            }\n           \n        }\n    }\n    \n    function getTotalAmountWithdrawn() public view returns (uint256) {\n        return totalAmountDistributed;\n    }\n\n    function getTotalUsers() public view returns (uint256) {\n        return totalUsers;\n    }\n\n    function getRewardWallet()public view returns (uint256) {\n        return rewardWallet;\n    }\n    function getLevelRewardWallet() public view returns (uint256) {\n        return levelRewardWallet;\n    }\n\n    function getDirectIncome(address _add) public view returns (uint256){\n        return usersIncomes[_add].directIncome;\n    }\n\n   function getUserInfo(uint256 _id)\n        public\n        view\n        returns (\n        address inviter,\n        uint256 totalReferals,\n        uint256 totalRecycles,\n        uint256 dailyReferrals,\n        uint256 levelsPurchased,\n        uint256 upline,\n        uint256 loss\n        )\n    {\n        User memory user = users[users_ids[_id]];\n        return (\n            user.inviter,\n            user.totalReferals,\n            user.totalRecycles,\n            user.dailyReferrals,\n            user.levelsPurchased,\n            user.upline,\n            user.loss\n        );\n    }\n    \n    function getUsersIncomes(uint256 _id) public view returns (\n        uint256 directIncome,\n        // uint256 rewardIncome,\n        uint256 levelIncome,\n        uint256 recycleIncome,\n        uint256 recycleFund,\n        // uint256 levelFund,\n        uint256 upgradeIncome,\n        uint256 levelRewardIncome\n        )\n        {\n        return (\n            usersIncomes[users_ids[_id]].directIncome,\n            // usersIncomes[users_ids[_id]].rewardIncome,\n            usersIncomes[users_ids[_id]].levelIncome,\n            usersIncomes[users_ids[_id]].recycleIncome,\n            usersIncomes[users_ids[_id]].recycleFund,\n            // usersIncomes[users_ids[_id]].levelFund,\n            usersIncomes[users_ids[_id]].upgradeIncome,\n            usersIncomes[users_ids[_id]].levelRewardIncome\n            );\n    }\n    function withDrawlevelFund() public {\n        require(users[msg.sender].levelsPurchased >= 10, \"you cannot withdraw amount\");\n\n        address(uint256(msg.sender)).transfer(\n            usersIncomes[msg.sender].levelFund\n        );\n\n        usersIncomes[msg.sender].levelFund = 0;\n    }\n   \n    function withdrawDistributionWallet() public{\n        require(msg.sender == ownerWallet,\"you are not owner\");\n        address(uint256(ownerWallet)).transfer(distributionWallet);\n        totalAmountDistributed += distributionWallet;\n        distributionWallet = 0;\n    }\n    function findFreeReferrer(address _user) public view returns(address) {\n        if(users[_user].referral.length < 4) return _user;\n\n        address[] memory referrals = new address[](20000);\n        referrals[0] = users[_user].referral[0];\n        referrals[1] = users[_user].referral[1];\n        referrals[2] = users[_user].referral[2];\n        referrals[3] = users[_user].referral[3];\n\n        address freeReferrer;\n        bool noFreeReferrer = true;\n\n        for(uint256 i = 0; i < 20000; i++) {\n            if(users[referrals[i]].referral.length == 4) {\n                    referrals[(i+1)*4] = users[referrals[i]].referral[0];\n                    referrals[(i+1)*4+1] = users[referrals[i]].referral[1];\n                    referrals[(i+1)*4+2] = users[referrals[i]].referral[2];\n                    referrals[(i+1)*4+3] = users[referrals[i]].referral[3];\n            }\n            else {\n                noFreeReferrer = false;\n                freeReferrer = referrals[i];\n                break;\n            }\n        }\n\n        require(!noFreeReferrer, 'No Free Referrer');\n\n        return freeReferrer;\n    }\n\n    function viewUserReferral(address _user) public view returns(address[] memory) {\n        return users[_user].referral;\n    }\n    \n    function setUplines(uint256 _id) public{\n        address[] memory uplinesLocal=new address[](10);\n        uint256 userId = users[users_ids[_id]].upline;\n        for(uint256 i=0;i<10;i++){\n            if(userId == 0)\n            break;\n            uplinesLocal[i]=users_ids[userId];\n            userId = users[users_ids[userId]].upline;\n        }\n        users[users_ids[_id]].uplines = uplinesLocal;\n       \n    }\n\n    function getUplines(uint256 _id) public view returns(address[] memory){\n        return users[users_ids[_id]].uplines;\n    }\n}\n",
  "sourcePath": "/home/neha/nexen-dashboard-new/contracts/MLM.sol",
  "compiler": {
    "name": "solc",
    "version": "0.5.1+commit.c8a2cb62.Emscripten.clang"
  },
  "schemaVersion": "3.1.0",
  "updatedAt": "2020-08-15T12:40:40.554Z",
  "networkType": "ethereum",
  "devdoc": {
    "methods": {}
  },
  "userdoc": {
    "methods": {}
  }
}