{
  "contractName": "MLM",
  "abi": [
    {
      "constant": true,
      "inputs": [
        {
          "name": "",
          "type": "uint256"
        }
      ],
      "name": "users_ids",
      "outputs": [
        {
          "name": "",
          "type": "address"
        }
      ],
      "payable": false,
      "stateMutability": "view",
      "type": "function"
    },
    {
      "constant": true,
      "inputs": [
        {
          "name": "",
          "type": "address"
        }
      ],
      "name": "userLevels",
      "outputs": [
        {
          "name": "level1",
          "type": "uint256"
        },
        {
          "name": "level2",
          "type": "uint256"
        },
        {
          "name": "level3",
          "type": "uint256"
        }
      ],
      "payable": false,
      "stateMutability": "view",
      "type": "function"
    },
    {
      "constant": true,
      "inputs": [],
      "name": "totalAmountDistributed",
      "outputs": [
        {
          "name": "",
          "type": "uint256"
        }
      ],
      "payable": false,
      "stateMutability": "view",
      "type": "function"
    },
    {
      "constant": true,
      "inputs": [],
      "name": "distributionWallet",
      "outputs": [
        {
          "name": "",
          "type": "uint256"
        }
      ],
      "payable": false,
      "stateMutability": "view",
      "type": "function"
    },
    {
      "constant": true,
      "inputs": [],
      "name": "levelRewardWallet",
      "outputs": [
        {
          "name": "",
          "type": "uint256"
        }
      ],
      "payable": false,
      "stateMutability": "view",
      "type": "function"
    },
    {
      "constant": true,
      "inputs": [
        {
          "name": "",
          "type": "uint256"
        }
      ],
      "name": "levelWinners",
      "outputs": [
        {
          "name": "",
          "type": "uint256"
        }
      ],
      "payable": false,
      "stateMutability": "view",
      "type": "function"
    },
    {
      "constant": true,
      "inputs": [],
      "name": "ownerWallet",
      "outputs": [
        {
          "name": "",
          "type": "address"
        }
      ],
      "payable": false,
      "stateMutability": "view",
      "type": "function"
    },
    {
      "constant": true,
      "inputs": [
        {
          "name": "",
          "type": "address"
        }
      ],
      "name": "users",
      "outputs": [
        {
          "name": "id",
          "type": "uint256"
        },
        {
          "name": "inviter",
          "type": "address"
        },
        {
          "name": "totalReferals",
          "type": "uint256"
        },
        {
          "name": "totalRecycles",
          "type": "uint256"
        },
        {
          "name": "dailyReferrals",
          "type": "uint256"
        },
        {
          "name": "levelsPurchased",
          "type": "uint256"
        },
        {
          "name": "upline",
          "type": "uint256"
        },
        {
          "name": "isExist",
          "type": "bool"
        },
        {
          "name": "loss",
          "type": "uint256"
        }
      ],
      "payable": false,
      "stateMutability": "view",
      "type": "function"
    },
    {
      "constant": true,
      "inputs": [
        {
          "name": "",
          "type": "address"
        }
      ],
      "name": "usersIncomes",
      "outputs": [
        {
          "name": "id",
          "type": "uint256"
        },
        {
          "name": "directIncome",
          "type": "uint256"
        },
        {
          "name": "rewardIncome",
          "type": "uint256"
        },
        {
          "name": "levelIncome",
          "type": "uint256"
        },
        {
          "name": "recycleIncome",
          "type": "uint256"
        },
        {
          "name": "recycleFund",
          "type": "uint256"
        },
        {
          "name": "levelFund",
          "type": "uint256"
        },
        {
          "name": "upgradeIncome",
          "type": "uint256"
        },
        {
          "name": "levelRewardIncome",
          "type": "uint256"
        }
      ],
      "payable": false,
      "stateMutability": "view",
      "type": "function"
    },
    {
      "constant": true,
      "inputs": [
        {
          "name": "",
          "type": "uint256"
        }
      ],
      "name": "levels",
      "outputs": [
        {
          "name": "",
          "type": "uint256"
        }
      ],
      "payable": false,
      "stateMutability": "view",
      "type": "function"
    },
    {
      "constant": true,
      "inputs": [],
      "name": "totalUsers",
      "outputs": [
        {
          "name": "",
          "type": "uint256"
        }
      ],
      "payable": false,
      "stateMutability": "view",
      "type": "function"
    },
    {
      "constant": true,
      "inputs": [],
      "name": "rewardWallet",
      "outputs": [
        {
          "name": "",
          "type": "uint256"
        }
      ],
      "payable": false,
      "stateMutability": "view",
      "type": "function"
    },
    {
      "inputs": [],
      "payable": false,
      "stateMutability": "nonpayable",
      "type": "constructor"
    },
    {
      "anonymous": false,
      "inputs": [
        {
          "indexed": true,
          "name": "addr",
          "type": "address"
        },
        {
          "indexed": true,
          "name": "inviter",
          "type": "address"
        },
        {
          "indexed": false,
          "name": "id",
          "type": "uint256"
        }
      ],
      "name": "Register",
      "type": "event"
    },
    {
      "anonymous": false,
      "inputs": [
        {
          "indexed": true,
          "name": "addr",
          "type": "address"
        },
        {
          "indexed": true,
          "name": "upline",
          "type": "address"
        },
        {
          "indexed": false,
          "name": "level",
          "type": "uint8"
        }
      ],
      "name": "BuyLevel",
      "type": "event"
    },
    {
      "anonymous": false,
      "inputs": [
        {
          "indexed": true,
          "name": "_user",
          "type": "address"
        },
        {
          "indexed": false,
          "name": "_level",
          "type": "uint256"
        }
      ],
      "name": "buyLevelEvent",
      "type": "event"
    },
    {
      "constant": false,
      "inputs": [
        {
          "name": "_inviter_id",
          "type": "uint256"
        }
      ],
      "name": "register",
      "outputs": [],
      "payable": true,
      "stateMutability": "payable",
      "type": "function"
    },
    {
      "constant": false,
      "inputs": [
        {
          "name": "_level",
          "type": "uint256"
        }
      ],
      "name": "buyLevel",
      "outputs": [],
      "payable": true,
      "stateMutability": "payable",
      "type": "function"
    },
    {
      "constant": false,
      "inputs": [
        {
          "name": "_user",
          "type": "address"
        }
      ],
      "name": "autoBuyLevel",
      "outputs": [],
      "payable": false,
      "stateMutability": "nonpayable",
      "type": "function"
    },
    {
      "constant": false,
      "inputs": [
        {
          "name": "_user",
          "type": "address"
        }
      ],
      "name": "recycleId",
      "outputs": [],
      "payable": false,
      "stateMutability": "nonpayable",
      "type": "function"
    },
    {
      "constant": false,
      "inputs": [
        {
          "name": "_winner1",
          "type": "address"
        },
        {
          "name": "_winner2",
          "type": "address"
        },
        {
          "name": "_winner3",
          "type": "address"
        }
      ],
      "name": "distributeReward",
      "outputs": [],
      "payable": false,
      "stateMutability": "nonpayable",
      "type": "function"
    },
    {
      "constant": false,
      "inputs": [],
      "name": "distributeLevelReward",
      "outputs": [],
      "payable": false,
      "stateMutability": "nonpayable",
      "type": "function"
    },
    {
      "constant": false,
      "inputs": [
        {
          "name": "_level",
          "type": "uint256"
        }
      ],
      "name": "distributeLevelUpgradeAmount",
      "outputs": [],
      "payable": false,
      "stateMutability": "nonpayable",
      "type": "function"
    },
    {
      "constant": true,
      "inputs": [],
      "name": "getTotalAmountWithdrawn",
      "outputs": [
        {
          "name": "",
          "type": "uint256"
        }
      ],
      "payable": false,
      "stateMutability": "view",
      "type": "function"
    },
    {
      "constant": true,
      "inputs": [],
      "name": "getTotalUsers",
      "outputs": [
        {
          "name": "",
          "type": "uint256"
        }
      ],
      "payable": false,
      "stateMutability": "view",
      "type": "function"
    },
    {
      "constant": true,
      "inputs": [],
      "name": "getRewardWallet",
      "outputs": [
        {
          "name": "",
          "type": "uint256"
        }
      ],
      "payable": false,
      "stateMutability": "view",
      "type": "function"
    },
    {
      "constant": true,
      "inputs": [],
      "name": "getLevelRewardWallet",
      "outputs": [
        {
          "name": "",
          "type": "uint256"
        }
      ],
      "payable": false,
      "stateMutability": "view",
      "type": "function"
    },
    {
      "constant": true,
      "inputs": [
        {
          "name": "_add",
          "type": "address"
        }
      ],
      "name": "getDirectIncome",
      "outputs": [
        {
          "name": "",
          "type": "uint256"
        }
      ],
      "payable": false,
      "stateMutability": "view",
      "type": "function"
    },
    {
      "constant": true,
      "inputs": [
        {
          "name": "_id",
          "type": "uint256"
        }
      ],
      "name": "getUserInfo",
      "outputs": [
        {
          "name": "inviter",
          "type": "address"
        },
        {
          "name": "totalReferals",
          "type": "uint256"
        },
        {
          "name": "totalRecycles",
          "type": "uint256"
        },
        {
          "name": "dailyReferrals",
          "type": "uint256"
        },
        {
          "name": "levelsPurchased",
          "type": "uint256"
        },
        {
          "name": "upline",
          "type": "uint256"
        }
      ],
      "payable": false,
      "stateMutability": "view",
      "type": "function"
    },
    {
      "constant": true,
      "inputs": [
        {
          "name": "_id",
          "type": "uint256"
        }
      ],
      "name": "getUsersIncomes",
      "outputs": [
        {
          "name": "directIncome",
          "type": "uint256"
        },
        {
          "name": "levelIncome",
          "type": "uint256"
        },
        {
          "name": "recycleIncome",
          "type": "uint256"
        },
        {
          "name": "recycleFund",
          "type": "uint256"
        },
        {
          "name": "upgradeIncome",
          "type": "uint256"
        },
        {
          "name": "levelRewardIncome",
          "type": "uint256"
        }
      ],
      "payable": false,
      "stateMutability": "view",
      "type": "function"
    },
    {
      "constant": false,
      "inputs": [],
      "name": "withDrawlevelFund",
      "outputs": [],
      "payable": false,
      "stateMutability": "nonpayable",
      "type": "function"
    },
    {
      "constant": false,
      "inputs": [],
      "name": "withdrawDistributionWallet",
      "outputs": [],
      "payable": false,
      "stateMutability": "nonpayable",
      "type": "function"
    },
    {
      "constant": true,
      "inputs": [
        {
          "name": "_user",
          "type": "address"
        }
      ],
      "name": "findFreeReferrer",
      "outputs": [
        {
          "name": "",
          "type": "address"
        }
      ],
      "payable": false,
      "stateMutability": "view",
      "type": "function"
    },
    {
      "constant": true,
      "inputs": [
        {
          "name": "_user",
          "type": "address"
        }
      ],
      "name": "viewUserReferral",
      "outputs": [
        {
          "name": "",
          "type": "address[]"
        }
      ],
      "payable": false,
      "stateMutability": "view",
      "type": "function"
    }
  ],
  "bytecode": "0x60806040523480156200001157600080fd5b506000600181905550336000806101000a81548173ffffffffffffffffffffffffffffffffffffffff021916908373ffffffffffffffffffffffffffffffffffffffff160217905550600766b1a2bc2ec5000090806001815401808255809150509060018203906000526020600020016000909192909190915055506007662386f26fc100009080600181540180825580915050906001820390600052602060002001600090919290919091505550600766470de4df82000090806001815401808255809150509060018203906000526020600020016000909192909190915055506007666a94d74f43000090806001815401808255809150509060018203906000526020600020016000909192909190915055506007668e1bc9bf0400009080600181540180825580915050906001820390600052602060002001600090919290919091505550600766b1a2bc2ec500009080600181540180825580915050906001820390600052602060002001600090919290919091505550600766d529ae9e8600009080600181540180825580915050906001820390600052602060002001600090919290919091505550600766f8b0a10e4700009080600181540180825580915050906001820390600052602060002001600090919290919091505550600767011c37937e0800009080600181540180825580915050906001820390600052602060002001600090919290919091505550600767013fbe85edc900009080600181540180825580915050906001820390600052602060002001600090919290919091505550600767016345785d8a00009080600181540180825580915050906001820390600052602060002001600090919290919091505550620002aa336000620003ca640100000000026401000000009004565b600a600860003373ffffffffffffffffffffffffffffffffffffffff1673ffffffffffffffffffffffffffffffffffffffff168152602001908152602001600020600501819055506000604051908082528060200260200182016040528015620003235781602001602082028038833980820191505090505b50600860003373ffffffffffffffffffffffffffffffffffffffff1673ffffffffffffffffffffffffffffffffffffffff16815260200190815260200160002060070190805190602001906200037b92919062000608565b506000600860003373ffffffffffffffffffffffffffffffffffffffff1673ffffffffffffffffffffffffffffffffffffffff16815260200190815260200160002060060181905550620006dd565b600160008154809291906001019190505550600154600860008473ffffffffffffffffffffffffffffffffffffffff1673ffffffffffffffffffffffffffffffffffffffff1681526020019081526020016000206000018190555080600860008473ffffffffffffffffffffffffffffffffffffffff1673ffffffffffffffffffffffffffffffffffffffff16815260200190815260200160002060010160006101000a81548173ffffffffffffffffffffffffffffffffffffffff021916908373ffffffffffffffffffffffffffffffffffffffff16021790555081600b6000600154815260200190815260200160002060006101000a81548173ffffffffffffffffffffffffffffffffffffffff021916908373ffffffffffffffffffffffffffffffffffffffff1602179055506001600860008473ffffffffffffffffffffffffffffffffffffffff1673ffffffffffffffffffffffffffffffffffffffff16815260200190815260200160002060080160006101000a81548160ff0219169083151502179055506000600860003373ffffffffffffffffffffffffffffffffffffffff1673ffffffffffffffffffffffffffffffffffffffff168152602001908152602001600020600501819055508073ffffffffffffffffffffffffffffffffffffffff168273ffffffffffffffffffffffffffffffffffffffff167fcc0bec1447060c88cdc5a739cf29cfa26c453574dd3f5b9e4dcc317d6401cb1c6001546040518082815260200191505060405180910390a35050565b82805482825590600052602060002090810192821562000684579160200282015b82811115620006835782518260006101000a81548173ffffffffffffffffffffffffffffffffffffffff021916908373ffffffffffffffffffffffffffffffffffffffff1602179055509160200191906001019062000629565b5b50905062000693919062000697565b5090565b620006da91905b80821115620006d657600081816101000a81549073ffffffffffffffffffffffffffffffffffffffff0219169055506001016200069e565b5090565b90565b61517e80620006ed6000396000f3fe60806040526004361061017a576000357c010000000000000000000000000000000000000000000000000000000090048063085bea3c1461017f578063118be0d8146101fa578063132c8c9b1461023557806315d1496f146102c657806330413ccf146102dd57806334ebff14146103505780633710040e1461037b57806339b728ac14610392578063467d0119146103bd5780634a4baa8f146103e8578063521181d51461048e5780635eccfb6d1461051f5780636c72f1231461054a578063720f64b51461056157806375103d6a146105b25780639335dcb7146106015780639be572f614610658578063a87430ba14610683578063a8e1c61014610750578063ab5bc49f146107c2578063acc87b2e14610827578063b2596a67146108c4578063beb2861014610913578063bff1f9e114610964578063d379dadf1461098f578063d67dff0114610a2d578063e405ca0114610a58578063f207564e14610a83578063f6838a7214610ab1578063fb75b2c714610adf575b600080fd5b34801561018b57600080fd5b506101b8600480360360208110156101a257600080fd5b8101908080359060200190929190505050610b0a565b604051808273ffffffffffffffffffffffffffffffffffffffff1673ffffffffffffffffffffffffffffffffffffffff16815260200191505060405180910390f35b34801561020657600080fd5b506102336004803603602081101561021d57600080fd5b8101908080359060200190929190505050610b3d565b005b34801561024157600080fd5b506102846004803603602081101561025857600080fd5b81019080803573ffffffffffffffffffffffffffffffffffffffff16906020019092919050505061105d565b604051808273ffffffffffffffffffffffffffffffffffffffff1673ffffffffffffffffffffffffffffffffffffffff16815260200191505060405180910390f35b3480156102d257600080fd5b506102db6118c8565b005b3480156102e957600080fd5b5061032c6004803603602081101561030057600080fd5b81019080803573ffffffffffffffffffffffffffffffffffffffff169060200190929190505050611c02565b60405180848152602001838152602001828152602001935050505060405180910390f35b34801561035c57600080fd5b50610365611c2c565b6040518082815260200191505060405180910390f35b34801561038757600080fd5b50610390611c36565b005b34801561039e57600080fd5b506103a7611dda565b6040518082815260200191505060405180910390f35b3480156103c957600080fd5b506103d2611de0565b6040518082815260200191505060405180910390f35b3480156103f457600080fd5b506104376004803603602081101561040b57600080fd5b81019080803573ffffffffffffffffffffffffffffffffffffffff169060200190929190505050611de6565b6040518080602001828103825283818151815260200191508051906020019060200280838360005b8381101561047a57808201518184015260208101905061045f565b505050509050019250505060405180910390f35b34801561049a57600080fd5b5061051d600480360360608110156104b157600080fd5b81019080803573ffffffffffffffffffffffffffffffffffffffff169060200190929190803573ffffffffffffffffffffffffffffffffffffffff169060200190929190803573ffffffffffffffffffffffffffffffffffffffff169060200190929190505050611eb6565b005b34801561052b57600080fd5b50610534612856565b6040518082815260200191505060405180910390f35b34801561055657600080fd5b5061055f61285c565b005b34801561056d57600080fd5b506105b06004803603602081101561058457600080fd5b81019080803573ffffffffffffffffffffffffffffffffffffffff1690602001909291905050506129bc565b005b3480156105be57600080fd5b506105eb600480360360208110156105d557600080fd5b8101908080359060200190929190505050612f19565b6040518082815260200191505060405180910390f35b34801561060d57600080fd5b50610616612f3c565b604051808273ffffffffffffffffffffffffffffffffffffffff1673ffffffffffffffffffffffffffffffffffffffff16815260200191505060405180910390f35b34801561066457600080fd5b5061066d612f61565b6040518082815260200191505060405180910390f35b34801561068f57600080fd5b506106d2600480360360208110156106a657600080fd5b81019080803573ffffffffffffffffffffffffffffffffffffffff169060200190929190505050612f6b565b604051808a81526020018973ffffffffffffffffffffffffffffffffffffffff1673ffffffffffffffffffffffffffffffffffffffff16815260200188815260200187815260200186815260200185815260200184815260200183151515158152602001828152602001995050505050505050505060405180910390f35b34801561075c57600080fd5b506107896004803603602081101561077357600080fd5b8101908080359060200190929190505050612fe6565b60405180878152602001868152602001858152602001848152602001838152602001828152602001965050505050505060405180910390f35b3480156107ce57600080fd5b50610811600480360360208110156107e557600080fd5b81019080803573ffffffffffffffffffffffffffffffffffffffff1690602001909291905050506132c8565b6040518082815260200191505060405180910390f35b34801561083357600080fd5b506108766004803603602081101561084a57600080fd5b81019080803573ffffffffffffffffffffffffffffffffffffffff169060200190929190505050613314565b604051808a8152602001898152602001888152602001878152602001868152602001858152602001848152602001838152602001828152602001995050505050505050505060405180910390f35b3480156108d057600080fd5b506108fd600480360360208110156108e757600080fd5b8101908080359060200190929190505050613362565b6040518082815260200191505060405180910390f35b34801561091f57600080fd5b506109626004803603602081101561093657600080fd5b81019080803573ffffffffffffffffffffffffffffffffffffffff169060200190929190505050613385565b005b34801561097057600080fd5b50610979613760565b6040518082815260200191505060405180910390f35b34801561099b57600080fd5b506109c8600480360360208110156109b257600080fd5b8101908080359060200190929190505050613766565b604051808773ffffffffffffffffffffffffffffffffffffffff1673ffffffffffffffffffffffffffffffffffffffff168152602001868152602001858152602001848152602001838152602001828152602001965050505050505060405180910390f35b348015610a3957600080fd5b50610a42613971565b6040518082815260200191505060405180910390f35b348015610a6457600080fd5b50610a6d61397b565b6040518082815260200191505060405180910390f35b610aaf60048036036020811015610a9957600080fd5b8101908080359060200190929190505050613985565b005b610add60048036036020811015610ac757600080fd5b810190808035906020019092919050505061429a565b005b348015610aeb57600080fd5b50610af46149a5565b6040518082815260200191505060405180910390f35b600b6020528060005260406000206000915054906101000a900473ffffffffffffffffffffffffffffffffffffffff1681565b600060646008600784815481101515610b5257fe5b906000526020600020015402811515610b6757fe5b0490506000606482601402811515610b7b57fe5b049050600081830390506000600860003373ffffffffffffffffffffffffffffffffffffffff1673ffffffffffffffffffffffffffffffffffffffff16815260200190815260200160002060060154905060008090505b600a81101561105557600060086000600b600086815260200190815260200160002060009054906101000a900473ffffffffffffffffffffffffffffffffffffffff1673ffffffffffffffffffffffffffffffffffffffff1673ffffffffffffffffffffffffffffffffffffffff168152602001908152602001600020600601541415610c6e5782600460008282540192505081905550611048565b6001810160086000600b600086815260200190815260200160002060009054906101000a900473ffffffffffffffffffffffffffffffffffffffff1673ffffffffffffffffffffffffffffffffffffffff1673ffffffffffffffffffffffffffffffffffffffff16815260200190815260200160002060050154101515610fb3578260096000600b600086815260200190815260200160002060009054906101000a900473ffffffffffffffffffffffffffffffffffffffff1673ffffffffffffffffffffffffffffffffffffffff1673ffffffffffffffffffffffffffffffffffffffff16815260200190815260200160002060070160008282540192505081905550606485600a02811515610d8157fe5b0460096000600b600086815260200190815260200160002060009054906101000a900473ffffffffffffffffffffffffffffffffffffffff1673ffffffffffffffffffffffffffffffffffffffff1673ffffffffffffffffffffffffffffffffffffffff16815260200190815260200160002060050160008282540192505081905550606485600a02811515610e1357fe5b0460096000600b600086815260200190815260200160002060009054906101000a900473ffffffffffffffffffffffffffffffffffffffff1673ffffffffffffffffffffffffffffffffffffffff1673ffffffffffffffffffffffffffffffffffffffff16815260200190815260200160002060060160008282540192505081905550600b600083815260200190815260200160002060009054906101000a900473ffffffffffffffffffffffffffffffffffffffff1673ffffffffffffffffffffffffffffffffffffffff1673ffffffffffffffffffffffffffffffffffffffff166108fc849081150290604051600060405180830381858888f19350505050158015610f25573d6000803e3d6000fd5b508260056000828254019250508190555060086000600b600085815260200190815260200160002060009054906101000a900473ffffffffffffffffffffffffffffffffffffffff1673ffffffffffffffffffffffffffffffffffffffff1673ffffffffffffffffffffffffffffffffffffffff168152602001908152602001600020600601549150611047565b8260086000600b600086815260200190815260200160002060009054906101000a900473ffffffffffffffffffffffffffffffffffffffff1673ffffffffffffffffffffffffffffffffffffffff1673ffffffffffffffffffffffffffffffffffffffff16815260200190815260200160002060090160008282540192505081905550826004600082825401925050819055505b5b8080600101915050610bd2565b505050505050565b60006004600860008473ffffffffffffffffffffffffffffffffffffffff1673ffffffffffffffffffffffffffffffffffffffff1681526020019081526020016000206007018054905010156110b5578190506118c3565b6060614e206040519080825280602002602001820160405280156110e85781602001602082028038833980820191505090505b509050600860008473ffffffffffffffffffffffffffffffffffffffff1673ffffffffffffffffffffffffffffffffffffffff168152602001908152602001600020600701600081548110151561113b57fe5b9060005260206000200160009054906101000a900473ffffffffffffffffffffffffffffffffffffffff1681600081518110151561117557fe5b9060200190602002019073ffffffffffffffffffffffffffffffffffffffff16908173ffffffffffffffffffffffffffffffffffffffff1681525050600860008473ffffffffffffffffffffffffffffffffffffffff1673ffffffffffffffffffffffffffffffffffffffff168152602001908152602001600020600701600181548110151561120157fe5b9060005260206000200160009054906101000a900473ffffffffffffffffffffffffffffffffffffffff1681600181518110151561123b57fe5b9060200190602002019073ffffffffffffffffffffffffffffffffffffffff16908173ffffffffffffffffffffffffffffffffffffffff1681525050600860008473ffffffffffffffffffffffffffffffffffffffff1673ffffffffffffffffffffffffffffffffffffffff16815260200190815260200160002060070160028154811015156112c757fe5b9060005260206000200160009054906101000a900473ffffffffffffffffffffffffffffffffffffffff1681600281518110151561130157fe5b9060200190602002019073ffffffffffffffffffffffffffffffffffffffff16908173ffffffffffffffffffffffffffffffffffffffff1681525050600860008473ffffffffffffffffffffffffffffffffffffffff1673ffffffffffffffffffffffffffffffffffffffff168152602001908152602001600020600701600381548110151561138d57fe5b9060005260206000200160009054906101000a900473ffffffffffffffffffffffffffffffffffffffff168160038151811015156113c757fe5b9060200190602002019073ffffffffffffffffffffffffffffffffffffffff16908173ffffffffffffffffffffffffffffffffffffffff16815250506000806001905060008090505b614e2081101561184557600460086000868481518110151561142e57fe5b9060200190602002015173ffffffffffffffffffffffffffffffffffffffff1673ffffffffffffffffffffffffffffffffffffffff1681526020019081526020016000206007018054905014156118155760086000858381518110151561149157fe5b9060200190602002015173ffffffffffffffffffffffffffffffffffffffff1673ffffffffffffffffffffffffffffffffffffffff16815260200190815260200160002060070160008154811015156114e657fe5b9060005260206000200160009054906101000a900473ffffffffffffffffffffffffffffffffffffffff16846004600184010281518110151561152557fe5b9060200190602002019073ffffffffffffffffffffffffffffffffffffffff16908173ffffffffffffffffffffffffffffffffffffffff168152505060086000858381518110151561157357fe5b9060200190602002015173ffffffffffffffffffffffffffffffffffffffff1673ffffffffffffffffffffffffffffffffffffffff16815260200190815260200160002060070160018154811015156115c857fe5b9060005260206000200160009054906101000a900473ffffffffffffffffffffffffffffffffffffffff16846001600460018501020181518110151561160a57fe5b9060200190602002019073ffffffffffffffffffffffffffffffffffffffff16908173ffffffffffffffffffffffffffffffffffffffff168152505060086000858381518110151561165857fe5b9060200190602002015173ffffffffffffffffffffffffffffffffffffffff1673ffffffffffffffffffffffffffffffffffffffff16815260200190815260200160002060070160028154811015156116ad57fe5b9060005260206000200160009054906101000a900473ffffffffffffffffffffffffffffffffffffffff1684600260046001850102018151811015156116ef57fe5b9060200190602002019073ffffffffffffffffffffffffffffffffffffffff16908173ffffffffffffffffffffffffffffffffffffffff168152505060086000858381518110151561173d57fe5b9060200190602002015173ffffffffffffffffffffffffffffffffffffffff1673ffffffffffffffffffffffffffffffffffffffff168152602001908152602001600020600701600381548110151561179257fe5b9060005260206000200160009054906101000a900473ffffffffffffffffffffffffffffffffffffffff1684600360046001850102018151811015156117d457fe5b9060200190602002019073ffffffffffffffffffffffffffffffffffffffff16908173ffffffffffffffffffffffffffffffffffffffff1681525050611838565b60009150838181518110151561182757fe5b906020019060200201519250611845565b8080600101915050611410565b50801515156118bc576040517f08c379a00000000000000000000000000000000000000000000000000000000081526004018080602001828103825260108152602001807f4e6f20467265652052656665727265720000000000000000000000000000000081525060200191505060405180910390fd5b8193505050505b919050565b60006006805490506003548115156118dc57fe5b04905060006064826014028115156118f057fe5b04820390506000606483600a0281151561190657fe5b0490506000606484600a0281151561191a57fe5b04905060008090505b600680549050811015611bd657600b600060068381548110151561194357fe5b9060005260206000200154815260200190815260200160002060009054906101000a900473ffffffffffffffffffffffffffffffffffffffff1673ffffffffffffffffffffffffffffffffffffffff1673ffffffffffffffffffffffffffffffffffffffff166108fc859081150290604051600060405180830381858888f193505050501580156119d8573d6000803e3d6000fd5b508360096000600b60006006868154811015156119f157fe5b9060005260206000200154815260200190815260200160002060009054906101000a900473ffffffffffffffffffffffffffffffffffffffff1673ffffffffffffffffffffffffffffffffffffffff1673ffffffffffffffffffffffffffffffffffffffff16815260200190815260200160002060080160008282540192505081905550600060086000600b6000600686815481101515611a8e57fe5b9060005260206000200154815260200190815260200160002060009054906101000a900473ffffffffffffffffffffffffffffffffffffffff1673ffffffffffffffffffffffffffffffffffffffff1673ffffffffffffffffffffffffffffffffffffffff16815260200190815260200160002060010160009054906101000a900473ffffffffffffffffffffffffffffffffffffffff16905083600960008373ffffffffffffffffffffffffffffffffffffffff1673ffffffffffffffffffffffffffffffffffffffff1681526020019081526020016000206005016000828254019250508190555082600960008373ffffffffffffffffffffffffffffffffffffffff1673ffffffffffffffffffffffffffffffffffffffff16815260200190815260200160002060060160008282540192505081905550508080600101915050611923565b50600680549050830260056000828254019250508190555060066000611bfc91906150a0565b50505050565b600a6020528060005260406000206000915090508060000154908060010154908060020154905083565b6000600354905090565b600a600860003373ffffffffffffffffffffffffffffffffffffffff1673ffffffffffffffffffffffffffffffffffffffff1681526020019081526020016000206005015410151515611cf1576040517f08c379a000000000000000000000000000000000000000000000000000000000815260040180806020018281038252601a8152602001807f796f752063616e6e6f7420776974686472617720616d6f756e7400000000000081525060200191505060405180910390fd5b3373ffffffffffffffffffffffffffffffffffffffff1673ffffffffffffffffffffffffffffffffffffffff166108fc600960003373ffffffffffffffffffffffffffffffffffffffff1673ffffffffffffffffffffffffffffffffffffffff168152602001908152602001600020600601549081150290604051600060405180830381858888f19350505050158015611d8f573d6000803e3d6000fd5b506000600960003373ffffffffffffffffffffffffffffffffffffffff1673ffffffffffffffffffffffffffffffffffffffff16815260200190815260200160002060060181905550565b60055481565b60045481565b6060600860008373ffffffffffffffffffffffffffffffffffffffff1673ffffffffffffffffffffffffffffffffffffffff168152602001908152602001600020600701805480602002602001604051908101604052809291908181526020018280548015611eaa57602002820191906000526020600020905b8160009054906101000a900473ffffffffffffffffffffffffffffffffffffffff1673ffffffffffffffffffffffffffffffffffffffff1681526020019060010190808311611e60575b50505050509050919050565b60006064600254603202811515611ec957fe5b04905060006064600254601e02811515611edf57fe5b04905060006064600254601402811515611ef557fe5b049050606483601402811515611f0757fe5b048303600960008873ffffffffffffffffffffffffffffffffffffffff1673ffffffffffffffffffffffffffffffffffffffff16815260200190815260200160002060020160008282540192505081905550606482601402811515611f6857fe5b048203600960008773ffffffffffffffffffffffffffffffffffffffff1673ffffffffffffffffffffffffffffffffffffffff16815260200190815260200160002060020160008282540192505081905550606481601402811515611fc957fe5b048103600960008673ffffffffffffffffffffffffffffffffffffffff1673ffffffffffffffffffffffffffffffffffffffff168152602001908152602001600020600201600082825401925050819055508573ffffffffffffffffffffffffffffffffffffffff1673ffffffffffffffffffffffffffffffffffffffff166108fc600960008973ffffffffffffffffffffffffffffffffffffffff1673ffffffffffffffffffffffffffffffffffffffff168152602001908152602001600020600201549081150290604051600060405180830381858888f193505050501580156120b9573d6000803e3d6000fd5b508473ffffffffffffffffffffffffffffffffffffffff1673ffffffffffffffffffffffffffffffffffffffff166108fc600960008873ffffffffffffffffffffffffffffffffffffffff1673ffffffffffffffffffffffffffffffffffffffff168152602001908152602001600020600201549081150290604051600060405180830381858888f19350505050158015612158573d6000803e3d6000fd5b508373ffffffffffffffffffffffffffffffffffffffff1673ffffffffffffffffffffffffffffffffffffffff166108fc600960008773ffffffffffffffffffffffffffffffffffffffff1673ffffffffffffffffffffffffffffffffffffffff168152602001908152602001600020600201549081150290604051600060405180830381858888f193505050501580156121f7573d6000803e3d6000fd5b50600960008573ffffffffffffffffffffffffffffffffffffffff1673ffffffffffffffffffffffffffffffffffffffff16815260200190815260200160002060020154600960008773ffffffffffffffffffffffffffffffffffffffff1673ffffffffffffffffffffffffffffffffffffffff16815260200190815260200160002060020154600960008973ffffffffffffffffffffffffffffffffffffffff1673ffffffffffffffffffffffffffffffffffffffff16815260200190815260200160002060020154010160056000828254019250508190555060006002819055506000600860008873ffffffffffffffffffffffffffffffffffffffff1673ffffffffffffffffffffffffffffffffffffffff16815260200190815260200160002060010160009054906101000a900473ffffffffffffffffffffffffffffffffffffffff1690506000600860008873ffffffffffffffffffffffffffffffffffffffff1673ffffffffffffffffffffffffffffffffffffffff16815260200190815260200160002060010160009054906101000a900473ffffffffffffffffffffffffffffffffffffffff1690506000600860008873ffffffffffffffffffffffffffffffffffffffff1673ffffffffffffffffffffffffffffffffffffffff16815260200190815260200160002060010160009054906101000a900473ffffffffffffffffffffffffffffffffffffffff169050606486600a0281151561241e57fe5b04600960008573ffffffffffffffffffffffffffffffffffffffff1673ffffffffffffffffffffffffffffffffffffffff16815260200190815260200160002060050160008282540192505081905550606485600a0281151561247d57fe5b04600960008473ffffffffffffffffffffffffffffffffffffffff1673ffffffffffffffffffffffffffffffffffffffff16815260200190815260200160002060050160008282540192505081905550606484600a028115156124dc57fe5b04600960008373ffffffffffffffffffffffffffffffffffffffff1673ffffffffffffffffffffffffffffffffffffffff16815260200190815260200160002060050160008282540192505081905550606486600a0281151561253b57fe5b04600960008573ffffffffffffffffffffffffffffffffffffffff1673ffffffffffffffffffffffffffffffffffffffff16815260200190815260200160002060060160008282540192505081905550606485600a0281151561259a57fe5b04600960008473ffffffffffffffffffffffffffffffffffffffff1673ffffffffffffffffffffffffffffffffffffffff16815260200190815260200160002060060160008282540192505081905550606484600a028115156125f957fe5b04600960008373ffffffffffffffffffffffffffffffffffffffff1673ffffffffffffffffffffffffffffffffffffffff1681526020019081526020016000206006016000828254019250508190555060076001600860008573ffffffffffffffffffffffffffffffffffffffff1673ffffffffffffffffffffffffffffffffffffffff168152602001908152602001600020600501540181548110151561269d57fe5b9060005260206000200154600960008473ffffffffffffffffffffffffffffffffffffffff1673ffffffffffffffffffffffffffffffffffffffff168152602001908152602001600020600601541015801561273b5750600a600860008473ffffffffffffffffffffffffffffffffffffffff1673ffffffffffffffffffffffffffffffffffffffff16815260200190815260200160002060050154105b1561274a57612749826129bc565b5b60076001600860008473ffffffffffffffffffffffffffffffffffffffff1673ffffffffffffffffffffffffffffffffffffffff168152602001908152602001600020600501540181548110151561279e57fe5b9060005260206000200154600960008373ffffffffffffffffffffffffffffffffffffffff1673ffffffffffffffffffffffffffffffffffffffff168152602001908152602001600020600601541015801561283c5750600a600860008373ffffffffffffffffffffffffffffffffffffffff1673ffffffffffffffffffffffffffffffffffffffff16815260200190815260200160002060050154105b1561284b5761284a816129bc565b5b505050505050505050565b60035481565b6000809054906101000a900473ffffffffffffffffffffffffffffffffffffffff1673ffffffffffffffffffffffffffffffffffffffff163373ffffffffffffffffffffffffffffffffffffffff16141515612920576040517f08c379a00000000000000000000000000000000000000000000000000000000081526004018080602001828103825260118152602001807f796f7520617265206e6f74206f776e657200000000000000000000000000000081525060200191505060405180910390fd5b6000809054906101000a900473ffffffffffffffffffffffffffffffffffffffff1673ffffffffffffffffffffffffffffffffffffffff1673ffffffffffffffffffffffffffffffffffffffff166108fc6004549081150290604051600060405180830381858888f1935050505015801561299f573d6000803e3d6000fd5b506004546005600082825401925050819055506000600481905550565b60006001600860008473ffffffffffffffffffffffffffffffffffffffff1673ffffffffffffffffffffffffffffffffffffffff16815260200190815260200160002060050154019050600081118015612a175750600a8111155b1515612a8b576040517f08c379a000000000000000000000000000000000000000000000000000000000815260040180806020018281038252600f8152602001807f496e636f7272656374206c6576656c000000000000000000000000000000000081525060200191505060405180910390fd5b600781815481101515612a9a57fe5b9060005260206000200154600960008473ffffffffffffffffffffffffffffffffffffffff1673ffffffffffffffffffffffffffffffffffffffff1681526020019081526020016000206006015410151515612b5e576040517f08c379a000000000000000000000000000000000000000000000000000000000815260040180806020018281038252600f8152602001807f496e636f72726563742056616c7565000000000000000000000000000000000081525060200191505060405180910390fd5b600060646014600784815481101515612b7357fe5b906000526020600020015402811515612b8857fe5b0490506000600860003373ffffffffffffffffffffffffffffffffffffffff1673ffffffffffffffffffffffffffffffffffffffff16815260200190815260200160002060010160009054906101000a900473ffffffffffffffffffffffffffffffffffffffff169050606482601402811515612c0157fe5b048203600960008373ffffffffffffffffffffffffffffffffffffffff1673ffffffffffffffffffffffffffffffffffffffff16815260200190815260200160002060030160008282540192505081905550606482600a02811515612c6257fe5b04600960008373ffffffffffffffffffffffffffffffffffffffff1673ffffffffffffffffffffffffffffffffffffffff16815260200190815260200160002060050160008282540192505081905550606482600a02811515612cc157fe5b04600960008373ffffffffffffffffffffffffffffffffffffffff1673ffffffffffffffffffffffffffffffffffffffff16815260200190815260200160002060060160008282540192505081905550600860008573ffffffffffffffffffffffffffffffffffffffff1673ffffffffffffffffffffffffffffffffffffffff16815260200190815260200160002060010160009054906101000a900473ffffffffffffffffffffffffffffffffffffffff1673ffffffffffffffffffffffffffffffffffffffff1673ffffffffffffffffffffffffffffffffffffffff166108fc606484601402811515612db257fe5b0484039081150290604051600060405180830381858888f19350505050158015612de0573d6000803e3d6000fd5b50606482601402811515612df057fe5b048203600560008282540192505081905550600783815481101515612e1157fe5b9060005260206000200154600960008673ffffffffffffffffffffffffffffffffffffffff1673ffffffffffffffffffffffffffffffffffffffff168152602001908152602001600020600601600082825403925050819055506001600860008673ffffffffffffffffffffffffffffffffffffffff1673ffffffffffffffffffffffffffffffffffffffff16815260200190815260200160002060050160008282540192505081905550612ec583610b3d565b8373ffffffffffffffffffffffffffffffffffffffff167f94ea718a6517c74ee4da32e6297595705048e7f1ca05b3133069c756cff40421846040518082815260200191505060405180910390a250505050565b600681815481101515612f2857fe5b906000526020600020016000915090505481565b6000809054906101000a900473ffffffffffffffffffffffffffffffffffffffff1681565b6000600154905090565b60086020528060005260406000206000915090508060000154908060010160009054906101000a900473ffffffffffffffffffffffffffffffffffffffff16908060020154908060030154908060040154908060050154908060060154908060080160009054906101000a900460ff16908060090154905089565b60008060008060008060096000600b60008a815260200190815260200160002060009054906101000a900473ffffffffffffffffffffffffffffffffffffffff1673ffffffffffffffffffffffffffffffffffffffff1673ffffffffffffffffffffffffffffffffffffffff1681526020019081526020016000206001015460096000600b60008b815260200190815260200160002060009054906101000a900473ffffffffffffffffffffffffffffffffffffffff1673ffffffffffffffffffffffffffffffffffffffff1673ffffffffffffffffffffffffffffffffffffffff1681526020019081526020016000206003015460096000600b60008c815260200190815260200160002060009054906101000a900473ffffffffffffffffffffffffffffffffffffffff1673ffffffffffffffffffffffffffffffffffffffff1673ffffffffffffffffffffffffffffffffffffffff1681526020019081526020016000206004015460096000600b60008d815260200190815260200160002060009054906101000a900473ffffffffffffffffffffffffffffffffffffffff1673ffffffffffffffffffffffffffffffffffffffff1673ffffffffffffffffffffffffffffffffffffffff1681526020019081526020016000206005015460096000600b60008e815260200190815260200160002060009054906101000a900473ffffffffffffffffffffffffffffffffffffffff1673ffffffffffffffffffffffffffffffffffffffff1673ffffffffffffffffffffffffffffffffffffffff1681526020019081526020016000206007015460096000600b60008f815260200190815260200160002060009054906101000a900473ffffffffffffffffffffffffffffffffffffffff1673ffffffffffffffffffffffffffffffffffffffff1673ffffffffffffffffffffffffffffffffffffffff1681526020019081526020016000206008015495509550955095509550955091939550919395565b6000600960008373ffffffffffffffffffffffffffffffffffffffff1673ffffffffffffffffffffffffffffffffffffffff168152602001908152602001600020600101549050919050565b60096020528060005260406000206000915090508060000154908060010154908060020154908060030154908060040154908060050154908060060154908060070154908060080154905089565b60078181548110151561337157fe5b906000526020600020016000915090505481565b6007600081548110151561339557fe5b9060005260206000200154600960008373ffffffffffffffffffffffffffffffffffffffff1673ffffffffffffffffffffffffffffffffffffffff1681526020019081526020016000206005015410151561375d57600760008154811015156133fa57fe5b9060005260206000200154600960008373ffffffffffffffffffffffffffffffffffffffff1673ffffffffffffffffffffffffffffffffffffffff168152602001908152602001600020600501600082825403925050819055506001600860008373ffffffffffffffffffffffffffffffffffffffff1673ffffffffffffffffffffffffffffffffffffffff16815260200190815260200160002060030160008282540192505081905550600060646050600760008154811015156134bb57fe5b9060005260206000200154028115156134d057fe5b0490506000600860008473ffffffffffffffffffffffffffffffffffffffff1673ffffffffffffffffffffffffffffffffffffffff16815260200190815260200160002060010160009054906101000a900473ffffffffffffffffffffffffffffffffffffffff16905060646014830281151561354957fe5b048203600960008373ffffffffffffffffffffffffffffffffffffffff1673ffffffffffffffffffffffffffffffffffffffff168152602001908152602001600020600401600082825401925050819055506064600a83028115156135aa57fe5b04600960008373ffffffffffffffffffffffffffffffffffffffff1673ffffffffffffffffffffffffffffffffffffffff168152602001908152602001600020600501600082825401925050819055506064600a830281151561360957fe5b04600960008373ffffffffffffffffffffffffffffffffffffffff1673ffffffffffffffffffffffffffffffffffffffff168152602001908152602001600020600601600082825401925050819055508073ffffffffffffffffffffffffffffffffffffffff1673ffffffffffffffffffffffffffffffffffffffff166108fc60646014850281151561369857fe5b0484039081150290604051600060405180830381858888f193505050501580156136c6573d6000803e3d6000fd5b506064601483028115156136d657fe5b0482036005600082825401925050819055506064600a600760008154811015156136fc57fe5b90600052602060002001540281151561371157fe5b046002600082825401925050819055506064600a6007600081548110151561373557fe5b90600052602060002001540281151561374a57fe5b0460036000828254019250508190555050505b50565b60015481565b6000806000806000806137776150c1565b60086000600b60008b815260200190815260200160002060009054906101000a900473ffffffffffffffffffffffffffffffffffffffff1673ffffffffffffffffffffffffffffffffffffffff1673ffffffffffffffffffffffffffffffffffffffff1681526020019081526020016000206101406040519081016040529081600082015481526020016001820160009054906101000a900473ffffffffffffffffffffffffffffffffffffffff1673ffffffffffffffffffffffffffffffffffffffff1673ffffffffffffffffffffffffffffffffffffffff16815260200160028201548152602001600382015481526020016004820154815260200160058201548152602001600682015481526020016007820180548060200260200160405190810160405280929190818152602001828054801561390d57602002820191906000526020600020905b8160009054906101000a900473ffffffffffffffffffffffffffffffffffffffff1673ffffffffffffffffffffffffffffffffffffffff16815260200190600101908083116138c3575b505050505081526020016008820160009054906101000a900460ff16151515158152602001600982015481525050905080602001518160400151826060015183608001518460a001518560c001519650965096509650965096505091939550919395565b6000600254905090565b6000600554905090565b60008190506139c833600b600085815260200190815260200160002060009054906101000a900473ffffffffffffffffffffffffffffffffffffffff16346149ab565b600080839050600460086000600b600088815260200190815260200160002060009054906101000a900473ffffffffffffffffffffffffffffffffffffffff1673ffffffffffffffffffffffffffffffffffffffff1673ffffffffffffffffffffffffffffffffffffffff16815260200190815260200160002060070180549050101515613ad457613a8c600b600086815260200190815260200160002060009054906101000a900473ffffffffffffffffffffffffffffffffffffffff1661105d565b9150600860008373ffffffffffffffffffffffffffffffffffffffff1673ffffffffffffffffffffffffffffffffffffffff1681526020019081526020016000206000015490505b6004600a6000600b600085815260200190815260200160002060009054906101000a900473ffffffffffffffffffffffffffffffffffffffff1673ffffffffffffffffffffffffffffffffffffffff1673ffffffffffffffffffffffffffffffffffffffff168152602001908152602001600020600001541015613c8757600a6000600b600084815260200190815260200160002060009054906101000a900473ffffffffffffffffffffffffffffffffffffffff1673ffffffffffffffffffffffffffffffffffffffff1673ffffffffffffffffffffffffffffffffffffffff168152602001908152602001600020600001600081548092919060010191905055506004600a6000600b600085815260200190815260200160002060009054906101000a900473ffffffffffffffffffffffffffffffffffffffff1673ffffffffffffffffffffffffffffffffffffffff1673ffffffffffffffffffffffffffffffffffffffff168152602001908152602001600020600001541415613c825760068190806001815401808255809150509060018203906000526020600020016000909192909190915055505b6140ef565b6004600a6000600b600085815260200190815260200160002060009054906101000a900473ffffffffffffffffffffffffffffffffffffffff1673ffffffffffffffffffffffffffffffffffffffff1673ffffffffffffffffffffffffffffffffffffffff1681526020019081526020016000206000015410158015613d8257506010600a6000600b600085815260200190815260200160002060009054906101000a900473ffffffffffffffffffffffffffffffffffffffff1673ffffffffffffffffffffffffffffffffffffffff1673ffffffffffffffffffffffffffffffffffffffff16815260200190815260200160002060010154105b15613ebc57600a6000600b600084815260200190815260200160002060009054906101000a900473ffffffffffffffffffffffffffffffffffffffff1673ffffffffffffffffffffffffffffffffffffffff1673ffffffffffffffffffffffffffffffffffffffff168152602001908152602001600020600101600081548092919060010191905055506010600a6000600b600085815260200190815260200160002060009054906101000a900473ffffffffffffffffffffffffffffffffffffffff1673ffffffffffffffffffffffffffffffffffffffff1673ffffffffffffffffffffffffffffffffffffffff168152602001908152602001600020600101541415613eb75760068190806001815401808255809150509060018203906000526020600020016000909192909190915055505b6140ee565b6010600a6000600b600085815260200190815260200160002060009054906101000a900473ffffffffffffffffffffffffffffffffffffffff1673ffffffffffffffffffffffffffffffffffffffff1673ffffffffffffffffffffffffffffffffffffffff1681526020019081526020016000206001015410158015613fb757506040600a6000600b600085815260200190815260200160002060009054906101000a900473ffffffffffffffffffffffffffffffffffffffff1673ffffffffffffffffffffffffffffffffffffffff1673ffffffffffffffffffffffffffffffffffffffff16815260200190815260200160002060020154105b156140ed57600a6000600b600084815260200190815260200160002060009054906101000a900473ffffffffffffffffffffffffffffffffffffffff1673ffffffffffffffffffffffffffffffffffffffff1673ffffffffffffffffffffffffffffffffffffffff168152602001908152602001600020600201600081548092919060010191905055506040600a6000600b600085815260200190815260200160002060009054906101000a900473ffffffffffffffffffffffffffffffffffffffff1673ffffffffffffffffffffffffffffffffffffffff1673ffffffffffffffffffffffffffffffffffffffff1681526020019081526020016000206002015414156140ec5760068190806001815401808255809150509060018203906000526020600020016000909192909190915055505b5b5b5b60086000600b600084815260200190815260200160002060009054906101000a900473ffffffffffffffffffffffffffffffffffffffff1673ffffffffffffffffffffffffffffffffffffffff1673ffffffffffffffffffffffffffffffffffffffff1681526020019081526020016000206007013390806001815401808255809150509060018203906000526020600020016000909192909190916101000a81548173ffffffffffffffffffffffffffffffffffffffff021916908373ffffffffffffffffffffffffffffffffffffffff1602179055505080600860003373ffffffffffffffffffffffffffffffffffffffff1673ffffffffffffffffffffffffffffffffffffffff1681526020019081526020016000206006018190555060086000600b600086815260200190815260200160002060009054906101000a900473ffffffffffffffffffffffffffffffffffffffff1673ffffffffffffffffffffffffffffffffffffffff1673ffffffffffffffffffffffffffffffffffffffff1681526020019081526020016000206002016000815480929190600101919050555050505050565b600860003373ffffffffffffffffffffffffffffffffffffffff1673ffffffffffffffffffffffffffffffffffffffff1681526020019081526020016000206005015481111515614353576040517f08c379a00000000000000000000000000000000000000000000000000000000081526004018080602001828103825260178152602001807f416c726561647920707572636861736564206c6576656c00000000000000000081525060200191505060405180910390fd5b600860003373ffffffffffffffffffffffffffffffffffffffff1673ffffffffffffffffffffffffffffffffffffffff16815260200190815260200160002060080160009054906101000a900460ff161515614417576040517f08c379a000000000000000000000000000000000000000000000000000000000815260040180806020018281038252600e8152602001807f55736572206e6f7420657869737400000000000000000000000000000000000081525060200191505060405180910390fd5b6000811180156144285750600a8111155b151561449c576040517f08c379a000000000000000000000000000000000000000000000000000000000815260040180806020018281038252600f8152602001807f496e636f7272656374206c6576656c000000000000000000000000000000000081525060200191505060405180910390fd5b6007818154811015156144ab57fe5b90600052602060002001543414151561452c576040517f08c379a000000000000000000000000000000000000000000000000000000000815260040180806020018281038252600f8152602001807f496e636f72726563742056616c7565000000000000000000000000000000000081525060200191505060405180910390fd5b60018103600860003373ffffffffffffffffffffffffffffffffffffffff1673ffffffffffffffffffffffffffffffffffffffff1681526020019081526020016000206005015414151561460e576040517f08c379a00000000000000000000000000000000000000000000000000000000081526004018080602001828103825260288152602001807f596f7520686176656e2774207075726368617365642070726576696f7573206c81526020017f6576656c2079657400000000000000000000000000000000000000000000000081525060400191505060405180910390fd5b60006064601460078481548110151561462357fe5b90600052602060002001540281151561463857fe5b0490506000600860003373ffffffffffffffffffffffffffffffffffffffff1673ffffffffffffffffffffffffffffffffffffffff16815260200190815260200160002060010160009054906101000a900473ffffffffffffffffffffffffffffffffffffffff1690506064826014028115156146b157fe5b048203600960008373ffffffffffffffffffffffffffffffffffffffff1673ffffffffffffffffffffffffffffffffffffffff16815260200190815260200160002060030160008282540192505081905550606482600a0281151561471257fe5b04600960008373ffffffffffffffffffffffffffffffffffffffff1673ffffffffffffffffffffffffffffffffffffffff16815260200190815260200160002060050160008282540192505081905550606482600a0281151561477157fe5b04600960008373ffffffffffffffffffffffffffffffffffffffff1673ffffffffffffffffffffffffffffffffffffffff16815260200190815260200160002060060160008282540192505081905550600860003373ffffffffffffffffffffffffffffffffffffffff1673ffffffffffffffffffffffffffffffffffffffff16815260200190815260200160002060010160009054906101000a900473ffffffffffffffffffffffffffffffffffffffff1673ffffffffffffffffffffffffffffffffffffffff1673ffffffffffffffffffffffffffffffffffffffff166108fc60648460140281151561486257fe5b0484039081150290604051600060405180830381858888f19350505050158015614890573d6000803e3d6000fd5b506064826014028115156148a057fe5b048203600560008282540192505081905550600a6001600860003373ffffffffffffffffffffffffffffffffffffffff1673ffffffffffffffffffffffffffffffffffffffff16815260200190815260200160002060050154011015614952576001600860003373ffffffffffffffffffffffffffffffffffffffff1673ffffffffffffffffffffffffffffffffffffffff168152602001908152602001600020600501600082825401925050819055505b3373ffffffffffffffffffffffffffffffffffffffff167f94ea718a6517c74ee4da32e6297595705048e7f1ca05b3133069c756cff40421846040518082815260200191505060405180910390a2505050565b60025481565b6000600860008573ffffffffffffffffffffffffffffffffffffffff1673ffffffffffffffffffffffffffffffffffffffff16815260200190815260200160002060000154141515614a65576040517f08c379a00000000000000000000000000000000000000000000000000000000081526004018080602001828103825260178152602001807f557365722061726c65616479207265676973746572656400000000000000000081525060200191505060405180910390fd5b6000600860008473ffffffffffffffffffffffffffffffffffffffff1673ffffffffffffffffffffffffffffffffffffffff1681526020019081526020016000206000015414151515614b20576040517f08c379a00000000000000000000000000000000000000000000000000000000081526004018080602001828103825260168152602001807f496e7669746572206e6f7420726567697374657265640000000000000000000081525060200191505060405180910390fd5b60076000815481101515614b3057fe5b90600052602060002001548110151515614bb2576040517f08c379a00000000000000000000000000000000000000000000000000000000081526004018080602001828103825260128152602001807f496e73756666696369656e742066756e6473000000000000000000000000000081525060200191505060405180910390fd5b6064600a60076000815481101515614bc657fe5b906000526020600020015402811515614bdb57fe5b046002600082825401925050819055506064600a60076000815481101515614bff57fe5b906000526020600020015402811515614c1457fe5b0460036000828254019250508190555060006064605060076000815481101515614c3a57fe5b906000526020600020015402811515614c4f57fe5b049050606460148202811515614c6157fe5b048103600960008573ffffffffffffffffffffffffffffffffffffffff1673ffffffffffffffffffffffffffffffffffffffff168152602001908152602001600020600101600082825401925050819055506064600a8202811515614cc257fe5b04600960008573ffffffffffffffffffffffffffffffffffffffff1673ffffffffffffffffffffffffffffffffffffffff168152602001908152602001600020600501600082825401925050819055506064600a8202811515614d2157fe5b04600960008573ffffffffffffffffffffffffffffffffffffffff1673ffffffffffffffffffffffffffffffffffffffff16815260200190815260200160002060060160008282540192505081905550600860008473ffffffffffffffffffffffffffffffffffffffff1673ffffffffffffffffffffffffffffffffffffffff168152602001908152602001600020600401600081548092919060010191905055508273ffffffffffffffffffffffffffffffffffffffff1673ffffffffffffffffffffffffffffffffffffffff166108fc606460148402811515614e0257fe5b0483039081150290604051600060405180830381858888f19350505050158015614e30573d6000803e3d6000fd5b50606460148202811515614e4057fe5b048103600560008282540192505081905550614e5c8484614e62565b50505050565b600160008154809291906001019190505550600154600860008473ffffffffffffffffffffffffffffffffffffffff1673ffffffffffffffffffffffffffffffffffffffff1681526020019081526020016000206000018190555080600860008473ffffffffffffffffffffffffffffffffffffffff1673ffffffffffffffffffffffffffffffffffffffff16815260200190815260200160002060010160006101000a81548173ffffffffffffffffffffffffffffffffffffffff021916908373ffffffffffffffffffffffffffffffffffffffff16021790555081600b6000600154815260200190815260200160002060006101000a81548173ffffffffffffffffffffffffffffffffffffffff021916908373ffffffffffffffffffffffffffffffffffffffff1602179055506001600860008473ffffffffffffffffffffffffffffffffffffffff1673ffffffffffffffffffffffffffffffffffffffff16815260200190815260200160002060080160006101000a81548160ff0219169083151502179055506000600860003373ffffffffffffffffffffffffffffffffffffffff1673ffffffffffffffffffffffffffffffffffffffff168152602001908152602001600020600501819055508073ffffffffffffffffffffffffffffffffffffffff168273ffffffffffffffffffffffffffffffffffffffff167fcc0bec1447060c88cdc5a739cf29cfa26c453574dd3f5b9e4dcc317d6401cb1c6001546040518082815260200191505060405180910390a35050565b50805460008255906000526020600020908101906150be919061512d565b50565b6101406040519081016040528060008152602001600073ffffffffffffffffffffffffffffffffffffffff168152602001600081526020016000815260200160008152602001600081526020016000815260200160608152602001600015158152602001600081525090565b61514f91905b8082111561514b576000816000905550600101615133565b5090565b9056fea165627a7a7230582009cec70ccc9c186790cf743bf6f5267232fd5ad1ba54947d01e468c0ac9dc7420029",
  "source": "//SPDX-License-Identifier: UNLICENSED\npragma solidity >=0.5.1;\n\ncontract MLM {\n    address public ownerWallet;\n    uint256 public totalUsers;\n    uint256 public rewardWallet;\n    uint256 public levelRewardWallet;\n    uint256 public distributionWallet;\n    uint256 public totalAmountDistributed;\n    uint256[] public levelWinners;\n    \n    struct User {\n        uint256 id;\n        address inviter;\n        uint256 totalReferals;\n        uint256 totalRecycles;\n        uint256 dailyReferrals;\n        uint256 levelsPurchased;\n        uint256 upline;\n        // uint256[] uplines;\n        address[] referral;\n        bool isExist;\n        uint256 loss;\n    }\n \n    struct UserIncomes{\n        uint256 id;\n        uint256 directIncome;\n        uint256 rewardIncome;\n        uint256 levelIncome;\n        uint256 recycleIncome;\n        uint256 recycleFund;\n        uint256 levelFund;\n        uint256 upgradeIncome;\n        uint256 levelRewardIncome;\n }\n \n struct UserLevels{\n    uint256 level1;\n    uint256 level2;\n    uint256 level3;\n }\n\n    uint256[] public levels;\n   \n    mapping(address => User) public users;\n    mapping(address => UserIncomes) public usersIncomes;\n    mapping(address => UserLevels) public userLevels;\n\n    mapping(uint256 => address) public users_ids;\n    \n    event Register(address indexed addr, address indexed inviter, uint256 id);\n    event BuyLevel(\n        address indexed addr,\n        address indexed upline,\n        uint8 level\n    );\n    event buyLevelEvent(address indexed _user, uint256 _level);\n\n    constructor() public{\n        totalUsers = 0;\n        ownerWallet = msg.sender;\n        levels.push(0.05 ether);\n        levels.push(0.01 ether);\n        levels.push(0.02 ether);\n        levels.push(0.03 ether);\n        levels.push(0.04 ether);\n        levels.push(0.05 ether);\n        levels.push(0.06 ether);\n        levels.push(0.07 ether);\n        levels.push(0.08 ether);\n        levels.push(0.09 ether);\n        levels.push(0.10 ether);\n        newUser(msg.sender, address(0));\n        users[msg.sender].levelsPurchased = 10;\n        users[msg.sender].referral= new address[](0);\n        users[msg.sender].upline = 0;\n    }\n\n    function newUser(address _addr, address _inviter) private {\n        totalUsers++;\n        users[_addr].id = totalUsers;\n        users[_addr].inviter = _inviter;\n        users_ids[totalUsers] = _addr;\n        users[_addr].isExist = true;\n        \n        users[msg.sender].levelsPurchased = 0;\n        emit Register(_addr, _inviter, totalUsers);\n\n    }\n\n    function _register(\n        address _user,\n        address _inviter,\n        uint256 _value\n    ) private {\n        require(users[_user].id == 0, \"User arleady registered\");\n        require(users[_inviter].id != 0, \"Inviter not registered\");\n        require(_value >= levels[0], \"Insufficient funds\");\n\n        \n        rewardWallet += (levels[0] * 10) / 100;\n        levelRewardWallet += (levels[0] * 10) / 100;\n\n        uint256 referalMoney = (levels[0] * 80) / 100;\n        usersIncomes[_inviter].directIncome += (referalMoney - (referalMoney * 20) / 100);\n        usersIncomes[_inviter].recycleFund += (referalMoney * 10) / 100;\n        usersIncomes[_inviter].levelFund += (referalMoney * 10) / 100;\n        \n        // if(usersIncomes[_inviter].recycleFund>=levels[0])\n        // recycleId(_inviter);\n        \n        // if((usersIncomes[_inviter].levelFund>=levels[users[_inviter].levelsPurchased+1]) && users[_inviter].levelsPurchased < 10)\n        // autoBuyLevel(_inviter);\n        \n        users[_inviter].dailyReferrals++;\n        address(uint256(_inviter)).transfer(referalMoney - (referalMoney * 20) / 100);\n\n        totalAmountDistributed += (referalMoney - (referalMoney * 20) / 100);\n        \n        newUser(_user, _inviter);\n    }\n\n    function register(uint256  _inviter_id) external payable {\n        uint256 tempReferrerID = _inviter_id;\n        _register(msg.sender, users_ids[_inviter_id], msg.value);\n        address add;\n        uint256 id = _inviter_id;\n        if(users[users_ids[_inviter_id]].referral.length >= 4) {\n            add = findFreeReferrer(users_ids[_inviter_id]);\n            id = users[add].id;\n        }\n        if(userLevels[users_ids[id]].level1<4){\n            userLevels[users_ids[id]].level1++;\n            if( userLevels[users_ids[id]].level1==4){\n                levelWinners.push(id);\n            }\n        }\n\n        else if(userLevels[users_ids[id]].level1>=4 && userLevels[users_ids[id]].level2<16){\n            userLevels[users_ids[id]].level2++;\n            if( userLevels[users_ids[id]].level2==16){\n                levelWinners.push(id);\n            }\n        }\n\n        else if(userLevels[users_ids[id]].level2>=16 && userLevels[users_ids[id]].level3<64){\n            userLevels[users_ids[id]].level3++;\n            if( userLevels[users_ids[id]].level3==64){\n                levelWinners.push(id);\n            }\n        }\n        users[users_ids[id]].referral.push(msg.sender);\n        users[msg.sender].upline =id;\n        users[users_ids[tempReferrerID]].totalReferals++;\n    }\n\n    function buyLevel(uint256 _level) public payable {\n        require( _level > users[msg.sender].levelsPurchased,\"Already purchased level\" );\n        require(users[msg.sender].isExist, \"User not exist\");\n        require(_level > 0 && _level <= 10, \"Incorrect level\");\n        require(msg.value == levels[_level], \"Incorrect Value\");\n        require( users[msg.sender].levelsPurchased == _level - 1,\"You haven't purchased previous level yet\");\n      \n        uint256 upgradeAmount = (levels[_level] * 20) / 100;\n        address _inviter = users[msg.sender].inviter;\n        usersIncomes[_inviter].levelIncome += (upgradeAmount -(20 * upgradeAmount) / 100);\n        usersIncomes[_inviter].recycleFund +=(10 * upgradeAmount) /100;\n        usersIncomes[_inviter].levelFund += (10 * upgradeAmount) / 100;\n        // if(usersIncomes[_inviter].recycleFund>=levels[0])\n        // recycleId(_inviter);\n        \n        // if((usersIncomes[_inviter].levelFund>=levels[users[_inviter].levelsPurchased+1]) && users[_inviter].levelsPurchased < 10)\n        // autoBuyLevel(_inviter);\n\n        address(uint256(users[msg.sender].inviter)).transfer(\n            upgradeAmount - (20 * upgradeAmount) / 100\n        );\n\n        totalAmountDistributed += (upgradeAmount - (20 * upgradeAmount) / 100);\n\n        if (users[msg.sender].levelsPurchased + 1 < 10)\n            users[msg.sender].levelsPurchased += 1;\n\n        // distributeLevelUpgradeAmount(_level);\n       \n        emit buyLevelEvent(msg.sender, _level);\n    }\n\n    function autoBuyLevel(address _user) public {\n\n        uint256 _level = users[_user].levelsPurchased + 1;\n        require(_level > 0 && _level <= 10, \"Incorrect level\");\n        require( usersIncomes[_user].levelFund >= levels[_level],\"Incorrect Value\");\n     \n        uint256 upgradeAmount = (levels[_level] * 20) / 100;\n        address _inviter= users[msg.sender].inviter;\n        usersIncomes[_inviter].levelIncome += (upgradeAmount -(20 * upgradeAmount) /100);\n        usersIncomes[_inviter].recycleFund +=(10 * upgradeAmount) /100;\n        usersIncomes[_inviter].levelFund +=(10 * upgradeAmount) /100;\n        \n        // if(usersIncomes[_inviter].recycleFund>=levels[0])\n        // recycleId(_inviter);\n        \n        // if((usersIncomes[_inviter].levelFund>=levels[users[_inviter].levelsPurchased+1]) && users[_inviter].levelsPurchased < 10)\n        // autoBuyLevel(_inviter);\n\n        address(uint256(users[_user].inviter)).transfer(\n            (upgradeAmount - (20 * upgradeAmount) / 100)\n        );\n\n        totalAmountDistributed += (upgradeAmount - (20 * upgradeAmount) / 100);\n        usersIncomes[_user].levelFund -= levels[_level];\n        users[_user].levelsPurchased += 1;\n\n         //level distribution is done\n        distributeLevelUpgradeAmount(_level);\n\n        emit buyLevelEvent(_user, _level);\n    }\n\n    function recycleId(address _user) public {\n        if(usersIncomes[_user].recycleFund >= levels[0]){\n            usersIncomes[_user].recycleFund -= levels[0];\n            users[_user].totalRecycles+=1;\n\n            uint256 referalMoney = (levels[0] * 80) / 100;\n\n            address _inviter = users[_user].inviter;\n            usersIncomes[_inviter].recycleIncome += (referalMoney -(referalMoney * 20) /100);\n            usersIncomes[_inviter].recycleFund += (referalMoney * 10) / 100;\n            usersIncomes[_inviter].levelFund += (referalMoney * 10) / 100;\n\n            address(uint256(_inviter)).transfer(referalMoney - (referalMoney * 20) / 100);\n            totalAmountDistributed += (referalMoney -(referalMoney * 20) /100);\n\n            rewardWallet += (levels[0] * 10) / 100;\n            levelRewardWallet += (levels[0] * 10) / 100;\n            \n            // if(usersIncomes[_inviter].recycleFund>=levels[0])\n            // recycleId(_inviter);\n        \n            // if((usersIncomes[_inviter].levelFund>=levels[users[_inviter].levelsPurchased+1]) && users[_inviter].levelsPurchased < 10)\n            // autoBuyLevel(_inviter);\n        }\n    }\n\n    function distributeReward(\n        address _winner1,\n        address _winner2,\n        address _winner3\n    ) public {\n     \n        uint256 first = (50 * rewardWallet) / 100;\n        uint256 second = (30 * rewardWallet) / 100;\n        uint256 third = (20 * rewardWallet) / 100;\n\n        usersIncomes[_winner1].rewardIncome += (first - (20 * first) / 100);\n        usersIncomes[_winner2].rewardIncome += (second - (20 * second) / 100);\n        usersIncomes[_winner3].rewardIncome += (third - (20 * third) / 100);\n\n        address(uint256(_winner1)).transfer(usersIncomes[_winner1].rewardIncome);\n        address(uint256(_winner2)).transfer(usersIncomes[_winner2].rewardIncome);\n        address(uint256(_winner3)).transfer(usersIncomes[_winner3].rewardIncome);\n\n        totalAmountDistributed += (usersIncomes[_winner1].rewardIncome + \n        usersIncomes[_winner2].rewardIncome + usersIncomes[_winner3].rewardIncome);\n\n        rewardWallet = 0;\n        \n        address _inviter1 = users[_winner1].inviter;\n        address _inviter2 = users[_winner2].inviter;\n        address _inviter3 = users[_winner3].inviter;\n        \n        usersIncomes[_inviter1].recycleFund += (10 * first) / 100;\n        usersIncomes[_inviter2].recycleFund += (10 * second) / 100;\n        usersIncomes[_inviter3].recycleFund += (10 * third) / 100;\n\n        usersIncomes[_inviter1].levelFund += (10 * first) / 100;\n        usersIncomes[_inviter2].levelFund += (10 * second) / 100;\n        usersIncomes[_inviter3].levelFund += (10 * third) / 100;\n\n        // if(usersIncomes[_inviter1].recycleFund>=levels[0])\n        // recycleId(_inviter2);\n        \n        // if((usersIncomes[_inviter1].levelFund >= levels[users[_inviter1].levelsPurchased+1]) && (users[_inviter1].levelsPurchased < 10))\n        // autoBuyLevel(_inviter1);\n\n        // if(usersIncomes[_inviter2].recycleFund>=levels[0])\n        // recycleId(_inviter2);\n        \n        if((usersIncomes[_inviter2].levelFund >= levels[users[_inviter2].levelsPurchased+1]) && (users[_inviter2].levelsPurchased < 10))\n        autoBuyLevel(_inviter2);\n\n        // if(usersIncomes[_inviter3].recycleFund>=levels[0])\n        // recycleId(_inviter3);\n        \n        if((usersIncomes[_inviter3].levelFund >= levels[users[_inviter3].levelsPurchased+1]) && (users[_inviter3].levelsPurchased < 10))\n        autoBuyLevel(_inviter3);\n\n    }\n\n\n    function distributeLevelReward() public{\n        uint256 totalprice = levelRewardWallet/levelWinners.length;\n        uint256 price = totalprice - (20*totalprice)/100;\n        uint256 recyclePrice = (10*totalprice)/100;\n        uint256 levelPrice = (10*totalprice)/100;\n        for(uint256 i=0;i<levelWinners.length;i++){\n            address(uint256(users_ids[levelWinners[i]])).transfer(price);\n            usersIncomes[users_ids[levelWinners[i]]].levelRewardIncome += price;\n            address _inviter = users[users_ids[levelWinners[i]]].inviter;\n            \n            usersIncomes[_inviter].recycleFund += recyclePrice;\n            usersIncomes[_inviter].levelFund += levelPrice;\n            \n            // if(usersIncomes[_inviter].recycleFund>=levels[0])\n            // recycleId(_inviter);\n            \n            // if((usersIncomes[_inviter].levelFund >= levels[users[_inviter].levelsPurchased+1]) && (users[_inviter].levelsPurchased < 10))\n            // autoBuyLevel(_inviter);\n        }\n        totalAmountDistributed += price*levelWinners.length;\n        delete levelWinners;\n    }\n\n    function distributeLevelUpgradeAmount(uint256 _level) public{\n        uint256 x = (levels[_level]*8)/100;\n        uint256 y = (20*x)/100;\n        uint256 price = (x-y);\n\n        uint256 upline = users[msg.sender].upline;\n        for(uint256 i=0;i<10;i++){\n            if(users[users_ids[upline]].upline==0)\n            {\n                //some changes needed\n                distributionWallet += price; \n            }\n            else if(users[users_ids[upline]].levelsPurchased>=(i+1)){\n                usersIncomes[users_ids[upline]].upgradeIncome += price;\n\n                usersIncomes[users_ids[upline]].recycleFund += (10*x)/100;\n                usersIncomes[users_ids[upline]].levelFund += (10*x)/100;\n                \n                // if(usersIncomes[users_ids[uplines[i]]].recycleFund>=levels[0])\n                // recycleId(users[users_ids[uplines[i]]].inviter);\n                \n                // if((usersIncomes[users_ids[user.upline]].levelFund >= levels[users[users_ids[user.upline]].levelsPurchased+1]) && (users[users_ids[user.uplines[i]]].levelsPurchased < 10))\n                // autoBuyLevel(users[users_ids[user.uplines[i]]].inviter);\n                \n                address(uint256(users_ids[upline])).transfer(price);\n                totalAmountDistributed += price;\n                upline = users[users_ids[upline]].upline;\n            }\n\n            else{\n                users[users_ids[upline]].loss += price;\n                distributionWallet += price; \n            }\n           \n        }\n    }\n    \n    function getTotalAmountWithdrawn() public view returns (uint256) {\n        return totalAmountDistributed;\n    }\n\n    function getTotalUsers() public view returns (uint256) {\n        return totalUsers;\n    }\n\n    function getRewardWallet()public view returns (uint256) {\n        return rewardWallet;\n    }\n    function getLevelRewardWallet() public view returns (uint256) {\n        return levelRewardWallet;\n    }\n\n    function getDirectIncome(address _add) public view returns (uint256){\n        return usersIncomes[_add].directIncome;\n    }\n\n   function getUserInfo(uint256 _id)\n        public\n        view\n        returns (\n        address inviter,\n        uint256 totalReferals,\n        uint256 totalRecycles,\n        uint256 dailyReferrals,\n        uint256 levelsPurchased,\n        uint256 upline\n        )\n    {\n        User memory user = users[users_ids[_id]];\n        return (\n            user.inviter,\n            user.totalReferals,\n            user.totalRecycles,\n            user.dailyReferrals,\n            user.levelsPurchased,\n            user.upline\n        );\n    }\n    \n    function getUsersIncomes(uint256 _id) public view returns (\n        uint256 directIncome,\n        // uint256 rewardIncome,\n        uint256 levelIncome,\n        uint256 recycleIncome,\n        uint256 recycleFund,\n        // uint256 levelFund,\n        uint256 upgradeIncome,\n        uint256 levelRewardIncome\n        )\n        {\n        return (\n            usersIncomes[users_ids[_id]].directIncome,\n            // usersIncomes[users_ids[_id]].rewardIncome,\n            usersIncomes[users_ids[_id]].levelIncome,\n            usersIncomes[users_ids[_id]].recycleIncome,\n            usersIncomes[users_ids[_id]].recycleFund,\n            // usersIncomes[users_ids[_id]].levelFund,\n            usersIncomes[users_ids[_id]].upgradeIncome,\n            usersIncomes[users_ids[_id]].levelRewardIncome\n            );\n    }\n    function withDrawlevelFund() public {\n        require(users[msg.sender].levelsPurchased >= 10, \"you cannot withdraw amount\");\n\n        address(uint256(msg.sender)).transfer(\n            usersIncomes[msg.sender].levelFund\n        );\n\n        usersIncomes[msg.sender].levelFund = 0;\n    }\n   \n    function withdrawDistributionWallet() public{\n        require(msg.sender == ownerWallet,\"you are not owner\");\n        address(uint256(ownerWallet)).transfer(distributionWallet);\n        totalAmountDistributed += distributionWallet;\n        distributionWallet = 0;\n    }\n    function findFreeReferrer(address _user) public view returns(address) {\n        if(users[_user].referral.length < 4) return _user;\n\n        address[] memory referrals = new address[](20000);\n        referrals[0] = users[_user].referral[0];\n        referrals[1] = users[_user].referral[1];\n        referrals[2] = users[_user].referral[2];\n        referrals[3] = users[_user].referral[3];\n\n        address freeReferrer;\n        bool noFreeReferrer = true;\n\n        for(uint256 i = 0; i < 20000; i++) {\n            if(users[referrals[i]].referral.length == 4) {\n                    referrals[(i+1)*4] = users[referrals[i]].referral[0];\n                    referrals[(i+1)*4+1] = users[referrals[i]].referral[1];\n                    referrals[(i+1)*4+2] = users[referrals[i]].referral[2];\n                    referrals[(i+1)*4+3] = users[referrals[i]].referral[3];\n            }\n            else {\n                noFreeReferrer = false;\n                freeReferrer = referrals[i];\n                break;\n            }\n        }\n\n        require(!noFreeReferrer, 'No Free Referrer');\n\n        return freeReferrer;\n    }\n\n    function viewUserReferral(address _user) public view returns(address[] memory) {\n        return users[_user].referral;\n    }\n    \n    // function setUplines(uint256 _id) public{\n    //     uint256[] memory uplinesLocal=new uint256[](11);\n    //     uint256 userId = users[users_ids[_id]].upline;\n    //     for(uint256 i=1;i<=10;i++){\n    //         if(userId == 0)\n    //         break;\n    //         uplinesLocal[i]=userId;\n    //         userId = users[users_ids[userId]].upline;\n    //     }\n    //     users[users_ids[_id]].uplines = uplinesLocal;\n       \n    // }\n\n    // function getUplines(uint256 _id) public view returns(uint256[] memory){\n    //     return users[users_ids[_id]].uplines;\n    // }\n}\n",
  "sourcePath": "/home/shandroid/Desktop/bird/client/RajBhai/dashboard2/light-blue-react-template/contracts/MLM.sol",
  "compiler": {
    "name": "solc",
    "version": "0.5.1+commit.c8a2cb62.Emscripten.clang"
  },
  "schemaVersion": "3.2.3",
  "updatedAt": "2020-08-14T22:34:17.305Z",
  "networkType": "ethereum",
  "devdoc": {
    "methods": {}
  },
  "userdoc": {
    "methods": {}
  }
}